{
  "address": "0x5FE3eF7Ad240e38C6219Ed8a98FD187C8c787B31",
  "abi": [
    {
      "inputs": [],
      "stateMutability": "nonpayable",
      "type": "constructor"
    },
    {
      "anonymous": false,
      "inputs": [
        {
          "indexed": false,
          "internalType": "address",
          "name": "previousAdmin",
          "type": "address"
        },
        {
          "indexed": false,
          "internalType": "address",
          "name": "newAdmin",
          "type": "address"
        }
      ],
      "name": "AdminChanged",
      "type": "event"
    },
    {
      "anonymous": false,
      "inputs": [
        {
          "indexed": true,
          "internalType": "address",
          "name": "owner",
          "type": "address"
        },
        {
          "indexed": true,
          "internalType": "address",
          "name": "approved",
          "type": "address"
        },
        {
          "indexed": true,
          "internalType": "uint256",
          "name": "tokenId",
          "type": "uint256"
        }
      ],
      "name": "Approval",
      "type": "event"
    },
    {
      "anonymous": false,
      "inputs": [
        {
          "indexed": true,
          "internalType": "address",
          "name": "owner",
          "type": "address"
        },
        {
          "indexed": true,
          "internalType": "address",
          "name": "operator",
          "type": "address"
        },
        {
          "indexed": false,
          "internalType": "bool",
          "name": "approved",
          "type": "bool"
        }
      ],
      "name": "ApprovalForAll",
      "type": "event"
    },
    {
      "anonymous": false,
      "inputs": [
        {
          "indexed": true,
          "internalType": "address",
          "name": "beacon",
          "type": "address"
        }
      ],
      "name": "BeaconUpgraded",
      "type": "event"
    },
    {
      "anonymous": false,
      "inputs": [
        {
          "indexed": false,
          "internalType": "uint256",
          "name": "tokenId",
          "type": "uint256"
        }
      ],
      "name": "Burn",
      "type": "event"
    },
    {
      "anonymous": false,
      "inputs": [
        {
          "indexed": false,
          "internalType": "uint8",
          "name": "version",
          "type": "uint8"
        }
      ],
      "name": "Initialized",
      "type": "event"
    },
    {
      "anonymous": false,
      "inputs": [
        {
          "indexed": false,
          "internalType": "uint256",
          "name": "tokenId",
          "type": "uint256"
        },
        {
          "components": [
            {
              "internalType": "enum Levels.Level",
              "name": "level",
              "type": "uint8"
            },
            {
              "internalType": "uint256",
              "name": "dust",
              "type": "uint256"
            }
          ],
          "indexed": false,
          "internalType": "struct IKinetexRewards.Attributes",
          "name": "attributes",
          "type": "tuple"
        }
      ],
      "name": "Mint",
      "type": "event"
    },
    {
      "anonymous": false,
      "inputs": [
        {
          "indexed": true,
          "internalType": "bytes32",
          "name": "role",
          "type": "bytes32"
        },
        {
          "indexed": true,
          "internalType": "bytes32",
          "name": "previousAdminRole",
          "type": "bytes32"
        },
        {
          "indexed": true,
          "internalType": "bytes32",
          "name": "newAdminRole",
          "type": "bytes32"
        }
      ],
      "name": "RoleAdminChanged",
      "type": "event"
    },
    {
      "anonymous": false,
      "inputs": [
        {
          "indexed": true,
          "internalType": "bytes32",
          "name": "role",
          "type": "bytes32"
        },
        {
          "indexed": true,
          "internalType": "address",
          "name": "account",
          "type": "address"
        },
        {
          "indexed": true,
          "internalType": "address",
          "name": "sender",
          "type": "address"
        }
      ],
      "name": "RoleGranted",
      "type": "event"
    },
    {
      "anonymous": false,
      "inputs": [
        {
          "indexed": true,
          "internalType": "bytes32",
          "name": "role",
          "type": "bytes32"
        },
        {
          "indexed": true,
          "internalType": "address",
          "name": "account",
          "type": "address"
        },
        {
          "indexed": true,
          "internalType": "address",
          "name": "sender",
          "type": "address"
        }
      ],
      "name": "RoleRevoked",
      "type": "event"
    },
    {
      "anonymous": false,
      "inputs": [
        {
          "indexed": false,
          "internalType": "string",
          "name": "uri",
          "type": "string"
        }
      ],
      "name": "SetBaseURI",
      "type": "event"
    },
    {
      "anonymous": false,
      "inputs": [
        {
          "indexed": false,
          "internalType": "string",
          "name": "uri",
          "type": "string"
        }
      ],
      "name": "SetContractURI",
      "type": "event"
    },
    {
      "anonymous": false,
      "inputs": [
        {
          "indexed": true,
          "internalType": "address",
          "name": "from",
          "type": "address"
        },
        {
          "indexed": true,
          "internalType": "address",
          "name": "to",
          "type": "address"
        },
        {
          "indexed": true,
          "internalType": "uint256",
          "name": "tokenId",
          "type": "uint256"
        }
      ],
      "name": "Transfer",
      "type": "event"
    },
    {
      "anonymous": false,
      "inputs": [
        {
          "indexed": true,
          "internalType": "address",
          "name": "implementation",
          "type": "address"
        }
      ],
      "name": "Upgraded",
      "type": "event"
    },
    {
      "inputs": [],
      "name": "BURNER_ROLE",
      "outputs": [
        {
          "internalType": "bytes32",
          "name": "",
          "type": "bytes32"
        }
      ],
      "stateMutability": "view",
      "type": "function"
    },
    {
      "inputs": [],
      "name": "DEFAULT_ADMIN_ROLE",
      "outputs": [
        {
          "internalType": "bytes32",
          "name": "",
          "type": "bytes32"
        }
      ],
      "stateMutability": "view",
      "type": "function"
    },
    {
      "inputs": [],
      "name": "MINTER_ROLE",
      "outputs": [
        {
          "internalType": "bytes32",
          "name": "",
          "type": "bytes32"
        }
      ],
      "stateMutability": "view",
      "type": "function"
    },
    {
      "inputs": [
        {
          "internalType": "address",
          "name": "to",
          "type": "address"
        },
        {
          "internalType": "uint256",
          "name": "tokenId",
          "type": "uint256"
        }
      ],
      "name": "approve",
      "outputs": [],
      "stateMutability": "nonpayable",
      "type": "function"
    },
    {
      "inputs": [
        {
          "internalType": "address",
          "name": "owner",
          "type": "address"
        }
      ],
      "name": "balanceOf",
      "outputs": [
        {
          "internalType": "uint256",
          "name": "",
          "type": "uint256"
        }
      ],
      "stateMutability": "view",
      "type": "function"
    },
    {
      "inputs": [],
      "name": "baseURI",
      "outputs": [
        {
          "internalType": "string",
          "name": "",
          "type": "string"
        }
      ],
      "stateMutability": "view",
      "type": "function"
    },
    {
      "inputs": [
        {
          "internalType": "uint256",
          "name": "tokenId",
          "type": "uint256"
        }
      ],
      "name": "burn",
      "outputs": [],
      "stateMutability": "nonpayable",
      "type": "function"
    },
    {
      "inputs": [
        {
          "internalType": "uint256",
          "name": "tokenId",
          "type": "uint256"
        }
      ],
      "name": "burnPriveleged",
      "outputs": [],
      "stateMutability": "nonpayable",
      "type": "function"
    },
    {
      "inputs": [],
      "name": "contractMetadataURI",
      "outputs": [
        {
          "internalType": "string",
          "name": "",
          "type": "string"
        }
      ],
      "stateMutability": "view",
      "type": "function"
    },
    {
      "inputs": [],
      "name": "contractURI",
      "outputs": [
        {
          "internalType": "string",
          "name": "",
          "type": "string"
        }
      ],
      "stateMutability": "view",
      "type": "function"
    },
    {
      "inputs": [
        {
          "internalType": "uint256",
          "name": "tokenId",
          "type": "uint256"
        }
      ],
      "name": "getApproved",
      "outputs": [
        {
          "internalType": "address",
          "name": "",
          "type": "address"
        }
      ],
      "stateMutability": "view",
      "type": "function"
    },
    {
      "inputs": [
        {
          "internalType": "uint256",
          "name": "tokenId",
          "type": "uint256"
        }
      ],
      "name": "getAttributes",
      "outputs": [
        {
          "components": [
            {
              "internalType": "enum Levels.Level",
              "name": "level",
              "type": "uint8"
            },
            {
              "internalType": "uint256",
              "name": "dust",
              "type": "uint256"
            }
          ],
          "internalType": "struct IKinetexRewards.Attributes",
          "name": "",
          "type": "tuple"
        }
      ],
      "stateMutability": "view",
      "type": "function"
    },
    {
      "inputs": [
        {
          "internalType": "uint256",
          "name": "tokenId",
          "type": "uint256"
        }
      ],
      "name": "getDust",
      "outputs": [
        {
          "internalType": "uint256",
          "name": "",
          "type": "uint256"
        }
      ],
      "stateMutability": "view",
      "type": "function"
    },
    {
      "inputs": [],
      "name": "getNextTokenId",
      "outputs": [
        {
          "internalType": "uint256",
          "name": "",
          "type": "uint256"
        }
      ],
      "stateMutability": "view",
      "type": "function"
    },
    {
      "inputs": [
        {
          "internalType": "bytes32",
          "name": "role",
          "type": "bytes32"
        }
      ],
      "name": "getRoleAdmin",
      "outputs": [
        {
          "internalType": "bytes32",
          "name": "",
          "type": "bytes32"
        }
      ],
      "stateMutability": "view",
      "type": "function"
    },
    {
      "inputs": [
        {
          "internalType": "bytes32",
          "name": "role",
          "type": "bytes32"
        },
        {
          "internalType": "address",
          "name": "account",
          "type": "address"
        }
      ],
      "name": "grantRole",
      "outputs": [],
      "stateMutability": "nonpayable",
      "type": "function"
    },
    {
      "inputs": [
        {
          "internalType": "bytes32",
          "name": "role",
          "type": "bytes32"
        },
        {
          "internalType": "address",
          "name": "account",
          "type": "address"
        }
      ],
      "name": "hasRole",
      "outputs": [
        {
          "internalType": "bool",
          "name": "",
          "type": "bool"
        }
      ],
      "stateMutability": "view",
      "type": "function"
    },
    {
      "inputs": [],
      "name": "initialize",
      "outputs": [],
      "stateMutability": "nonpayable",
      "type": "function"
    },
    {
      "inputs": [
        {
          "internalType": "address",
          "name": "owner",
          "type": "address"
        },
        {
          "internalType": "address",
          "name": "operator",
          "type": "address"
        }
      ],
      "name": "isApprovedForAll",
      "outputs": [
        {
          "internalType": "bool",
          "name": "",
          "type": "bool"
        }
      ],
      "stateMutability": "view",
      "type": "function"
    },
    {
      "inputs": [],
      "name": "name",
      "outputs": [
        {
          "internalType": "string",
          "name": "",
          "type": "string"
        }
      ],
      "stateMutability": "view",
      "type": "function"
    },
    {
      "inputs": [
        {
          "internalType": "uint256",
          "name": "tokenId",
          "type": "uint256"
        }
      ],
      "name": "ownerOf",
      "outputs": [
        {
          "internalType": "address",
          "name": "",
          "type": "address"
        }
      ],
      "stateMutability": "view",
      "type": "function"
    },
    {
      "inputs": [],
      "name": "proxiableUUID",
      "outputs": [
        {
          "internalType": "bytes32",
          "name": "",
          "type": "bytes32"
        }
      ],
      "stateMutability": "view",
      "type": "function"
    },
    {
      "inputs": [
        {
          "internalType": "bytes32",
          "name": "role",
          "type": "bytes32"
        },
        {
          "internalType": "address",
          "name": "account",
          "type": "address"
        }
      ],
      "name": "renounceRole",
      "outputs": [],
      "stateMutability": "nonpayable",
      "type": "function"
    },
    {
      "inputs": [
        {
          "internalType": "bytes32",
          "name": "role",
          "type": "bytes32"
        },
        {
          "internalType": "address",
          "name": "account",
          "type": "address"
        }
      ],
      "name": "revokeRole",
      "outputs": [],
      "stateMutability": "nonpayable",
      "type": "function"
    },
    {
      "inputs": [
        {
          "internalType": "address",
          "name": "to",
          "type": "address"
        },
        {
          "internalType": "uint256",
          "name": "dust",
          "type": "uint256"
        }
      ],
      "name": "safeMint",
      "outputs": [],
      "stateMutability": "nonpayable",
      "type": "function"
    },
    {
      "inputs": [
        {
          "internalType": "address",
          "name": "from",
          "type": "address"
        },
        {
          "internalType": "address",
          "name": "to",
          "type": "address"
        },
        {
          "internalType": "uint256",
          "name": "tokenId",
          "type": "uint256"
        }
      ],
      "name": "safeTransferFrom",
      "outputs": [],
      "stateMutability": "nonpayable",
      "type": "function"
    },
    {
      "inputs": [
        {
          "internalType": "address",
          "name": "from",
          "type": "address"
        },
        {
          "internalType": "address",
          "name": "to",
          "type": "address"
        },
        {
          "internalType": "uint256",
          "name": "tokenId",
          "type": "uint256"
        },
        {
          "internalType": "bytes",
          "name": "data",
          "type": "bytes"
        }
      ],
      "name": "safeTransferFrom",
      "outputs": [],
      "stateMutability": "nonpayable",
      "type": "function"
    },
    {
      "inputs": [
        {
          "internalType": "address",
          "name": "operator",
          "type": "address"
        },
        {
          "internalType": "bool",
          "name": "approved",
          "type": "bool"
        }
      ],
      "name": "setApprovalForAll",
      "outputs": [],
      "stateMutability": "nonpayable",
      "type": "function"
    },
    {
      "inputs": [
        {
          "internalType": "string",
          "name": "uri",
          "type": "string"
        }
      ],
      "name": "setBaseURI",
      "outputs": [],
      "stateMutability": "nonpayable",
      "type": "function"
    },
    {
      "inputs": [
        {
          "internalType": "string",
          "name": "uri",
          "type": "string"
        }
      ],
      "name": "setContractURI",
      "outputs": [],
      "stateMutability": "nonpayable",
      "type": "function"
    },
    {
      "inputs": [
        {
          "internalType": "bytes4",
          "name": "interfaceId",
          "type": "bytes4"
        }
      ],
      "name": "supportsInterface",
      "outputs": [
        {
          "internalType": "bool",
          "name": "",
          "type": "bool"
        }
      ],
      "stateMutability": "view",
      "type": "function"
    },
    {
      "inputs": [],
      "name": "symbol",
      "outputs": [
        {
          "internalType": "string",
          "name": "",
          "type": "string"
        }
      ],
      "stateMutability": "view",
      "type": "function"
    },
    {
      "inputs": [
        {
          "internalType": "uint256",
          "name": "tokenId",
          "type": "uint256"
        }
      ],
      "name": "tokenURI",
      "outputs": [
        {
          "internalType": "string",
          "name": "",
          "type": "string"
        }
      ],
      "stateMutability": "view",
      "type": "function"
    },
    {
      "inputs": [
        {
          "internalType": "address",
          "name": "from",
          "type": "address"
        },
        {
          "internalType": "address",
          "name": "to",
          "type": "address"
        },
        {
          "internalType": "uint256",
          "name": "tokenId",
          "type": "uint256"
        }
      ],
      "name": "transferFrom",
      "outputs": [],
      "stateMutability": "nonpayable",
      "type": "function"
    },
    {
      "inputs": [
        {
          "internalType": "address",
          "name": "newImplementation",
          "type": "address"
        }
      ],
      "name": "upgradeTo",
      "outputs": [],
      "stateMutability": "nonpayable",
      "type": "function"
    },
    {
      "inputs": [
        {
          "internalType": "address",
          "name": "newImplementation",
          "type": "address"
        },
        {
          "internalType": "bytes",
          "name": "data",
          "type": "bytes"
        }
      ],
      "name": "upgradeToAndCall",
      "outputs": [],
      "stateMutability": "payable",
      "type": "function"
    }
  ],
  "numDeployments": 1,
  "solcInputHash": "68b4257dc710776efb8821e97c19242c",
  "bytecode": "0x60a06040523073ffffffffffffffffffffffffffffffffffffffff1660809073ffffffffffffffffffffffffffffffffffffffff168152503480156200004457600080fd5b50620000556200005b60201b60201c565b62000206565b600060019054906101000a900460ff1615620000ae576040517f08c379a0000000000000000000000000000000000000000000000000000000008152600401620000a590620001a9565b60405180910390fd5b60ff801660008054906101000a900460ff1660ff161015620001205760ff6000806101000a81548160ff021916908360ff1602179055507f7f26b83ff96e1f2b6a682f133852f6798a09c465da95921460cefb384740249860ff604051620001179190620001e9565b60405180910390a15b565b600082825260208201905092915050565b7f496e697469616c697a61626c653a20636f6e747261637420697320696e69746960008201527f616c697a696e6700000000000000000000000000000000000000000000000000602082015250565b60006200019160278362000122565b91506200019e8262000133565b604082019050919050565b60006020820190508181036000830152620001c48162000182565b9050919050565b600060ff82169050919050565b620001e381620001cb565b82525050565b6000602082019050620002006000830184620001d8565b92915050565b6080516153b06200023e60003960008181610be501528181610c7401528181610e7701528181610f060152610fb601526153b06000f3fe60806040526004361061020f5760003560e01c806370a0823111610118578063b88d4fde116100a0578063d547741f1161006f578063d547741f1461079e578063d682d84a146107c7578063e8a3d48514610804578063e985e9c51461082f578063f991cbb01461086c5761020f565b8063b88d4fde146106e2578063c87b56dd1461070b578063caa0f92a14610748578063d5391393146107735761020f565b8063938e3d7b116100e7578063938e3d7b1461061157806395d89b411461063a578063a144819414610665578063a217fddf1461068e578063a22cb465146106b95761020f565b806370a082311461055557806373e92784146105925780638129fc1c146105bd57806391d14854146105d45761020f565b80633659cfe61161019b5780634f1ef2861161016a5780634f1ef2861461047d57806352d1902d1461049957806355f804b3146104c45780636352211e146104ed5780636c0360eb1461052a5761020f565b80633659cfe6146103c557806342842e0e146103ee57806342966c68146104175780634378a6e3146104405761020f565b806323b872dd116101e257806323b872dd146102e2578063248a9ca31461030b578063282c51f3146103485780632f2ff15d1461037357806336568abe1461039c5761020f565b806301ffc9a71461021457806306fdde0314610251578063081812fc1461027c578063095ea7b3146102b9575b600080fd5b34801561022057600080fd5b5061023b6004803603810190610236919061396d565b610895565b60405161024891906139b5565b60405180910390f35b34801561025d57600080fd5b506102666108a7565b6040516102739190613a69565b60405180910390f35b34801561028857600080fd5b506102a3600480360381019061029e9190613ac1565b610939565b6040516102b09190613b2f565b60405180910390f35b3480156102c557600080fd5b506102e060048036038101906102db9190613b76565b61097f565b005b3480156102ee57600080fd5b5061030960048036038101906103049190613bb6565b610a97565b005b34801561031757600080fd5b50610332600480360381019061032d9190613c3f565b610af7565b60405161033f9190613c7b565b60405180910390f35b34801561035457600080fd5b5061035d610b17565b60405161036a9190613c7b565b60405180910390f35b34801561037f57600080fd5b5061039a60048036038101906103959190613c96565b610b3f565b005b3480156103a857600080fd5b506103c360048036038101906103be9190613c96565b610b60565b005b3480156103d157600080fd5b506103ec60048036038101906103e79190613cd6565b610be3565b005b3480156103fa57600080fd5b5061041560048036038101906104109190613bb6565b610d6c565b005b34801561042357600080fd5b5061043e60048036038101906104399190613ac1565b610d8c565b005b34801561044c57600080fd5b5061046760048036038101906104629190613ac1565b610e02565b6040516104749190613db8565b60405180910390f35b61049760048036038101906104929190613f08565b610e75565b005b3480156104a557600080fd5b506104ae610fb2565b6040516104bb9190613c7b565b60405180910390f35b3480156104d057600080fd5b506104eb60048036038101906104e69190613fc4565b61106b565b005b3480156104f957600080fd5b50610514600480360381019061050f9190613ac1565b6110c9565b6040516105219190613b2f565b60405180910390f35b34801561053657600080fd5b5061053f611150565b60405161054c9190613a69565b60405180910390f35b34801561056157600080fd5b5061057c60048036038101906105779190613cd6565b6111df565b6040516105899190614020565b60405180910390f35b34801561059e57600080fd5b506105a7611297565b6040516105b49190613a69565b60405180910390f35b3480156105c957600080fd5b506105d2611326565b005b3480156105e057600080fd5b506105fb60048036038101906105f69190613c96565b611549565b60405161060891906139b5565b60405180910390f35b34801561061d57600080fd5b5061063860048036038101906106339190613fc4565b6115b4565b005b34801561064657600080fd5b5061064f611612565b60405161065c9190613a69565b60405180910390f35b34801561067157600080fd5b5061068c60048036038101906106879190613b76565b6116a4565b005b34801561069a57600080fd5b506106a36117e1565b6040516106b09190613c7b565b60405180910390f35b3480156106c557600080fd5b506106e060048036038101906106db9190614067565b6117e8565b005b3480156106ee57600080fd5b50610709600480360381019061070491906140a7565b6117fe565b005b34801561071757600080fd5b50610732600480360381019061072d9190613ac1565b611860565b60405161073f9190613a69565b60405180910390f35b34801561075457600080fd5b5061075d6118c8565b60405161076a9190614020565b60405180910390f35b34801561077f57600080fd5b506107886118da565b6040516107959190613c7b565b60405180910390f35b3480156107aa57600080fd5b506107c560048036038101906107c09190613c96565b611902565b005b3480156107d357600080fd5b506107ee60048036038101906107e99190613ac1565b611923565b6040516107fb9190614020565b60405180910390f35b34801561081057600080fd5b50610819611944565b6040516108269190613a69565b60405180910390f35b34801561083b57600080fd5b506108566004803603810190610851919061412a565b6119d7565b60405161086391906139b5565b60405180910390f35b34801561087857600080fd5b50610893600480360381019061088e9190613ac1565b611a6b565b005b60006108a082611b10565b9050919050565b6060606580546108b690614199565b80601f01602080910402602001604051908101604052809291908181526020018280546108e290614199565b801561092f5780601f106109045761010080835404028352916020019161092f565b820191906000526020600020905b81548152906001019060200180831161091257829003601f168201915b5050505050905090565b600061094482611b8a565b6069600083815260200190815260200160002060009054906101000a900473ffffffffffffffffffffffffffffffffffffffff169050919050565b600061098a826110c9565b90508073ffffffffffffffffffffffffffffffffffffffff168373ffffffffffffffffffffffffffffffffffffffff1614156109fb576040517f08c379a00000000000000000000000000000000000000000000000000000000081526004016109f29061423d565b60405180910390fd5b8073ffffffffffffffffffffffffffffffffffffffff16610a1a611bd5565b73ffffffffffffffffffffffffffffffffffffffff161480610a495750610a4881610a43611bd5565b6119d7565b5b610a88576040517f08c379a0000000000000000000000000000000000000000000000000000000008152600401610a7f906142cf565b60405180910390fd5b610a928383611bdd565b505050565b610aa8610aa2611bd5565b82611c96565b610ae7576040517f08c379a0000000000000000000000000000000000000000000000000000000008152600401610ade90614361565b60405180910390fd5b610af2838383611d2b565b505050565b600060c96000838152602001908152602001600020600101549050919050565b604051602001610b26906143d8565b6040516020818303038152906040528051906020012081565b610b4882610af7565b610b5181612025565b610b5b8383612039565b505050565b610b68611bd5565b73ffffffffffffffffffffffffffffffffffffffff168173ffffffffffffffffffffffffffffffffffffffff1614610bd5576040517f08c379a0000000000000000000000000000000000000000000000000000000008152600401610bcc9061445f565b60405180910390fd5b610bdf828261211a565b5050565b7f000000000000000000000000000000000000000000000000000000000000000073ffffffffffffffffffffffffffffffffffffffff163073ffffffffffffffffffffffffffffffffffffffff161415610c72576040517f08c379a0000000000000000000000000000000000000000000000000000000008152600401610c69906144f1565b60405180910390fd5b7f000000000000000000000000000000000000000000000000000000000000000073ffffffffffffffffffffffffffffffffffffffff16610cb16121fc565b73ffffffffffffffffffffffffffffffffffffffff1614610d07576040517f08c379a0000000000000000000000000000000000000000000000000000000008152600401610cfe90614583565b60405180910390fd5b610d1081612253565b610d6981600067ffffffffffffffff811115610d2f57610d2e613ddd565b5b6040519080825280601f01601f191660200182016040528015610d615781602001600182028036833780820191505090505b506000612264565b50565b610d87838383604051806020016040528060008152506117fe565b505050565b6101626000828152602001908152602001600020600080820160006101000a81549060ff021916905560018201600090555050610dc8816123e1565b7fb90306ad06b2a6ff86ddc9327db583062895ef6540e62dc50add009db5b356eb81604051610df79190614020565b60405180910390a150565b610e0a6137ac565b61016260008381526020019081526020016000206040518060400160405290816000820160009054906101000a900460ff166003811115610e4e57610e4d613d03565b5b6003811115610e6057610e5f613d03565b5b81526020016001820154815250509050919050565b7f000000000000000000000000000000000000000000000000000000000000000073ffffffffffffffffffffffffffffffffffffffff163073ffffffffffffffffffffffffffffffffffffffff161415610f04576040517f08c379a0000000000000000000000000000000000000000000000000000000008152600401610efb906144f1565b60405180910390fd5b7f000000000000000000000000000000000000000000000000000000000000000073ffffffffffffffffffffffffffffffffffffffff16610f436121fc565b73ffffffffffffffffffffffffffffffffffffffff1614610f99576040517f08c379a0000000000000000000000000000000000000000000000000000000008152600401610f9090614583565b60405180910390fd5b610fa282612253565b610fae82826001612264565b5050565b60007f000000000000000000000000000000000000000000000000000000000000000073ffffffffffffffffffffffffffffffffffffffff163073ffffffffffffffffffffffffffffffffffffffff1614611042576040517f08c379a000000000000000000000000000000000000000000000000000000000815260040161103990614615565b60405180910390fd5b7f360894a13ba1a3210667c828492db98dca3e2076cc3735a920a3ca505d382bbc60001b905090565b6000801b61107881612025565b8282610160919061108a9291906137d8565b507f23c8c9488efebfd474e85a7956de6f39b17c7ab88502d42a623db2d8e382bbaa83836040516110bc929190614662565b60405180910390a1505050565b6000806110d58361243d565b9050600073ffffffffffffffffffffffffffffffffffffffff168173ffffffffffffffffffffffffffffffffffffffff161415611147576040517f08c379a000000000000000000000000000000000000000000000000000000000815260040161113e906146d2565b60405180910390fd5b80915050919050565b610160805461115e90614199565b80601f016020809104026020016040519081016040528092919081815260200182805461118a90614199565b80156111d75780601f106111ac576101008083540402835291602001916111d7565b820191906000526020600020905b8154815290600101906020018083116111ba57829003601f168201915b505050505081565b60008073ffffffffffffffffffffffffffffffffffffffff168273ffffffffffffffffffffffffffffffffffffffff161415611250576040517f08c379a000000000000000000000000000000000000000000000000000000000815260040161124790614764565b60405180910390fd5b606860008373ffffffffffffffffffffffffffffffffffffffff1673ffffffffffffffffffffffffffffffffffffffff168152602001908152602001600020549050919050565b61016180546112a590614199565b80601f01602080910402602001604051908101604052809291908181526020018280546112d190614199565b801561131e5780601f106112f35761010080835404028352916020019161131e565b820191906000526020600020905b81548152906001019060200180831161130157829003601f168201915b505050505081565b60008060019054906101000a900460ff161590508080156113575750600160008054906101000a900460ff1660ff16105b8061138457506113663061247a565b1580156113835750600160008054906101000a900460ff1660ff16145b5b6113c3576040517f08c379a00000000000000000000000000000000000000000000000000000000081526004016113ba906147f6565b60405180910390fd5b60016000806101000a81548160ff021916908360ff1602179055508015611400576001600060016101000a81548160ff0219169083151502179055505b6114746040518060400160405280600f81526020017f4b696e65746578205265776172647300000000000000000000000000000000008152506040518060400160405280600481526020017f4b5458520000000000000000000000000000000000000000000000000000000081525061249d565b61147c6124fa565b61148461254b565b6114916000801b33612039565b6114bf6040516020016114a390614862565b6040516020818303038152906040528051906020012033612039565b6114ed6040516020016114d1906143d8565b6040516020818303038152906040528051906020012033612039565b80156115465760008060016101000a81548160ff0219169083151502179055507f7f26b83ff96e1f2b6a682f133852f6798a09c465da95921460cefb3847402498600160405161153d91906148c9565b60405180910390a15b50565b600060c9600084815260200190815260200160002060000160008373ffffffffffffffffffffffffffffffffffffffff1673ffffffffffffffffffffffffffffffffffffffff16815260200190815260200160002060009054906101000a900460ff16905092915050565b6000801b6115c181612025565b828261016191906115d39291906137d8565b507f5ca9f750836b0b7efdace104f07b5c9f0df0650c0fd24f5163e99044ae36ea528383604051611605929190614662565b60405180910390a1505050565b60606066805461162190614199565b80601f016020809104026020016040519081016040528092919081815260200182805461164d90614199565b801561169a5780601f1061166f5761010080835404028352916020019161169a565b820191906000526020600020905b81548152906001019060200180831161167d57829003601f168201915b5050505050905090565b6040516020016116b390614862565b604051602081830303815290604052805190602001206116d281612025565b60006116df61015f61259c565b905060006116ec846125aa565b9050604051806040016040528082600381111561170c5761170b613d03565b5b815260200185815250610162600084815260200190815260200160002060008201518160000160006101000a81548160ff0219169083600381111561175457611753613d03565b5b02179055506020820151816001015590505061177161015f6125ed565b61177b8583612603565b7f91b5055a948b220cc7661279d3247d8cc0ef1ca630ae94343a583bcea7049ab78260405180604001604052808460038111156117bb576117ba613d03565b5b8152602001878152506040516117d29291906148e4565b60405180910390a15050505050565b6000801b81565b6117fa6117f3611bd5565b8383612621565b5050565b61180f611809611bd5565b83611c96565b61184e576040517f08c379a000000000000000000000000000000000000000000000000000000000815260040161184590614361565b60405180910390fd5b61185a8484848461278e565b50505050565b606061186b82611b8a565b60006118756127ea565b9050600081511161189557604051806020016040528060008152506118c0565b8061189f8461287d565b6040516020016118b092919061493e565b6040516020818303038152906040525b915050919050565b60006118d561015f61259c565b905090565b6040516020016118e990614862565b6040516020818303038152906040528051906020012081565b61190b82610af7565b61191481612025565b61191e838361211a565b505050565b60006101626000838152602001908152602001600020600101549050919050565b6060610161805461195490614199565b80601f016020809104026020016040519081016040528092919081815260200182805461198090614199565b80156119cd5780601f106119a2576101008083540402835291602001916119cd565b820191906000526020600020905b8154815290600101906020018083116119b057829003601f168201915b5050505050905090565b6000606a60008473ffffffffffffffffffffffffffffffffffffffff1673ffffffffffffffffffffffffffffffffffffffff16815260200190815260200160002060008373ffffffffffffffffffffffffffffffffffffffff1673ffffffffffffffffffffffffffffffffffffffff16815260200190815260200160002060009054906101000a900460ff16905092915050565b604051602001611a7a906143d8565b60405160208183030381529060405280519060200120611a9981612025565b6101626000838152602001908152602001600020600080820160006101000a81549060ff021916905560018201600090555050611ad582612955565b7fb90306ad06b2a6ff86ddc9327db583062895ef6540e62dc50add009db5b356eb82604051611b049190614020565b60405180910390a15050565b60007f7965db0b000000000000000000000000000000000000000000000000000000007bffffffffffffffffffffffffffffffffffffffffffffffffffffffff1916827bffffffffffffffffffffffffffffffffffffffffffffffffffffffff19161480611b835750611b8282612aa3565b5b9050919050565b611b9381612b85565b611bd2576040517f08c379a0000000000000000000000000000000000000000000000000000000008152600401611bc9906146d2565b60405180910390fd5b50565b600033905090565b816069600083815260200190815260200160002060006101000a81548173ffffffffffffffffffffffffffffffffffffffff021916908373ffffffffffffffffffffffffffffffffffffffff160217905550808273ffffffffffffffffffffffffffffffffffffffff16611c50836110c9565b73ffffffffffffffffffffffffffffffffffffffff167f8c5be1e5ebec7d5bd14f71427d1e84f3dd0314c0f7b2291e5b200ac8c7c3b92560405160405180910390a45050565b600080611ca2836110c9565b90508073ffffffffffffffffffffffffffffffffffffffff168473ffffffffffffffffffffffffffffffffffffffff161480611ce45750611ce381856119d7565b5b80611d2257508373ffffffffffffffffffffffffffffffffffffffff16611d0a84610939565b73ffffffffffffffffffffffffffffffffffffffff16145b91505092915050565b8273ffffffffffffffffffffffffffffffffffffffff16611d4b826110c9565b73ffffffffffffffffffffffffffffffffffffffff1614611da1576040517f08c379a0000000000000000000000000000000000000000000000000000000008152600401611d98906149d4565b60405180910390fd5b600073ffffffffffffffffffffffffffffffffffffffff168273ffffffffffffffffffffffffffffffffffffffff161415611e11576040517f08c379a0000000000000000000000000000000000000000000000000000000008152600401611e0890614a66565b60405180910390fd5b611e1e8383836001612bc6565b8273ffffffffffffffffffffffffffffffffffffffff16611e3e826110c9565b73ffffffffffffffffffffffffffffffffffffffff1614611e94576040517f08c379a0000000000000000000000000000000000000000000000000000000008152600401611e8b906149d4565b60405180910390fd5b6069600082815260200190815260200160002060006101000a81549073ffffffffffffffffffffffffffffffffffffffff02191690556001606860008573ffffffffffffffffffffffffffffffffffffffff1673ffffffffffffffffffffffffffffffffffffffff168152602001908152602001600020600082825403925050819055506001606860008473ffffffffffffffffffffffffffffffffffffffff1673ffffffffffffffffffffffffffffffffffffffff16815260200190815260200160002060008282540192505081905550816067600083815260200190815260200160002060006101000a81548173ffffffffffffffffffffffffffffffffffffffff021916908373ffffffffffffffffffffffffffffffffffffffff160217905550808273ffffffffffffffffffffffffffffffffffffffff168473ffffffffffffffffffffffffffffffffffffffff167fddf252ad1be2c89b69c2b068fc378daa952ba7f163c4a11628f55a4df523b3ef60405160405180910390a46120208383836001612bcc565b505050565b61203681612031611bd5565b612bd2565b50565b6120438282611549565b61211657600160c9600084815260200190815260200160002060000160008373ffffffffffffffffffffffffffffffffffffffff1673ffffffffffffffffffffffffffffffffffffffff16815260200190815260200160002060006101000a81548160ff0219169083151502179055506120bb611bd5565b73ffffffffffffffffffffffffffffffffffffffff168173ffffffffffffffffffffffffffffffffffffffff16837f2f8788117e7eff1d82e926ec794901d17c78024a50270940304540a733656f0d60405160405180910390a45b5050565b6121248282611549565b156121f857600060c9600084815260200190815260200160002060000160008373ffffffffffffffffffffffffffffffffffffffff1673ffffffffffffffffffffffffffffffffffffffff16815260200190815260200160002060006101000a81548160ff02191690831515021790555061219d611bd5565b73ffffffffffffffffffffffffffffffffffffffff168173ffffffffffffffffffffffffffffffffffffffff16837ff6391f5c32d9c69d2a47ea670b442974b53935d1edc7fd64eb21e047a839171b60405160405180910390a45b5050565b600061222a7f360894a13ba1a3210667c828492db98dca3e2076cc3735a920a3ca505d382bbc60001b612c57565b60000160009054906101000a900473ffffffffffffffffffffffffffffffffffffffff16905090565b6000801b61226081612025565b5050565b6122907f4910fdfa16fed3260ed0e7147f7cc6da11a60208b5b9406d12a635614ffd914360001b612c61565b60000160009054906101000a900460ff16156122b4576122af83612c6b565b6123dc565b8273ffffffffffffffffffffffffffffffffffffffff166352d1902d6040518163ffffffff1660e01b815260040160206040518083038186803b1580156122fa57600080fd5b505afa92505050801561232b57506040513d601f19601f820116820180604052508101906123289190614a9b565b60015b61236a576040517f08c379a000000000000000000000000000000000000000000000000000000000815260040161236190614b3a565b60405180910390fd5b7f360894a13ba1a3210667c828492db98dca3e2076cc3735a920a3ca505d382bbc60001b81146123cf576040517f08c379a00000000000000000000000000000000000000000000000000000000081526004016123c690614bcc565b60405180910390fd5b506123db838383612d24565b5b505050565b6123f26123ec611bd5565b82611c96565b612431576040517f08c379a000000000000000000000000000000000000000000000000000000000815260040161242890614361565b60405180910390fd5b61243a81612955565b50565b60006067600083815260200190815260200160002060009054906101000a900473ffffffffffffffffffffffffffffffffffffffff169050919050565b6000808273ffffffffffffffffffffffffffffffffffffffff163b119050919050565b600060019054906101000a900460ff166124ec576040517f08c379a00000000000000000000000000000000000000000000000000000000081526004016124e390614c5e565b60405180910390fd5b6124f68282612d50565b5050565b600060019054906101000a900460ff16612549576040517f08c379a000000000000000000000000000000000000000000000000000000000815260040161254090614c5e565b60405180910390fd5b565b600060019054906101000a900460ff1661259a576040517f08c379a000000000000000000000000000000000000000000000000000000000815260040161259190614c5e565b60405180910390fd5b565b600081600001549050919050565b6000600a8210156125be57600090506125e8565b60648210156125d057600190506125e8565b6103e88210156125e357600290506125e8565b600390505b919050565b6001816000016000828254019250508190555050565b61261d828260405180602001604052806000815250612dd1565b5050565b8173ffffffffffffffffffffffffffffffffffffffff168373ffffffffffffffffffffffffffffffffffffffff161415612690576040517f08c379a000000000000000000000000000000000000000000000000000000000815260040161268790614cca565b60405180910390fd5b80606a60008573ffffffffffffffffffffffffffffffffffffffff1673ffffffffffffffffffffffffffffffffffffffff16815260200190815260200160002060008473ffffffffffffffffffffffffffffffffffffffff1673ffffffffffffffffffffffffffffffffffffffff16815260200190815260200160002060006101000a81548160ff0219169083151502179055508173ffffffffffffffffffffffffffffffffffffffff168373ffffffffffffffffffffffffffffffffffffffff167f17307eab39ab6107e8899845ad3d59bd9653f200f220920489ca2b5937696c318360405161278191906139b5565b60405180910390a3505050565b612799848484611d2b565b6127a584848484612e2c565b6127e4576040517f08c379a00000000000000000000000000000000000000000000000000000000081526004016127db90614d5c565b60405180910390fd5b50505050565b606061016080546127fa90614199565b80601f016020809104026020016040519081016040528092919081815260200182805461282690614199565b80156128735780601f1061284857610100808354040283529160200191612873565b820191906000526020600020905b81548152906001019060200180831161285657829003601f168201915b5050505050905090565b60606000600161288c84612fc3565b01905060008167ffffffffffffffff8111156128ab576128aa613ddd565b5b6040519080825280601f01601f1916602001820160405280156128dd5781602001600182028036833780820191505090505b509050600082602001820190505b60011561294a578080600190039150507f3031323334353637383961626364656600000000000000000000000000000000600a86061a8153600a858161293457612933614d7c565b5b04945060008514156129455761294a565b6128eb565b819350505050919050565b6000612960826110c9565b9050612970816000846001612bc6565b612979826110c9565b90506069600083815260200190815260200160002060006101000a81549073ffffffffffffffffffffffffffffffffffffffff02191690556001606860008373ffffffffffffffffffffffffffffffffffffffff1673ffffffffffffffffffffffffffffffffffffffff168152602001908152602001600020600082825403925050819055506067600083815260200190815260200160002060006101000a81549073ffffffffffffffffffffffffffffffffffffffff021916905581600073ffffffffffffffffffffffffffffffffffffffff168273ffffffffffffffffffffffffffffffffffffffff167fddf252ad1be2c89b69c2b068fc378daa952ba7f163c4a11628f55a4df523b3ef60405160405180910390a4612a9f816000846001612bcc565b5050565b60007f80ac58cd000000000000000000000000000000000000000000000000000000007bffffffffffffffffffffffffffffffffffffffffffffffffffffffff1916827bffffffffffffffffffffffffffffffffffffffffffffffffffffffff19161480612b6e57507f5b5e139f000000000000000000000000000000000000000000000000000000007bffffffffffffffffffffffffffffffffffffffffffffffffffffffff1916827bffffffffffffffffffffffffffffffffffffffffffffffffffffffff1916145b80612b7e5750612b7d82613116565b5b9050919050565b60008073ffffffffffffffffffffffffffffffffffffffff16612ba78361243d565b73ffffffffffffffffffffffffffffffffffffffff1614159050919050565b50505050565b50505050565b612bdc8282611549565b612c5357612be981613180565b612bf78360001c60206131ad565b604051602001612c08929190614e43565b6040516020818303038152906040526040517f08c379a0000000000000000000000000000000000000000000000000000000008152600401612c4a9190613a69565b60405180910390fd5b5050565b6000819050919050565b6000819050919050565b612c748161247a565b612cb3576040517f08c379a0000000000000000000000000000000000000000000000000000000008152600401612caa90614eef565b60405180910390fd5b80612ce07f360894a13ba1a3210667c828492db98dca3e2076cc3735a920a3ca505d382bbc60001b612c57565b60000160006101000a81548173ffffffffffffffffffffffffffffffffffffffff021916908373ffffffffffffffffffffffffffffffffffffffff16021790555050565b612d2d836133e9565b600082511180612d3a5750805b15612d4b57612d498383613438565b505b505050565b600060019054906101000a900460ff16612d9f576040517f08c379a0000000000000000000000000000000000000000000000000000000008152600401612d9690614c5e565b60405180910390fd5b8160659080519060200190612db592919061385e565b508060669080519060200190612dcc92919061385e565b505050565b612ddb838361351c565b612de86000848484612e2c565b612e27576040517f08c379a0000000000000000000000000000000000000000000000000000000008152600401612e1e90614d5c565b60405180910390fd5b505050565b6000612e4d8473ffffffffffffffffffffffffffffffffffffffff1661247a565b15612fb6578373ffffffffffffffffffffffffffffffffffffffff1663150b7a02612e76611bd5565b8786866040518563ffffffff1660e01b8152600401612e989493929190614f64565b602060405180830381600087803b158015612eb257600080fd5b505af1925050508015612ee357506040513d601f19601f82011682018060405250810190612ee09190614fc5565b60015b612f66573d8060008114612f13576040519150601f19603f3d011682016040523d82523d6000602084013e612f18565b606091505b50600081511415612f5e576040517f08c379a0000000000000000000000000000000000000000000000000000000008152600401612f5590614d5c565b60405180910390fd5b805181602001fd5b63150b7a0260e01b7bffffffffffffffffffffffffffffffffffffffffffffffffffffffff1916817bffffffffffffffffffffffffffffffffffffffffffffffffffffffff191614915050612fbb565b600190505b949350505050565b600080600090507a184f03e93ff9f4daa797ed6e38ed64bf6a1f0100000000000000008310613021577a184f03e93ff9f4daa797ed6e38ed64bf6a1f010000000000000000838161301757613016614d7c565b5b0492506040810190505b6d04ee2d6d415b85acef8100000000831061305e576d04ee2d6d415b85acef8100000000838161305457613053614d7c565b5b0492506020810190505b662386f26fc10000831061308d57662386f26fc10000838161308357613082614d7c565b5b0492506010810190505b6305f5e10083106130b6576305f5e10083816130ac576130ab614d7c565b5b0492506008810190505b61271083106130db5761271083816130d1576130d0614d7c565b5b0492506004810190505b606483106130fe57606483816130f4576130f3614d7c565b5b0492506002810190505b600a831061310d576001810190505b80915050919050565b60007f01ffc9a7000000000000000000000000000000000000000000000000000000007bffffffffffffffffffffffffffffffffffffffffffffffffffffffff1916827bffffffffffffffffffffffffffffffffffffffffffffffffffffffff1916149050919050565b60606131a68273ffffffffffffffffffffffffffffffffffffffff16601460ff166131ad565b9050919050565b6060600060028360026131c09190615021565b6131ca919061507b565b67ffffffffffffffff8111156131e3576131e2613ddd565b5b6040519080825280601f01601f1916602001820160405280156132155781602001600182028036833780820191505090505b5090507f30000000000000000000000000000000000000000000000000000000000000008160008151811061324d5761324c6150d1565b5b60200101907effffffffffffffffffffffffffffffffffffffffffffffffffffffffffffff1916908160001a9053507f7800000000000000000000000000000000000000000000000000000000000000816001815181106132b1576132b06150d1565b5b60200101907effffffffffffffffffffffffffffffffffffffffffffffffffffffffffffff1916908160001a905350600060018460026132f19190615021565b6132fb919061507b565b90505b600181111561339b577f3031323334353637383961626364656600000000000000000000000000000000600f86166010811061333d5761333c6150d1565b5b1a60f81b828281518110613354576133536150d1565b5b60200101907effffffffffffffffffffffffffffffffffffffffffffffffffffffffffffff1916908160001a905350600485901c94508061339490615100565b90506132fe565b50600084146133df576040517f08c379a00000000000000000000000000000000000000000000000000000000081526004016133d690615176565b60405180910390fd5b8091505092915050565b6133f281612c6b565b8073ffffffffffffffffffffffffffffffffffffffff167fbc7cd75a20ee27fd9adebab32041f755214dbc6bffa90cc0225b39da2e5c2d3b60405160405180910390a250565b60606134438361247a565b613482576040517f08c379a000000000000000000000000000000000000000000000000000000000815260040161347990615208565b60405180910390fd5b6000808473ffffffffffffffffffffffffffffffffffffffff16846040516134aa9190615264565b600060405180830381855af49150503d80600081146134e5576040519150601f19603f3d011682016040523d82523d6000602084013e6134ea565b606091505b509150915061351282826040518060600160405280602781526020016153546027913961373a565b9250505092915050565b600073ffffffffffffffffffffffffffffffffffffffff168273ffffffffffffffffffffffffffffffffffffffff16141561358c576040517f08c379a0000000000000000000000000000000000000000000000000000000008152600401613583906152c7565b60405180910390fd5b61359581612b85565b156135d5576040517f08c379a00000000000000000000000000000000000000000000000000000000081526004016135cc90615333565b60405180910390fd5b6135e3600083836001612bc6565b6135ec81612b85565b1561362c576040517f08c379a000000000000000000000000000000000000000000000000000000000815260040161362390615333565b60405180910390fd5b6001606860008473ffffffffffffffffffffffffffffffffffffffff1673ffffffffffffffffffffffffffffffffffffffff16815260200190815260200160002060008282540192505081905550816067600083815260200190815260200160002060006101000a81548173ffffffffffffffffffffffffffffffffffffffff021916908373ffffffffffffffffffffffffffffffffffffffff160217905550808273ffffffffffffffffffffffffffffffffffffffff16600073ffffffffffffffffffffffffffffffffffffffff167fddf252ad1be2c89b69c2b068fc378daa952ba7f163c4a11628f55a4df523b3ef60405160405180910390a4613736600083836001612bcc565b5050565b6060831561374a57829050613755565b613754838361375c565b5b9392505050565b60008251111561376f5781518083602001fd5b806040517f08c379a00000000000000000000000000000000000000000000000000000000081526004016137a39190613a69565b60405180910390fd5b6040518060400160405280600060038111156137cb576137ca613d03565b5b8152602001600081525090565b8280546137e490614199565b90600052602060002090601f016020900481019282613806576000855561384d565b82601f1061381f57803560ff191683800117855561384d565b8280016001018555821561384d579182015b8281111561384c578235825591602001919060010190613831565b5b50905061385a91906138e4565b5090565b82805461386a90614199565b90600052602060002090601f01602090048101928261388c57600085556138d3565b82601f106138a557805160ff19168380011785556138d3565b828001600101855582156138d3579182015b828111156138d25782518255916020019190600101906138b7565b5b5090506138e091906138e4565b5090565b5b808211156138fd5760008160009055506001016138e5565b5090565b6000604051905090565b600080fd5b600080fd5b60007fffffffff0000000000000000000000000000000000000000000000000000000082169050919050565b61394a81613915565b811461395557600080fd5b50565b60008135905061396781613941565b92915050565b6000602082840312156139835761398261390b565b5b600061399184828501613958565b91505092915050565b60008115159050919050565b6139af8161399a565b82525050565b60006020820190506139ca60008301846139a6565b92915050565b600081519050919050565b600082825260208201905092915050565b60005b83811015613a0a5780820151818401526020810190506139ef565b83811115613a19576000848401525b50505050565b6000601f19601f8301169050919050565b6000613a3b826139d0565b613a4581856139db565b9350613a558185602086016139ec565b613a5e81613a1f565b840191505092915050565b60006020820190508181036000830152613a838184613a30565b905092915050565b6000819050919050565b613a9e81613a8b565b8114613aa957600080fd5b50565b600081359050613abb81613a95565b92915050565b600060208284031215613ad757613ad661390b565b5b6000613ae584828501613aac565b91505092915050565b600073ffffffffffffffffffffffffffffffffffffffff82169050919050565b6000613b1982613aee565b9050919050565b613b2981613b0e565b82525050565b6000602082019050613b446000830184613b20565b92915050565b613b5381613b0e565b8114613b5e57600080fd5b50565b600081359050613b7081613b4a565b92915050565b60008060408385031215613b8d57613b8c61390b565b5b6000613b9b85828601613b61565b9250506020613bac85828601613aac565b9150509250929050565b600080600060608486031215613bcf57613bce61390b565b5b6000613bdd86828701613b61565b9350506020613bee86828701613b61565b9250506040613bff86828701613aac565b9150509250925092565b6000819050919050565b613c1c81613c09565b8114613c2757600080fd5b50565b600081359050613c3981613c13565b92915050565b600060208284031215613c5557613c5461390b565b5b6000613c6384828501613c2a565b91505092915050565b613c7581613c09565b82525050565b6000602082019050613c906000830184613c6c565b92915050565b60008060408385031215613cad57613cac61390b565b5b6000613cbb85828601613c2a565b9250506020613ccc85828601613b61565b9150509250929050565b600060208284031215613cec57613ceb61390b565b5b6000613cfa84828501613b61565b91505092915050565b7f4e487b7100000000000000000000000000000000000000000000000000000000600052602160045260246000fd5b60048110613d4357613d42613d03565b5b50565b6000819050613d5482613d32565b919050565b6000613d6482613d46565b9050919050565b613d7481613d59565b82525050565b613d8381613a8b565b82525050565b604082016000820151613d9f6000850182613d6b565b506020820151613db26020850182613d7a565b50505050565b6000604082019050613dcd6000830184613d89565b92915050565b600080fd5b600080fd5b7f4e487b7100000000000000000000000000000000000000000000000000000000600052604160045260246000fd5b613e1582613a1f565b810181811067ffffffffffffffff82111715613e3457613e33613ddd565b5b80604052505050565b6000613e47613901565b9050613e538282613e0c565b919050565b600067ffffffffffffffff821115613e7357613e72613ddd565b5b613e7c82613a1f565b9050602081019050919050565b82818337600083830152505050565b6000613eab613ea684613e58565b613e3d565b905082815260208101848484011115613ec757613ec6613dd8565b5b613ed2848285613e89565b509392505050565b600082601f830112613eef57613eee613dd3565b5b8135613eff848260208601613e98565b91505092915050565b60008060408385031215613f1f57613f1e61390b565b5b6000613f2d85828601613b61565b925050602083013567ffffffffffffffff811115613f4e57613f4d613910565b5b613f5a85828601613eda565b9150509250929050565b600080fd5b600080fd5b60008083601f840112613f8457613f83613dd3565b5b8235905067ffffffffffffffff811115613fa157613fa0613f64565b5b602083019150836001820283011115613fbd57613fbc613f69565b5b9250929050565b60008060208385031215613fdb57613fda61390b565b5b600083013567ffffffffffffffff811115613ff957613ff8613910565b5b61400585828601613f6e565b92509250509250929050565b61401a81613a8b565b82525050565b60006020820190506140356000830184614011565b92915050565b6140448161399a565b811461404f57600080fd5b50565b6000813590506140618161403b565b92915050565b6000806040838503121561407e5761407d61390b565b5b600061408c85828601613b61565b925050602061409d85828601614052565b9150509250929050565b600080600080608085870312156140c1576140c061390b565b5b60006140cf87828801613b61565b94505060206140e087828801613b61565b93505060406140f187828801613aac565b925050606085013567ffffffffffffffff81111561411257614111613910565b5b61411e87828801613eda565b91505092959194509250565b600080604083850312156141415761414061390b565b5b600061414f85828601613b61565b925050602061416085828601613b61565b9150509250929050565b7f4e487b7100000000000000000000000000000000000000000000000000000000600052602260045260246000fd5b600060028204905060018216806141b157607f821691505b602082108114156141c5576141c461416a565b5b50919050565b7f4552433732313a20617070726f76616c20746f2063757272656e74206f776e6560008201527f7200000000000000000000000000000000000000000000000000000000000000602082015250565b60006142276021836139db565b9150614232826141cb565b604082019050919050565b600060208201905081810360008301526142568161421a565b9050919050565b7f4552433732313a20617070726f76652063616c6c6572206973206e6f7420746f60008201527f6b656e206f776e6572206f7220617070726f76656420666f7220616c6c000000602082015250565b60006142b9603d836139db565b91506142c48261425d565b604082019050919050565b600060208201905081810360008301526142e8816142ac565b9050919050565b7f4552433732313a2063616c6c6572206973206e6f7420746f6b656e206f776e6560008201527f72206f7220617070726f76656400000000000000000000000000000000000000602082015250565b600061434b602d836139db565b9150614356826142ef565b604082019050919050565b6000602082019050818103600083015261437a8161433e565b9050919050565b600081905092915050565b7f4255524e45525f524f4c45000000000000000000000000000000000000000000600082015250565b60006143c2600b83614381565b91506143cd8261438c565b600b82019050919050565b60006143e3826143b5565b9150819050919050565b7f416363657373436f6e74726f6c3a2063616e206f6e6c792072656e6f756e636560008201527f20726f6c657320666f722073656c660000000000000000000000000000000000602082015250565b6000614449602f836139db565b9150614454826143ed565b604082019050919050565b600060208201905081810360008301526144788161443c565b9050919050565b7f46756e6374696f6e206d7573742062652063616c6c6564207468726f7567682060008201527f64656c656761746563616c6c0000000000000000000000000000000000000000602082015250565b60006144db602c836139db565b91506144e68261447f565b604082019050919050565b6000602082019050818103600083015261450a816144ce565b9050919050565b7f46756e6374696f6e206d7573742062652063616c6c6564207468726f7567682060008201527f6163746976652070726f78790000000000000000000000000000000000000000602082015250565b600061456d602c836139db565b915061457882614511565b604082019050919050565b6000602082019050818103600083015261459c81614560565b9050919050565b7f555550535570677261646561626c653a206d757374206e6f742062652063616c60008201527f6c6564207468726f7567682064656c656761746563616c6c0000000000000000602082015250565b60006145ff6038836139db565b915061460a826145a3565b604082019050919050565b6000602082019050818103600083015261462e816145f2565b9050919050565b600061464183856139db565b935061464e838584613e89565b61465783613a1f565b840190509392505050565b6000602082019050818103600083015261467d818486614635565b90509392505050565b7f4552433732313a20696e76616c696420746f6b656e2049440000000000000000600082015250565b60006146bc6018836139db565b91506146c782614686565b602082019050919050565b600060208201905081810360008301526146eb816146af565b9050919050565b7f4552433732313a2061646472657373207a65726f206973206e6f74206120766160008201527f6c6964206f776e65720000000000000000000000000000000000000000000000602082015250565b600061474e6029836139db565b9150614759826146f2565b604082019050919050565b6000602082019050818103600083015261477d81614741565b9050919050565b7f496e697469616c697a61626c653a20636f6e747261637420697320616c72656160008201527f647920696e697469616c697a6564000000000000000000000000000000000000602082015250565b60006147e0602e836139db565b91506147eb82614784565b604082019050919050565b6000602082019050818103600083015261480f816147d3565b9050919050565b7f4d494e5445525f524f4c45000000000000000000000000000000000000000000600082015250565b600061484c600b83614381565b915061485782614816565b600b82019050919050565b600061486d8261483f565b9150819050919050565b6000819050919050565b600060ff82169050919050565b6000819050919050565b60006148b36148ae6148a984614877565b61488e565b614881565b9050919050565b6148c381614898565b82525050565b60006020820190506148de60008301846148ba565b92915050565b60006060820190506148f96000830185614011565b6149066020830184613d89565b9392505050565b6000614918826139d0565b6149228185614381565b93506149328185602086016139ec565b80840191505092915050565b600061494a828561490d565b9150614956828461490d565b91508190509392505050565b7f4552433732313a207472616e736665722066726f6d20696e636f72726563742060008201527f6f776e6572000000000000000000000000000000000000000000000000000000602082015250565b60006149be6025836139db565b91506149c982614962565b604082019050919050565b600060208201905081810360008301526149ed816149b1565b9050919050565b7f4552433732313a207472616e7366657220746f20746865207a65726f2061646460008201527f7265737300000000000000000000000000000000000000000000000000000000602082015250565b6000614a506024836139db565b9150614a5b826149f4565b604082019050919050565b60006020820190508181036000830152614a7f81614a43565b9050919050565b600081519050614a9581613c13565b92915050565b600060208284031215614ab157614ab061390b565b5b6000614abf84828501614a86565b91505092915050565b7f45524331393637557067726164653a206e657720696d706c656d656e7461746960008201527f6f6e206973206e6f742055555053000000000000000000000000000000000000602082015250565b6000614b24602e836139db565b9150614b2f82614ac8565b604082019050919050565b60006020820190508181036000830152614b5381614b17565b9050919050565b7f45524331393637557067726164653a20756e737570706f727465642070726f7860008201527f6961626c65555549440000000000000000000000000000000000000000000000602082015250565b6000614bb66029836139db565b9150614bc182614b5a565b604082019050919050565b60006020820190508181036000830152614be581614ba9565b9050919050565b7f496e697469616c697a61626c653a20636f6e7472616374206973206e6f74206960008201527f6e697469616c697a696e67000000000000000000000000000000000000000000602082015250565b6000614c48602b836139db565b9150614c5382614bec565b604082019050919050565b60006020820190508181036000830152614c7781614c3b565b9050919050565b7f4552433732313a20617070726f766520746f2063616c6c657200000000000000600082015250565b6000614cb46019836139db565b9150614cbf82614c7e565b602082019050919050565b60006020820190508181036000830152614ce381614ca7565b9050919050565b7f4552433732313a207472616e7366657220746f206e6f6e20455243373231526560008201527f63656976657220696d706c656d656e7465720000000000000000000000000000602082015250565b6000614d466032836139db565b9150614d5182614cea565b604082019050919050565b60006020820190508181036000830152614d7581614d39565b9050919050565b7f4e487b7100000000000000000000000000000000000000000000000000000000600052601260045260246000fd5b7f416363657373436f6e74726f6c3a206163636f756e7420000000000000000000600082015250565b6000614de1601783614381565b9150614dec82614dab565b601782019050919050565b7f206973206d697373696e6720726f6c6520000000000000000000000000000000600082015250565b6000614e2d601183614381565b9150614e3882614df7565b601182019050919050565b6000614e4e82614dd4565b9150614e5a828561490d565b9150614e6582614e20565b9150614e71828461490d565b91508190509392505050565b7f455243313936373a206e657720696d706c656d656e746174696f6e206973206e60008201527f6f74206120636f6e747261637400000000000000000000000000000000000000602082015250565b6000614ed9602d836139db565b9150614ee482614e7d565b604082019050919050565b60006020820190508181036000830152614f0881614ecc565b9050919050565b600081519050919050565b600082825260208201905092915050565b6000614f3682614f0f565b614f408185614f1a565b9350614f508185602086016139ec565b614f5981613a1f565b840191505092915050565b6000608082019050614f796000830187613b20565b614f866020830186613b20565b614f936040830185614011565b8181036060830152614fa58184614f2b565b905095945050505050565b600081519050614fbf81613941565b92915050565b600060208284031215614fdb57614fda61390b565b5b6000614fe984828501614fb0565b91505092915050565b7f4e487b7100000000000000000000000000000000000000000000000000000000600052601160045260246000fd5b600061502c82613a8b565b915061503783613a8b565b9250817fffffffffffffffffffffffffffffffffffffffffffffffffffffffffffffffff04831182151516156150705761506f614ff2565b5b828202905092915050565b600061508682613a8b565b915061509183613a8b565b9250827fffffffffffffffffffffffffffffffffffffffffffffffffffffffffffffffff038211156150c6576150c5614ff2565b5b828201905092915050565b7f4e487b7100000000000000000000000000000000000000000000000000000000600052603260045260246000fd5b600061510b82613a8b565b9150600082141561511f5761511e614ff2565b5b600182039050919050565b7f537472696e67733a20686578206c656e67746820696e73756666696369656e74600082015250565b60006151606020836139db565b915061516b8261512a565b602082019050919050565b6000602082019050818103600083015261518f81615153565b9050919050565b7f416464726573733a2064656c65676174652063616c6c20746f206e6f6e2d636f60008201527f6e74726163740000000000000000000000000000000000000000000000000000602082015250565b60006151f26026836139db565b91506151fd82615196565b604082019050919050565b60006020820190508181036000830152615221816151e5565b9050919050565b600081905092915050565b600061523e82614f0f565b6152488185615228565b93506152588185602086016139ec565b80840191505092915050565b60006152708284615233565b915081905092915050565b7f4552433732313a206d696e7420746f20746865207a65726f2061646472657373600082015250565b60006152b16020836139db565b91506152bc8261527b565b602082019050919050565b600060208201905081810360008301526152e0816152a4565b9050919050565b7f4552433732313a20746f6b656e20616c7265616479206d696e74656400000000600082015250565b600061531d601c836139db565b9150615328826152e7565b602082019050919050565b6000602082019050818103600083015261534c81615310565b905091905056fe416464726573733a206c6f772d6c6576656c2064656c65676174652063616c6c206661696c6564a2646970667358221220832c2ba4d533b77a9054aa2a190608ab35d265dcc962fd830464a084c0e8007564736f6c63430008090033",
  "devdoc": {
    "kind": "dev",
    "methods": {
      "approve(address,uint256)": {
        "details": "See {IERC721-approve}."
      },
      "balanceOf(address)": {
        "details": "See {IERC721-balanceOf}."
      },
      "burnPriveleged(uint256)": {
        "params": {
          "tokenId": "Token to burn."
        }
      },
      "constructor": {
        "custom:oz-upgrades-unsafe-allow": "constructor"
      },
      "getApproved(uint256)": {
        "details": "See {IERC721-getApproved}."
      },
      "getDust(uint256)": {
        "params": {
          "tokenId": "Token to check."
        }
      },
      "getRoleAdmin(bytes32)": {
        "details": "Returns the admin role that controls `role`. See {grantRole} and {revokeRole}. To change a role's admin, use {_setRoleAdmin}."
      },
      "grantRole(bytes32,address)": {
        "details": "Grants `role` to `account`. If `account` had not been already granted `role`, emits a {RoleGranted} event. Requirements: - the caller must have ``role``'s admin role. May emit a {RoleGranted} event."
      },
      "hasRole(bytes32,address)": {
        "details": "Returns `true` if `account` has been granted `role`."
      },
      "isApprovedForAll(address,address)": {
        "details": "See {IERC721-isApprovedForAll}."
      },
      "name()": {
        "details": "See {IERC721Metadata-name}."
      },
      "ownerOf(uint256)": {
        "details": "See {IERC721-ownerOf}."
      },
      "proxiableUUID()": {
        "details": "Implementation of the ERC1822 {proxiableUUID} function. This returns the storage slot used by the implementation. It is used to validate the implementation's compatibility when performing an upgrade. IMPORTANT: A proxy pointing at a proxiable contract should not be considered proxiable itself, because this risks bricking a proxy that upgrades to it, by delegating to itself until out of gas. Thus it is critical that this function revert if invoked through a proxy. This is guaranteed by the `notDelegated` modifier."
      },
      "renounceRole(bytes32,address)": {
        "details": "Revokes `role` from the calling account. Roles are often managed via {grantRole} and {revokeRole}: this function's purpose is to provide a mechanism for accounts to lose their privileges if they are compromised (such as when a trusted device is misplaced). If the calling account had been revoked `role`, emits a {RoleRevoked} event. Requirements: - the caller must be `account`. May emit a {RoleRevoked} event."
      },
      "revokeRole(bytes32,address)": {
        "details": "Revokes `role` from `account`. If `account` had been granted `role`, emits a {RoleRevoked} event. Requirements: - the caller must have ``role``'s admin role. May emit a {RoleRevoked} event."
      },
      "safeMint(address,uint256)": {
        "params": {
          "dust": "How much rewards are spent for the mint.",
          "to": "The address that will receive the NFT."
        }
      },
      "safeTransferFrom(address,address,uint256)": {
        "details": "See {IERC721-safeTransferFrom}."
      },
      "safeTransferFrom(address,address,uint256,bytes)": {
        "details": "See {IERC721-safeTransferFrom}."
      },
      "setApprovalForAll(address,bool)": {
        "details": "See {IERC721-setApprovalForAll}."
      },
      "setBaseURI(string)": {
        "params": {
          "uri": "Metadata base URI."
        }
      },
      "symbol()": {
        "details": "See {IERC721Metadata-symbol}."
      },
      "tokenURI(uint256)": {
        "details": "See {IERC721Metadata-tokenURI}."
      },
      "transferFrom(address,address,uint256)": {
        "details": "See {IERC721-transferFrom}."
      },
      "upgradeTo(address)": {
        "details": "Upgrade the implementation of the proxy to `newImplementation`. Calls {_authorizeUpgrade}. Emits an {Upgraded} event."
      },
      "upgradeToAndCall(address,bytes)": {
        "details": "Upgrade the implementation of the proxy to `newImplementation`, and subsequently execute the function call encoded in `data`. Calls {_authorizeUpgrade}. Emits an {Upgraded} event."
      }
    },
    "version": 1
  },
  "userdoc": {
    "kind": "user",
    "methods": {
      "burnPriveleged(uint256)": {
        "notice": "Access-control gated burn."
      },
      "getDust(uint256)": {
        "notice": "Returns a token's Power."
      },
      "getNextTokenId()": {
        "notice": "Returns the ID that will be assigned to the next minted NFT."
      },
      "initialize()": {
        "notice": "Initializer."
      },
      "safeMint(address,uint256)": {
        "notice": "Mints an NFT."
      },
      "setBaseURI(string)": {
        "notice": "Sets the metadata URI."
      }
    },
    "version": 1
  },
  "storageLayout": {
    "storage": [
      {
        "astId": 936,
        "contract": "contracts/KinetexRewards.sol:KinetexRewards",
        "label": "_initialized",
        "offset": 0,
        "slot": "0",
        "type": "t_uint8"
      },
      {
        "astId": 939,
        "contract": "contracts/KinetexRewards.sol:KinetexRewards",
        "label": "_initializing",
        "offset": 1,
        "slot": "0",
        "type": "t_bool"
      },
      {
        "astId": 2922,
        "contract": "contracts/KinetexRewards.sol:KinetexRewards",
        "label": "__gap",
        "offset": 0,
        "slot": "1",
        "type": "t_array(t_uint256)50_storage"
      },
      {
        "astId": 3275,
        "contract": "contracts/KinetexRewards.sol:KinetexRewards",
        "label": "__gap",
        "offset": 0,
        "slot": "51",
        "type": "t_array(t_uint256)50_storage"
      },
      {
        "astId": 1463,
        "contract": "contracts/KinetexRewards.sol:KinetexRewards",
        "label": "_name",
        "offset": 0,
        "slot": "101",
        "type": "t_string_storage"
      },
      {
        "astId": 1465,
        "contract": "contracts/KinetexRewards.sol:KinetexRewards",
        "label": "_symbol",
        "offset": 0,
        "slot": "102",
        "type": "t_string_storage"
      },
      {
        "astId": 1469,
        "contract": "contracts/KinetexRewards.sol:KinetexRewards",
        "label": "_owners",
        "offset": 0,
        "slot": "103",
        "type": "t_mapping(t_uint256,t_address)"
      },
      {
        "astId": 1473,
        "contract": "contracts/KinetexRewards.sol:KinetexRewards",
        "label": "_balances",
        "offset": 0,
        "slot": "104",
        "type": "t_mapping(t_address,t_uint256)"
      },
      {
        "astId": 1477,
        "contract": "contracts/KinetexRewards.sol:KinetexRewards",
        "label": "_tokenApprovals",
        "offset": 0,
        "slot": "105",
        "type": "t_mapping(t_uint256,t_address)"
      },
      {
        "astId": 1483,
        "contract": "contracts/KinetexRewards.sol:KinetexRewards",
        "label": "_operatorApprovals",
        "offset": 0,
        "slot": "106",
        "type": "t_mapping(t_address,t_mapping(t_address,t_bool))"
      },
      {
        "astId": 2385,
        "contract": "contracts/KinetexRewards.sol:KinetexRewards",
        "label": "__gap",
        "offset": 0,
        "slot": "107",
        "type": "t_array(t_uint256)44_storage"
      },
      {
        "astId": 2569,
        "contract": "contracts/KinetexRewards.sol:KinetexRewards",
        "label": "__gap",
        "offset": 0,
        "slot": "151",
        "type": "t_array(t_uint256)50_storage"
      },
      {
        "astId": 39,
        "contract": "contracts/KinetexRewards.sol:KinetexRewards",
        "label": "_roles",
        "offset": 0,
        "slot": "201",
        "type": "t_mapping(t_bytes32,t_struct(RoleData)34_storage)"
      },
      {
        "astId": 334,
        "contract": "contracts/KinetexRewards.sol:KinetexRewards",
        "label": "__gap",
        "offset": 0,
        "slot": "202",
        "type": "t_array(t_uint256)49_storage"
      },
      {
        "astId": 918,
        "contract": "contracts/KinetexRewards.sol:KinetexRewards",
        "label": "__gap",
        "offset": 0,
        "slot": "251",
        "type": "t_array(t_uint256)50_storage"
      },
      {
        "astId": 1233,
        "contract": "contracts/KinetexRewards.sol:KinetexRewards",
        "label": "__gap",
        "offset": 0,
        "slot": "301",
        "type": "t_array(t_uint256)50_storage"
      },
      {
        "astId": 5731,
        "contract": "contracts/KinetexRewards.sol:KinetexRewards",
        "label": "_tokenIdCounter",
        "offset": 0,
        "slot": "351",
        "type": "t_struct(Counter)2929_storage"
      },
      {
        "astId": 5749,
        "contract": "contracts/KinetexRewards.sol:KinetexRewards",
        "label": "baseURI",
        "offset": 0,
        "slot": "352",
        "type": "t_string_storage"
      },
      {
        "astId": 5751,
        "contract": "contracts/KinetexRewards.sol:KinetexRewards",
        "label": "contractMetadataURI",
        "offset": 0,
        "slot": "353",
        "type": "t_string_storage"
      },
      {
        "astId": 5756,
        "contract": "contracts/KinetexRewards.sol:KinetexRewards",
        "label": "_attributesByTokenId",
        "offset": 0,
        "slot": "354",
        "type": "t_mapping(t_uint256,t_struct(Attributes)5649_storage)"
      },
      {
        "astId": 5760,
        "contract": "contracts/KinetexRewards.sol:KinetexRewards",
        "label": "__gap",
        "offset": 0,
        "slot": "355",
        "type": "t_array(t_uint256)96_storage"
      }
    ],
    "types": {
      "t_address": {
        "encoding": "inplace",
        "label": "address",
        "numberOfBytes": "20"
      },
      "t_array(t_uint256)44_storage": {
        "base": "t_uint256",
        "encoding": "inplace",
        "label": "uint256[44]",
        "numberOfBytes": "1408"
      },
      "t_array(t_uint256)49_storage": {
        "base": "t_uint256",
        "encoding": "inplace",
        "label": "uint256[49]",
        "numberOfBytes": "1568"
      },
      "t_array(t_uint256)50_storage": {
        "base": "t_uint256",
        "encoding": "inplace",
        "label": "uint256[50]",
        "numberOfBytes": "1600"
      },
      "t_array(t_uint256)96_storage": {
        "base": "t_uint256",
        "encoding": "inplace",
        "label": "uint256[96]",
        "numberOfBytes": "3072"
      },
      "t_bool": {
        "encoding": "inplace",
        "label": "bool",
        "numberOfBytes": "1"
      },
      "t_bytes32": {
        "encoding": "inplace",
        "label": "bytes32",
        "numberOfBytes": "32"
      },
      "t_enum(Level)6195": {
        "encoding": "inplace",
        "label": "enum Levels.Level",
        "numberOfBytes": "1"
      },
      "t_mapping(t_address,t_bool)": {
        "encoding": "mapping",
        "key": "t_address",
        "label": "mapping(address => bool)",
        "numberOfBytes": "32",
        "value": "t_bool"
      },
      "t_mapping(t_address,t_mapping(t_address,t_bool))": {
        "encoding": "mapping",
        "key": "t_address",
        "label": "mapping(address => mapping(address => bool))",
        "numberOfBytes": "32",
        "value": "t_mapping(t_address,t_bool)"
      },
      "t_mapping(t_address,t_uint256)": {
        "encoding": "mapping",
        "key": "t_address",
        "label": "mapping(address => uint256)",
        "numberOfBytes": "32",
        "value": "t_uint256"
      },
      "t_mapping(t_bytes32,t_struct(RoleData)34_storage)": {
        "encoding": "mapping",
        "key": "t_bytes32",
        "label": "mapping(bytes32 => struct AccessControlUpgradeable.RoleData)",
        "numberOfBytes": "32",
        "value": "t_struct(RoleData)34_storage"
      },
      "t_mapping(t_uint256,t_address)": {
        "encoding": "mapping",
        "key": "t_uint256",
        "label": "mapping(uint256 => address)",
        "numberOfBytes": "32",
        "value": "t_address"
      },
      "t_mapping(t_uint256,t_struct(Attributes)5649_storage)": {
        "encoding": "mapping",
        "key": "t_uint256",
        "label": "mapping(uint256 => struct IKinetexRewards.Attributes)",
        "numberOfBytes": "32",
        "value": "t_struct(Attributes)5649_storage"
      },
      "t_string_storage": {
        "encoding": "bytes",
        "label": "string",
        "numberOfBytes": "32"
      },
      "t_struct(Attributes)5649_storage": {
        "encoding": "inplace",
        "label": "struct IKinetexRewards.Attributes",
        "members": [
          {
            "astId": 5646,
            "contract": "contracts/KinetexRewards.sol:KinetexRewards",
            "label": "level",
            "offset": 0,
            "slot": "0",
            "type": "t_enum(Level)6195"
          },
          {
            "astId": 5648,
            "contract": "contracts/KinetexRewards.sol:KinetexRewards",
            "label": "dust",
            "offset": 0,
            "slot": "1",
            "type": "t_uint256"
          }
        ],
        "numberOfBytes": "64"
      },
      "t_struct(Counter)2929_storage": {
        "encoding": "inplace",
        "label": "struct CountersUpgradeable.Counter",
        "members": [
          {
            "astId": 2928,
            "contract": "contracts/KinetexRewards.sol:KinetexRewards",
            "label": "_value",
            "offset": 0,
            "slot": "0",
            "type": "t_uint256"
          }
        ],
        "numberOfBytes": "32"
      },
      "t_struct(RoleData)34_storage": {
        "encoding": "inplace",
        "label": "struct AccessControlUpgradeable.RoleData",
        "members": [
          {
            "astId": 31,
            "contract": "contracts/KinetexRewards.sol:KinetexRewards",
            "label": "members",
            "offset": 0,
            "slot": "0",
            "type": "t_mapping(t_address,t_bool)"
          },
          {
            "astId": 33,
            "contract": "contracts/KinetexRewards.sol:KinetexRewards",
            "label": "adminRole",
            "offset": 0,
            "slot": "1",
            "type": "t_bytes32"
          }
        ],
        "numberOfBytes": "64"
      },
      "t_uint256": {
        "encoding": "inplace",
        "label": "uint256",
        "numberOfBytes": "32"
      },
      "t_uint8": {
        "encoding": "inplace",
        "label": "uint8",
        "numberOfBytes": "1"
      }
    }
  }
}