{
  "address": "0x7b72d32742b7C2Fa2064bA3B60daf9f8750abDd2",
  "abi": [
    {
      "inputs": [],
      "stateMutability": "nonpayable",
      "type": "constructor"
    },
    {
      "anonymous": false,
      "inputs": [
        {
          "indexed": false,
          "internalType": "address",
          "name": "previousAdmin",
          "type": "address"
        },
        {
          "indexed": false,
          "internalType": "address",
          "name": "newAdmin",
          "type": "address"
        }
      ],
      "name": "AdminChanged",
      "type": "event"
    },
    {
      "anonymous": false,
      "inputs": [
        {
          "indexed": true,
          "internalType": "address",
          "name": "beacon",
          "type": "address"
        }
      ],
      "name": "BeaconUpgraded",
      "type": "event"
    },
    {
      "anonymous": false,
      "inputs": [
        {
          "indexed": false,
          "internalType": "uint256",
          "name": "tokenA",
          "type": "uint256"
        },
        {
          "indexed": false,
          "internalType": "uint256",
          "name": "tokenB",
          "type": "uint256"
        },
        {
          "indexed": false,
          "internalType": "uint256",
          "name": "tokenId",
          "type": "uint256"
        }
      ],
      "name": "Craft",
      "type": "event"
    },
    {
      "anonymous": false,
      "inputs": [
        {
          "indexed": false,
          "internalType": "uint8",
          "name": "version",
          "type": "uint8"
        }
      ],
      "name": "Initialized",
      "type": "event"
    },
    {
      "anonymous": false,
      "inputs": [
        {
          "indexed": true,
          "internalType": "address",
          "name": "previousOwner",
          "type": "address"
        },
        {
          "indexed": true,
          "internalType": "address",
          "name": "newOwner",
          "type": "address"
        }
      ],
      "name": "OwnershipTransferred",
      "type": "event"
    },
    {
      "anonymous": false,
      "inputs": [
        {
          "indexed": true,
          "internalType": "address",
          "name": "implementation",
          "type": "address"
        }
      ],
      "name": "Upgraded",
      "type": "event"
    },
    {
      "inputs": [
        {
          "internalType": "uint256",
          "name": "tokenA",
          "type": "uint256"
        },
        {
          "internalType": "uint256",
          "name": "tokenB",
          "type": "uint256"
        }
      ],
      "name": "craft",
      "outputs": [],
      "stateMutability": "nonpayable",
      "type": "function"
    },
    {
      "inputs": [
        {
          "internalType": "address",
          "name": "_kinetexRewards",
          "type": "address"
        }
      ],
      "name": "initialize",
      "outputs": [],
      "stateMutability": "nonpayable",
      "type": "function"
    },
    {
      "inputs": [],
      "name": "owner",
      "outputs": [
        {
          "internalType": "address",
          "name": "",
          "type": "address"
        }
      ],
      "stateMutability": "view",
      "type": "function"
    },
    {
      "inputs": [],
      "name": "proxiableUUID",
      "outputs": [
        {
          "internalType": "bytes32",
          "name": "",
          "type": "bytes32"
        }
      ],
      "stateMutability": "view",
      "type": "function"
    },
    {
      "inputs": [],
      "name": "renounceOwnership",
      "outputs": [],
      "stateMutability": "nonpayable",
      "type": "function"
    },
    {
      "inputs": [
        {
          "internalType": "address",
          "name": "newOwner",
          "type": "address"
        }
      ],
      "name": "transferOwnership",
      "outputs": [],
      "stateMutability": "nonpayable",
      "type": "function"
    },
    {
      "inputs": [
        {
          "internalType": "address",
          "name": "newImplementation",
          "type": "address"
        }
      ],
      "name": "upgradeTo",
      "outputs": [],
      "stateMutability": "nonpayable",
      "type": "function"
    },
    {
      "inputs": [
        {
          "internalType": "address",
          "name": "newImplementation",
          "type": "address"
        },
        {
          "internalType": "bytes",
          "name": "data",
          "type": "bytes"
        }
      ],
      "name": "upgradeToAndCall",
      "outputs": [],
      "stateMutability": "payable",
      "type": "function"
    }
  ],
  "numDeployments": 1,
  "solcInputHash": "68b4257dc710776efb8821e97c19242c",
  "bytecode": "0x60a06040523073ffffffffffffffffffffffffffffffffffffffff1660809073ffffffffffffffffffffffffffffffffffffffff168152503480156200004457600080fd5b50620000556200005b60201b60201c565b62000206565b600060019054906101000a900460ff1615620000ae576040517f08c379a0000000000000000000000000000000000000000000000000000000008152600401620000a590620001a9565b60405180910390fd5b60ff801660008054906101000a900460ff1660ff161015620001205760ff6000806101000a81548160ff021916908360ff1602179055507f7f26b83ff96e1f2b6a682f133852f6798a09c465da95921460cefb384740249860ff604051620001179190620001e9565b60405180910390a15b565b600082825260208201905092915050565b7f496e697469616c697a61626c653a20636f6e747261637420697320696e69746960008201527f616c697a696e6700000000000000000000000000000000000000000000000000602082015250565b60006200019160278362000122565b91506200019e8262000133565b604082019050919050565b60006020820190508181036000830152620001c48162000182565b9050919050565b600060ff82169050919050565b620001e381620001cb565b82525050565b6000602082019050620002006000830184620001d8565b92915050565b6080516123776200023e600039600081816107d1015281816108600152818161095a015281816109e90152610a9901526123776000f3fe60806040526004361061007b5760003560e01c8063715018a61161004e578063715018a6146101195780638da5cb5b14610130578063c4d66de81461015b578063f2fde38b146101845761007b565b8063289137a1146100805780633659cfe6146100a95780634f1ef286146100d257806352d1902d146100ee575b600080fd5b34801561008c57600080fd5b506100a760048036038101906100a2919061158a565b6101ad565b005b3480156100b557600080fd5b506100d060048036038101906100cb9190611628565b6107cf565b005b6100ec60048036038101906100e7919061179b565b610958565b005b3480156100fa57600080fd5b50610103610a95565b6040516101109190611810565b60405180910390f35b34801561012557600080fd5b5061012e610b4e565b005b34801561013c57600080fd5b50610145610b62565b604051610152919061183a565b60405180910390f35b34801561016757600080fd5b50610182600480360381019061017d9190611628565b610b8c565b005b34801561019057600080fd5b506101ab60048036038101906101a69190611628565b610dc5565b005b3373ffffffffffffffffffffffffffffffffffffffff1660ca60009054906101000a900473ffffffffffffffffffffffffffffffffffffffff1673ffffffffffffffffffffffffffffffffffffffff16636352211e846040518263ffffffff1660e01b815260040161021f9190611864565b60206040518083038186803b15801561023757600080fd5b505afa15801561024b573d6000803e3d6000fd5b505050506040513d601f19601f8201168201806040525081019061026f9190611894565b73ffffffffffffffffffffffffffffffffffffffff16146102c5576040517f08c379a00000000000000000000000000000000000000000000000000000000081526004016102bc9061191e565b60405180910390fd5b3373ffffffffffffffffffffffffffffffffffffffff1660ca60009054906101000a900473ffffffffffffffffffffffffffffffffffffffff1673ffffffffffffffffffffffffffffffffffffffff16636352211e836040518263ffffffff1660e01b81526004016103379190611864565b60206040518083038186803b15801561034f57600080fd5b505afa158015610363573d6000803e3d6000fd5b505050506040513d601f19601f820116820180604052508101906103879190611894565b73ffffffffffffffffffffffffffffffffffffffff16146103dd576040517f08c379a00000000000000000000000000000000000000000000000000000000081526004016103d49061198a565b60405180910390fd5b600060c960009054906101000a900473ffffffffffffffffffffffffffffffffffffffff1673ffffffffffffffffffffffffffffffffffffffff1663d682d84a836040518263ffffffff1660e01b815260040161043a9190611864565b60206040518083038186803b15801561045257600080fd5b505afa158015610466573d6000803e3d6000fd5b505050506040513d601f19601f8201168201806040525081019061048a91906119bf565b60c960009054906101000a900473ffffffffffffffffffffffffffffffffffffffff1673ffffffffffffffffffffffffffffffffffffffff1663d682d84a856040518263ffffffff1660e01b81526004016104e59190611864565b60206040518083038186803b1580156104fd57600080fd5b505afa158015610511573d6000803e3d6000fd5b505050506040513d601f19601f8201168201806040525081019061053591906119bf565b61053f9190611a1b565b9050600060c960009054906101000a900473ffffffffffffffffffffffffffffffffffffffff1673ffffffffffffffffffffffffffffffffffffffff1663caa0f92a6040518163ffffffff1660e01b815260040160206040518083038186803b1580156105ab57600080fd5b505afa1580156105bf573d6000803e3d6000fd5b505050506040513d601f19601f820116820180604052508101906105e391906119bf565b905060c960009054906101000a900473ffffffffffffffffffffffffffffffffffffffff1673ffffffffffffffffffffffffffffffffffffffff166342966c68856040518263ffffffff1660e01b81526004016106409190611864565b600060405180830381600087803b15801561065a57600080fd5b505af115801561066e573d6000803e3d6000fd5b5050505060c960009054906101000a900473ffffffffffffffffffffffffffffffffffffffff1673ffffffffffffffffffffffffffffffffffffffff166342966c68846040518263ffffffff1660e01b81526004016106cd9190611864565b600060405180830381600087803b1580156106e757600080fd5b505af11580156106fb573d6000803e3d6000fd5b5050505060c960009054906101000a900473ffffffffffffffffffffffffffffffffffffffff1673ffffffffffffffffffffffffffffffffffffffff1663a144819433846040518363ffffffff1660e01b815260040161075c929190611a71565b600060405180830381600087803b15801561077657600080fd5b505af115801561078a573d6000803e3d6000fd5b505050507f3a8fde22dab008149d51f89cee16ff13466ebbe55de963d77bea0df67602c49b8484836040516107c193929190611a9a565b60405180910390a150505050565b7f000000000000000000000000000000000000000000000000000000000000000073ffffffffffffffffffffffffffffffffffffffff163073ffffffffffffffffffffffffffffffffffffffff16141561085e576040517f08c379a000000000000000000000000000000000000000000000000000000000815260040161085590611b43565b60405180910390fd5b7f000000000000000000000000000000000000000000000000000000000000000073ffffffffffffffffffffffffffffffffffffffff1661089d610e49565b73ffffffffffffffffffffffffffffffffffffffff16146108f3576040517f08c379a00000000000000000000000000000000000000000000000000000000081526004016108ea90611bd5565b60405180910390fd5b6108fc81610ea0565b61095581600067ffffffffffffffff81111561091b5761091a611670565b5b6040519080825280601f01601f19166020018201604052801561094d5781602001600182028036833780820191505090505b506000610eab565b50565b7f000000000000000000000000000000000000000000000000000000000000000073ffffffffffffffffffffffffffffffffffffffff163073ffffffffffffffffffffffffffffffffffffffff1614156109e7576040517f08c379a00000000000000000000000000000000000000000000000000000000081526004016109de90611b43565b60405180910390fd5b7f000000000000000000000000000000000000000000000000000000000000000073ffffffffffffffffffffffffffffffffffffffff16610a26610e49565b73ffffffffffffffffffffffffffffffffffffffff1614610a7c576040517f08c379a0000000000000000000000000000000000000000000000000000000008152600401610a7390611bd5565b60405180910390fd5b610a8582610ea0565b610a9182826001610eab565b5050565b60007f000000000000000000000000000000000000000000000000000000000000000073ffffffffffffffffffffffffffffffffffffffff163073ffffffffffffffffffffffffffffffffffffffff1614610b25576040517f08c379a0000000000000000000000000000000000000000000000000000000008152600401610b1c90611c67565b60405180910390fd5b7f360894a13ba1a3210667c828492db98dca3e2076cc3735a920a3ca505d382bbc60001b905090565b610b56611028565b610b6060006110a6565b565b6000603360009054906101000a900473ffffffffffffffffffffffffffffffffffffffff16905090565b60008060019054906101000a900460ff16159050808015610bbd5750600160008054906101000a900460ff1660ff16105b80610bea5750610bcc3061116c565b158015610be95750600160008054906101000a900460ff1660ff16145b5b610c29576040517f08c379a0000000000000000000000000000000000000000000000000000000008152600401610c2090611cf9565b60405180910390fd5b60016000806101000a81548160ff021916908360ff1602179055508015610c66576001600060016101000a81548160ff0219169083151502179055505b600073ffffffffffffffffffffffffffffffffffffffff168273ffffffffffffffffffffffffffffffffffffffff161415610cd6576040517f08c379a0000000000000000000000000000000000000000000000000000000008152600401610ccd90611d65565b60405180910390fd5b610cde61118f565b610ce66111e8565b8160c960006101000a81548173ffffffffffffffffffffffffffffffffffffffff021916908373ffffffffffffffffffffffffffffffffffffffff1602179055508160ca60006101000a81548173ffffffffffffffffffffffffffffffffffffffff021916908373ffffffffffffffffffffffffffffffffffffffff1602179055508015610dc15760008060016101000a81548160ff0219169083151502179055507f7f26b83ff96e1f2b6a682f133852f6798a09c465da95921460cefb38474024986001604051610db89190611dd7565b60405180910390a15b5050565b610dcd611028565b600073ffffffffffffffffffffffffffffffffffffffff168173ffffffffffffffffffffffffffffffffffffffff161415610e3d576040517f08c379a0000000000000000000000000000000000000000000000000000000008152600401610e3490611e64565b60405180910390fd5b610e46816110a6565b50565b6000610e777f360894a13ba1a3210667c828492db98dca3e2076cc3735a920a3ca505d382bbc60001b611239565b60000160009054906101000a900473ffffffffffffffffffffffffffffffffffffffff16905090565b610ea8611028565b50565b610ed77f4910fdfa16fed3260ed0e7147f7cc6da11a60208b5b9406d12a635614ffd914360001b611243565b60000160009054906101000a900460ff1615610efb57610ef68361124d565b611023565b8273ffffffffffffffffffffffffffffffffffffffff166352d1902d6040518163ffffffff1660e01b815260040160206040518083038186803b158015610f4157600080fd5b505afa925050508015610f7257506040513d601f19601f82011682018060405250810190610f6f9190611eb0565b60015b610fb1576040517f08c379a0000000000000000000000000000000000000000000000000000000008152600401610fa890611f4f565b60405180910390fd5b7f360894a13ba1a3210667c828492db98dca3e2076cc3735a920a3ca505d382bbc60001b8114611016576040517f08c379a000000000000000000000000000000000000000000000000000000000815260040161100d90611fe1565b60405180910390fd5b50611022838383611306565b5b505050565b611030611332565b73ffffffffffffffffffffffffffffffffffffffff1661104e610b62565b73ffffffffffffffffffffffffffffffffffffffff16146110a4576040517f08c379a000000000000000000000000000000000000000000000000000000000815260040161109b9061204d565b60405180910390fd5b565b6000603360009054906101000a900473ffffffffffffffffffffffffffffffffffffffff16905081603360006101000a81548173ffffffffffffffffffffffffffffffffffffffff021916908373ffffffffffffffffffffffffffffffffffffffff1602179055508173ffffffffffffffffffffffffffffffffffffffff168173ffffffffffffffffffffffffffffffffffffffff167f8be0079c531659141344cd1fd0a4f28419497f9722a3daafe3b4186f6b6457e060405160405180910390a35050565b6000808273ffffffffffffffffffffffffffffffffffffffff163b119050919050565b600060019054906101000a900460ff166111de576040517f08c379a00000000000000000000000000000000000000000000000000000000081526004016111d5906120df565b60405180910390fd5b6111e661133a565b565b600060019054906101000a900460ff16611237576040517f08c379a000000000000000000000000000000000000000000000000000000000815260040161122e906120df565b60405180910390fd5b565b6000819050919050565b6000819050919050565b6112568161116c565b611295576040517f08c379a000000000000000000000000000000000000000000000000000000000815260040161128c90612171565b60405180910390fd5b806112c27f360894a13ba1a3210667c828492db98dca3e2076cc3735a920a3ca505d382bbc60001b611239565b60000160006101000a81548173ffffffffffffffffffffffffffffffffffffffff021916908373ffffffffffffffffffffffffffffffffffffffff16021790555050565b61130f8361139b565b60008251118061131c5750805b1561132d5761132b83836113ea565b505b505050565b600033905090565b600060019054906101000a900460ff16611389576040517f08c379a0000000000000000000000000000000000000000000000000000000008152600401611380906120df565b60405180910390fd5b611399611394611332565b6110a6565b565b6113a48161124d565b8073ffffffffffffffffffffffffffffffffffffffff167fbc7cd75a20ee27fd9adebab32041f755214dbc6bffa90cc0225b39da2e5c2d3b60405160405180910390a250565b60606113f58361116c565b611434576040517f08c379a000000000000000000000000000000000000000000000000000000000815260040161142b90612203565b60405180910390fd5b6000808473ffffffffffffffffffffffffffffffffffffffff168460405161145c919061229d565b600060405180830381855af49150503d8060008114611497576040519150601f19603f3d011682016040523d82523d6000602084013e61149c565b606091505b50915091506114c4828260405180606001604052806027815260200161231b602791396114ce565b9250505092915050565b606083156114de578290506114e9565b6114e883836114f0565b5b9392505050565b6000825111156115035781518083602001fd5b806040517f08c379a000000000000000000000000000000000000000000000000000000000815260040161153791906122f8565b60405180910390fd5b6000604051905090565b600080fd5b600080fd5b6000819050919050565b61156781611554565b811461157257600080fd5b50565b6000813590506115848161155e565b92915050565b600080604083850312156115a1576115a061154a565b5b60006115af85828601611575565b92505060206115c085828601611575565b9150509250929050565b600073ffffffffffffffffffffffffffffffffffffffff82169050919050565b60006115f5826115ca565b9050919050565b611605816115ea565b811461161057600080fd5b50565b600081359050611622816115fc565b92915050565b60006020828403121561163e5761163d61154a565b5b600061164c84828501611613565b91505092915050565b600080fd5b600080fd5b6000601f19601f8301169050919050565b7f4e487b7100000000000000000000000000000000000000000000000000000000600052604160045260246000fd5b6116a88261165f565b810181811067ffffffffffffffff821117156116c7576116c6611670565b5b80604052505050565b60006116da611540565b90506116e6828261169f565b919050565b600067ffffffffffffffff82111561170657611705611670565b5b61170f8261165f565b9050602081019050919050565b82818337600083830152505050565b600061173e611739846116eb565b6116d0565b90508281526020810184848401111561175a5761175961165a565b5b61176584828561171c565b509392505050565b600082601f83011261178257611781611655565b5b813561179284826020860161172b565b91505092915050565b600080604083850312156117b2576117b161154a565b5b60006117c085828601611613565b925050602083013567ffffffffffffffff8111156117e1576117e061154f565b5b6117ed8582860161176d565b9150509250929050565b6000819050919050565b61180a816117f7565b82525050565b60006020820190506118256000830184611801565b92915050565b611834816115ea565b82525050565b600060208201905061184f600083018461182b565b92915050565b61185e81611554565b82525050565b60006020820190506118796000830184611855565b92915050565b60008151905061188e816115fc565b92915050565b6000602082840312156118aa576118a961154a565b5b60006118b88482850161187f565b91505092915050565b600082825260208201905092915050565b7f4b433a204e6f7420746865206f776e6572206f6620746f6b656e410000000000600082015250565b6000611908601b836118c1565b9150611913826118d2565b602082019050919050565b60006020820190508181036000830152611937816118fb565b9050919050565b7f4b433a204e6f7420746865206f776e6572206f6620746f6b656e420000000000600082015250565b6000611974601b836118c1565b915061197f8261193e565b602082019050919050565b600060208201905081810360008301526119a381611967565b9050919050565b6000815190506119b98161155e565b92915050565b6000602082840312156119d5576119d461154a565b5b60006119e3848285016119aa565b91505092915050565b7f4e487b7100000000000000000000000000000000000000000000000000000000600052601160045260246000fd5b6000611a2682611554565b9150611a3183611554565b9250827fffffffffffffffffffffffffffffffffffffffffffffffffffffffffffffffff03821115611a6657611a656119ec565b5b828201905092915050565b6000604082019050611a86600083018561182b565b611a936020830184611855565b9392505050565b6000606082019050611aaf6000830186611855565b611abc6020830185611855565b611ac96040830184611855565b949350505050565b7f46756e6374696f6e206d7573742062652063616c6c6564207468726f7567682060008201527f64656c656761746563616c6c0000000000000000000000000000000000000000602082015250565b6000611b2d602c836118c1565b9150611b3882611ad1565b604082019050919050565b60006020820190508181036000830152611b5c81611b20565b9050919050565b7f46756e6374696f6e206d7573742062652063616c6c6564207468726f7567682060008201527f6163746976652070726f78790000000000000000000000000000000000000000602082015250565b6000611bbf602c836118c1565b9150611bca82611b63565b604082019050919050565b60006020820190508181036000830152611bee81611bb2565b9050919050565b7f555550535570677261646561626c653a206d757374206e6f742062652063616c60008201527f6c6564207468726f7567682064656c656761746563616c6c0000000000000000602082015250565b6000611c516038836118c1565b9150611c5c82611bf5565b604082019050919050565b60006020820190508181036000830152611c8081611c44565b9050919050565b7f496e697469616c697a61626c653a20636f6e747261637420697320616c72656160008201527f647920696e697469616c697a6564000000000000000000000000000000000000602082015250565b6000611ce3602e836118c1565b9150611cee82611c87565b604082019050919050565b60006020820190508181036000830152611d1281611cd6565b9050919050565b7f4b433a204b696e65746578526577617264732061646472657373207a65726f00600082015250565b6000611d4f601f836118c1565b9150611d5a82611d19565b602082019050919050565b60006020820190508181036000830152611d7e81611d42565b9050919050565b6000819050919050565b600060ff82169050919050565b6000819050919050565b6000611dc1611dbc611db784611d85565b611d9c565b611d8f565b9050919050565b611dd181611da6565b82525050565b6000602082019050611dec6000830184611dc8565b92915050565b7f4f776e61626c653a206e6577206f776e657220697320746865207a65726f206160008201527f6464726573730000000000000000000000000000000000000000000000000000602082015250565b6000611e4e6026836118c1565b9150611e5982611df2565b604082019050919050565b60006020820190508181036000830152611e7d81611e41565b9050919050565b611e8d816117f7565b8114611e9857600080fd5b50565b600081519050611eaa81611e84565b92915050565b600060208284031215611ec657611ec561154a565b5b6000611ed484828501611e9b565b91505092915050565b7f45524331393637557067726164653a206e657720696d706c656d656e7461746960008201527f6f6e206973206e6f742055555053000000000000000000000000000000000000602082015250565b6000611f39602e836118c1565b9150611f4482611edd565b604082019050919050565b60006020820190508181036000830152611f6881611f2c565b9050919050565b7f45524331393637557067726164653a20756e737570706f727465642070726f7860008201527f6961626c65555549440000000000000000000000000000000000000000000000602082015250565b6000611fcb6029836118c1565b9150611fd682611f6f565b604082019050919050565b60006020820190508181036000830152611ffa81611fbe565b9050919050565b7f4f776e61626c653a2063616c6c6572206973206e6f7420746865206f776e6572600082015250565b60006120376020836118c1565b915061204282612001565b602082019050919050565b600060208201905081810360008301526120668161202a565b9050919050565b7f496e697469616c697a61626c653a20636f6e7472616374206973206e6f74206960008201527f6e697469616c697a696e67000000000000000000000000000000000000000000602082015250565b60006120c9602b836118c1565b91506120d48261206d565b604082019050919050565b600060208201905081810360008301526120f8816120bc565b9050919050565b7f455243313936373a206e657720696d706c656d656e746174696f6e206973206e60008201527f6f74206120636f6e747261637400000000000000000000000000000000000000602082015250565b600061215b602d836118c1565b9150612166826120ff565b604082019050919050565b6000602082019050818103600083015261218a8161214e565b9050919050565b7f416464726573733a2064656c65676174652063616c6c20746f206e6f6e2d636f60008201527f6e74726163740000000000000000000000000000000000000000000000000000602082015250565b60006121ed6026836118c1565b91506121f882612191565b604082019050919050565b6000602082019050818103600083015261221c816121e0565b9050919050565b600081519050919050565b600081905092915050565b60005b8381101561225757808201518184015260208101905061223c565b83811115612266576000848401525b50505050565b600061227782612223565b612281818561222e565b9350612291818560208601612239565b80840191505092915050565b60006122a9828461226c565b915081905092915050565b600081519050919050565b60006122ca826122b4565b6122d481856118c1565b93506122e4818560208601612239565b6122ed8161165f565b840191505092915050565b6000602082019050818103600083015261231281846122bf565b90509291505056fe416464726573733a206c6f772d6c6576656c2064656c65676174652063616c6c206661696c6564a2646970667358221220ce4cfef4883fdb8979f179623462d195c73fa3db2783bf46a477514858d8954764736f6c63430008090033",
  "devdoc": {
    "custom:security-contact": "vasemkin@ya.ru",
    "kind": "dev",
    "methods": {
      "constructor": {
        "custom:oz-upgrades-unsafe-allow": "constructor"
      },
      "owner()": {
        "details": "Returns the address of the current owner."
      },
      "proxiableUUID()": {
        "details": "Implementation of the ERC1822 {proxiableUUID} function. This returns the storage slot used by the implementation. It is used to validate the implementation's compatibility when performing an upgrade. IMPORTANT: A proxy pointing at a proxiable contract should not be considered proxiable itself, because this risks bricking a proxy that upgrades to it, by delegating to itself until out of gas. Thus it is critical that this function revert if invoked through a proxy. This is guaranteed by the `notDelegated` modifier."
      },
      "renounceOwnership()": {
        "details": "Leaves the contract without owner. It will not be possible to call `onlyOwner` functions anymore. Can only be called by the current owner. NOTE: Renouncing ownership will leave the contract without an owner, thereby removing any functionality that is only available to the owner."
      },
      "transferOwnership(address)": {
        "details": "Transfers ownership of the contract to a new account (`newOwner`). Can only be called by the current owner."
      },
      "upgradeTo(address)": {
        "details": "Upgrade the implementation of the proxy to `newImplementation`. Calls {_authorizeUpgrade}. Emits an {Upgraded} event."
      },
      "upgradeToAndCall(address,bytes)": {
        "details": "Upgrade the implementation of the proxy to `newImplementation`, and subsequently execute the function call encoded in `data`. Calls {_authorizeUpgrade}. Emits an {Upgraded} event."
      }
    },
    "version": 1
  },
  "userdoc": {
    "kind": "user",
    "methods": {},
    "version": 1
  },
  "storageLayout": {
    "storage": [
      {
        "astId": 936,
        "contract": "contracts/crafting/KinetexCrafting.sol:KinetexCrafting",
        "label": "_initialized",
        "offset": 0,
        "slot": "0",
        "type": "t_uint8"
      },
      {
        "astId": 939,
        "contract": "contracts/crafting/KinetexCrafting.sol:KinetexCrafting",
        "label": "_initializing",
        "offset": 1,
        "slot": "0",
        "type": "t_bool"
      },
      {
        "astId": 2922,
        "contract": "contracts/crafting/KinetexCrafting.sol:KinetexCrafting",
        "label": "__gap",
        "offset": 0,
        "slot": "1",
        "type": "t_array(t_uint256)50_storage"
      },
      {
        "astId": 419,
        "contract": "contracts/crafting/KinetexCrafting.sol:KinetexCrafting",
        "label": "_owner",
        "offset": 0,
        "slot": "51",
        "type": "t_address"
      },
      {
        "astId": 539,
        "contract": "contracts/crafting/KinetexCrafting.sol:KinetexCrafting",
        "label": "__gap",
        "offset": 0,
        "slot": "52",
        "type": "t_array(t_uint256)49_storage"
      },
      {
        "astId": 918,
        "contract": "contracts/crafting/KinetexCrafting.sol:KinetexCrafting",
        "label": "__gap",
        "offset": 0,
        "slot": "101",
        "type": "t_array(t_uint256)50_storage"
      },
      {
        "astId": 1233,
        "contract": "contracts/crafting/KinetexCrafting.sol:KinetexCrafting",
        "label": "__gap",
        "offset": 0,
        "slot": "151",
        "type": "t_array(t_uint256)50_storage"
      },
      {
        "astId": 6041,
        "contract": "contracts/crafting/KinetexCrafting.sol:KinetexCrafting",
        "label": "kinetexRewards",
        "offset": 0,
        "slot": "201",
        "type": "t_contract(IKinetexRewards)5694"
      },
      {
        "astId": 6043,
        "contract": "contracts/crafting/KinetexCrafting.sol:KinetexCrafting",
        "label": "kinetexRewardsAddress",
        "offset": 0,
        "slot": "202",
        "type": "t_address"
      },
      {
        "astId": 6047,
        "contract": "contracts/crafting/KinetexCrafting.sol:KinetexCrafting",
        "label": "__gap",
        "offset": 0,
        "slot": "203",
        "type": "t_array(t_uint256)98_storage"
      }
    ],
    "types": {
      "t_address": {
        "encoding": "inplace",
        "label": "address",
        "numberOfBytes": "20"
      },
      "t_array(t_uint256)49_storage": {
        "base": "t_uint256",
        "encoding": "inplace",
        "label": "uint256[49]",
        "numberOfBytes": "1568"
      },
      "t_array(t_uint256)50_storage": {
        "base": "t_uint256",
        "encoding": "inplace",
        "label": "uint256[50]",
        "numberOfBytes": "1600"
      },
      "t_array(t_uint256)98_storage": {
        "base": "t_uint256",
        "encoding": "inplace",
        "label": "uint256[98]",
        "numberOfBytes": "3136"
      },
      "t_bool": {
        "encoding": "inplace",
        "label": "bool",
        "numberOfBytes": "1"
      },
      "t_contract(IKinetexRewards)5694": {
        "encoding": "inplace",
        "label": "contract IKinetexRewards",
        "numberOfBytes": "20"
      },
      "t_uint256": {
        "encoding": "inplace",
        "label": "uint256",
        "numberOfBytes": "32"
      },
      "t_uint8": {
        "encoding": "inplace",
        "label": "uint8",
        "numberOfBytes": "1"
      }
    }
  }
}