{
  "address": "0xfb0ef48d2a0AA1d5D658DE9d91c3cbfD264763e1",
  "abi": [
    {
      "inputs": [],
      "stateMutability": "nonpayable",
      "type": "constructor"
    },
    {
      "anonymous": false,
      "inputs": [
        {
          "indexed": false,
          "internalType": "address",
          "name": "previousAdmin",
          "type": "address"
        },
        {
          "indexed": false,
          "internalType": "address",
          "name": "newAdmin",
          "type": "address"
        }
      ],
      "name": "AdminChanged",
      "type": "event"
    },
    {
      "anonymous": false,
      "inputs": [
        {
          "indexed": true,
          "internalType": "address",
          "name": "owner",
          "type": "address"
        },
        {
          "indexed": true,
          "internalType": "address",
          "name": "approved",
          "type": "address"
        },
        {
          "indexed": true,
          "internalType": "uint256",
          "name": "tokenId",
          "type": "uint256"
        }
      ],
      "name": "Approval",
      "type": "event"
    },
    {
      "anonymous": false,
      "inputs": [
        {
          "indexed": true,
          "internalType": "address",
          "name": "owner",
          "type": "address"
        },
        {
          "indexed": true,
          "internalType": "address",
          "name": "operator",
          "type": "address"
        },
        {
          "indexed": false,
          "internalType": "bool",
          "name": "approved",
          "type": "bool"
        }
      ],
      "name": "ApprovalForAll",
      "type": "event"
    },
    {
      "anonymous": false,
      "inputs": [
        {
          "indexed": false,
          "internalType": "uint256",
          "name": "_fromTokenId",
          "type": "uint256"
        },
        {
          "indexed": false,
          "internalType": "uint256",
          "name": "_toTokenId",
          "type": "uint256"
        }
      ],
      "name": "BatchMetadataUpdate",
      "type": "event"
    },
    {
      "anonymous": false,
      "inputs": [
        {
          "indexed": true,
          "internalType": "address",
          "name": "beacon",
          "type": "address"
        }
      ],
      "name": "BeaconUpgraded",
      "type": "event"
    },
    {
      "anonymous": false,
      "inputs": [
        {
          "indexed": false,
          "internalType": "uint256",
          "name": "tokenId",
          "type": "uint256"
        }
      ],
      "name": "Burn",
      "type": "event"
    },
    {
      "anonymous": false,
      "inputs": [
        {
          "indexed": false,
          "internalType": "uint8",
          "name": "version",
          "type": "uint8"
        }
      ],
      "name": "Initialized",
      "type": "event"
    },
    {
      "anonymous": false,
      "inputs": [
        {
          "indexed": false,
          "internalType": "uint256",
          "name": "_tokenId",
          "type": "uint256"
        }
      ],
      "name": "MetadataUpdate",
      "type": "event"
    },
    {
      "anonymous": false,
      "inputs": [
        {
          "indexed": false,
          "internalType": "uint256",
          "name": "tokenId",
          "type": "uint256"
        },
        {
          "indexed": false,
          "internalType": "enum KinetexAmbassador.Level",
          "name": "level",
          "type": "uint8"
        }
      ],
      "name": "Mint",
      "type": "event"
    },
    {
      "anonymous": false,
      "inputs": [
        {
          "indexed": true,
          "internalType": "bytes32",
          "name": "role",
          "type": "bytes32"
        },
        {
          "indexed": true,
          "internalType": "bytes32",
          "name": "previousAdminRole",
          "type": "bytes32"
        },
        {
          "indexed": true,
          "internalType": "bytes32",
          "name": "newAdminRole",
          "type": "bytes32"
        }
      ],
      "name": "RoleAdminChanged",
      "type": "event"
    },
    {
      "anonymous": false,
      "inputs": [
        {
          "indexed": true,
          "internalType": "bytes32",
          "name": "role",
          "type": "bytes32"
        },
        {
          "indexed": true,
          "internalType": "address",
          "name": "account",
          "type": "address"
        },
        {
          "indexed": true,
          "internalType": "address",
          "name": "sender",
          "type": "address"
        }
      ],
      "name": "RoleGranted",
      "type": "event"
    },
    {
      "anonymous": false,
      "inputs": [
        {
          "indexed": true,
          "internalType": "bytes32",
          "name": "role",
          "type": "bytes32"
        },
        {
          "indexed": true,
          "internalType": "address",
          "name": "account",
          "type": "address"
        },
        {
          "indexed": true,
          "internalType": "address",
          "name": "sender",
          "type": "address"
        }
      ],
      "name": "RoleRevoked",
      "type": "event"
    },
    {
      "anonymous": false,
      "inputs": [
        {
          "indexed": false,
          "internalType": "string",
          "name": "uri",
          "type": "string"
        }
      ],
      "name": "SetBaseURI",
      "type": "event"
    },
    {
      "anonymous": false,
      "inputs": [
        {
          "indexed": false,
          "internalType": "string",
          "name": "uri",
          "type": "string"
        }
      ],
      "name": "SetContractURI",
      "type": "event"
    },
    {
      "anonymous": false,
      "inputs": [
        {
          "indexed": true,
          "internalType": "address",
          "name": "from",
          "type": "address"
        },
        {
          "indexed": true,
          "internalType": "address",
          "name": "to",
          "type": "address"
        },
        {
          "indexed": true,
          "internalType": "uint256",
          "name": "tokenId",
          "type": "uint256"
        }
      ],
      "name": "Transfer",
      "type": "event"
    },
    {
      "anonymous": false,
      "inputs": [
        {
          "indexed": true,
          "internalType": "address",
          "name": "implementation",
          "type": "address"
        }
      ],
      "name": "Upgraded",
      "type": "event"
    },
    {
      "inputs": [],
      "name": "BURNER_ROLE",
      "outputs": [
        {
          "internalType": "bytes32",
          "name": "",
          "type": "bytes32"
        }
      ],
      "stateMutability": "view",
      "type": "function"
    },
    {
      "inputs": [],
      "name": "DEFAULT_ADMIN_ROLE",
      "outputs": [
        {
          "internalType": "bytes32",
          "name": "",
          "type": "bytes32"
        }
      ],
      "stateMutability": "view",
      "type": "function"
    },
    {
      "inputs": [],
      "name": "MINTER_ROLE",
      "outputs": [
        {
          "internalType": "bytes32",
          "name": "",
          "type": "bytes32"
        }
      ],
      "stateMutability": "view",
      "type": "function"
    },
    {
      "inputs": [],
      "name": "REWARDS_PER_BURN",
      "outputs": [
        {
          "internalType": "uint256",
          "name": "",
          "type": "uint256"
        }
      ],
      "stateMutability": "view",
      "type": "function"
    },
    {
      "inputs": [
        {
          "internalType": "address",
          "name": "to",
          "type": "address"
        },
        {
          "internalType": "uint256",
          "name": "tokenId",
          "type": "uint256"
        }
      ],
      "name": "approve",
      "outputs": [],
      "stateMutability": "nonpayable",
      "type": "function"
    },
    {
      "inputs": [
        {
          "internalType": "address",
          "name": "owner",
          "type": "address"
        }
      ],
      "name": "balanceOf",
      "outputs": [
        {
          "internalType": "uint256",
          "name": "",
          "type": "uint256"
        }
      ],
      "stateMutability": "view",
      "type": "function"
    },
    {
      "inputs": [],
      "name": "baseURI",
      "outputs": [
        {
          "internalType": "string",
          "name": "",
          "type": "string"
        }
      ],
      "stateMutability": "view",
      "type": "function"
    },
    {
      "inputs": [
        {
          "internalType": "uint256",
          "name": "_tokenId",
          "type": "uint256"
        }
      ],
      "name": "burn",
      "outputs": [],
      "stateMutability": "nonpayable",
      "type": "function"
    },
    {
      "inputs": [
        {
          "internalType": "uint256",
          "name": "_tokenId",
          "type": "uint256"
        }
      ],
      "name": "burnPriveleged",
      "outputs": [],
      "stateMutability": "nonpayable",
      "type": "function"
    },
    {
      "inputs": [],
      "name": "burnRewardUnlocked",
      "outputs": [
        {
          "internalType": "bool",
          "name": "",
          "type": "bool"
        }
      ],
      "stateMutability": "view",
      "type": "function"
    },
    {
      "inputs": [],
      "name": "contractMetadataURI",
      "outputs": [
        {
          "internalType": "string",
          "name": "",
          "type": "string"
        }
      ],
      "stateMutability": "view",
      "type": "function"
    },
    {
      "inputs": [],
      "name": "contractURI",
      "outputs": [
        {
          "internalType": "string",
          "name": "",
          "type": "string"
        }
      ],
      "stateMutability": "view",
      "type": "function"
    },
    {
      "inputs": [
        {
          "internalType": "uint256",
          "name": "tokenId",
          "type": "uint256"
        }
      ],
      "name": "getApproved",
      "outputs": [
        {
          "internalType": "address",
          "name": "",
          "type": "address"
        }
      ],
      "stateMutability": "view",
      "type": "function"
    },
    {
      "inputs": [
        {
          "internalType": "uint256",
          "name": "_tokenId",
          "type": "uint256"
        }
      ],
      "name": "getLevel",
      "outputs": [
        {
          "internalType": "enum KinetexAmbassador.Level",
          "name": "",
          "type": "uint8"
        }
      ],
      "stateMutability": "view",
      "type": "function"
    },
    {
      "inputs": [],
      "name": "getNextTokenId",
      "outputs": [
        {
          "internalType": "uint256",
          "name": "",
          "type": "uint256"
        }
      ],
      "stateMutability": "view",
      "type": "function"
    },
    {
      "inputs": [
        {
          "internalType": "bytes32",
          "name": "role",
          "type": "bytes32"
        }
      ],
      "name": "getRoleAdmin",
      "outputs": [
        {
          "internalType": "bytes32",
          "name": "",
          "type": "bytes32"
        }
      ],
      "stateMutability": "view",
      "type": "function"
    },
    {
      "inputs": [
        {
          "internalType": "bytes32",
          "name": "role",
          "type": "bytes32"
        },
        {
          "internalType": "address",
          "name": "account",
          "type": "address"
        }
      ],
      "name": "grantRole",
      "outputs": [],
      "stateMutability": "nonpayable",
      "type": "function"
    },
    {
      "inputs": [
        {
          "internalType": "bytes32",
          "name": "role",
          "type": "bytes32"
        },
        {
          "internalType": "address",
          "name": "account",
          "type": "address"
        }
      ],
      "name": "hasRole",
      "outputs": [
        {
          "internalType": "bool",
          "name": "",
          "type": "bool"
        }
      ],
      "stateMutability": "view",
      "type": "function"
    },
    {
      "inputs": [
        {
          "internalType": "address",
          "name": "signatureManager",
          "type": "address"
        },
        {
          "internalType": "address",
          "name": "kinetexRewards",
          "type": "address"
        }
      ],
      "name": "initialize",
      "outputs": [],
      "stateMutability": "nonpayable",
      "type": "function"
    },
    {
      "inputs": [
        {
          "internalType": "address",
          "name": "owner",
          "type": "address"
        },
        {
          "internalType": "address",
          "name": "operator",
          "type": "address"
        }
      ],
      "name": "isApprovedForAll",
      "outputs": [
        {
          "internalType": "bool",
          "name": "",
          "type": "bool"
        }
      ],
      "stateMutability": "view",
      "type": "function"
    },
    {
      "inputs": [
        {
          "internalType": "uint256",
          "name": "",
          "type": "uint256"
        }
      ],
      "name": "levelId",
      "outputs": [
        {
          "internalType": "uint256",
          "name": "",
          "type": "uint256"
        }
      ],
      "stateMutability": "view",
      "type": "function"
    },
    {
      "inputs": [],
      "name": "name",
      "outputs": [
        {
          "internalType": "string",
          "name": "",
          "type": "string"
        }
      ],
      "stateMutability": "view",
      "type": "function"
    },
    {
      "inputs": [
        {
          "internalType": "uint256",
          "name": "tokenId",
          "type": "uint256"
        }
      ],
      "name": "ownerOf",
      "outputs": [
        {
          "internalType": "address",
          "name": "",
          "type": "address"
        }
      ],
      "stateMutability": "view",
      "type": "function"
    },
    {
      "inputs": [],
      "name": "proxiableUUID",
      "outputs": [
        {
          "internalType": "bytes32",
          "name": "",
          "type": "bytes32"
        }
      ],
      "stateMutability": "view",
      "type": "function"
    },
    {
      "inputs": [
        {
          "internalType": "bytes32",
          "name": "role",
          "type": "bytes32"
        },
        {
          "internalType": "address",
          "name": "account",
          "type": "address"
        }
      ],
      "name": "renounceRole",
      "outputs": [],
      "stateMutability": "nonpayable",
      "type": "function"
    },
    {
      "inputs": [
        {
          "internalType": "bytes32",
          "name": "role",
          "type": "bytes32"
        },
        {
          "internalType": "address",
          "name": "account",
          "type": "address"
        }
      ],
      "name": "revokeRole",
      "outputs": [],
      "stateMutability": "nonpayable",
      "type": "function"
    },
    {
      "inputs": [
        {
          "internalType": "address",
          "name": "_to",
          "type": "address"
        },
        {
          "internalType": "uint256",
          "name": "_level",
          "type": "uint256"
        },
        {
          "internalType": "uint256",
          "name": "_nonce",
          "type": "uint256"
        },
        {
          "internalType": "bytes",
          "name": "_signature",
          "type": "bytes"
        }
      ],
      "name": "safeMint",
      "outputs": [],
      "stateMutability": "nonpayable",
      "type": "function"
    },
    {
      "inputs": [
        {
          "internalType": "address",
          "name": "_to",
          "type": "address"
        },
        {
          "internalType": "uint256",
          "name": "_level",
          "type": "uint256"
        }
      ],
      "name": "safeMintPriveleged",
      "outputs": [],
      "stateMutability": "nonpayable",
      "type": "function"
    },
    {
      "inputs": [
        {
          "internalType": "address",
          "name": "from",
          "type": "address"
        },
        {
          "internalType": "address",
          "name": "to",
          "type": "address"
        },
        {
          "internalType": "uint256",
          "name": "tokenId",
          "type": "uint256"
        }
      ],
      "name": "safeTransferFrom",
      "outputs": [],
      "stateMutability": "nonpayable",
      "type": "function"
    },
    {
      "inputs": [
        {
          "internalType": "address",
          "name": "from",
          "type": "address"
        },
        {
          "internalType": "address",
          "name": "to",
          "type": "address"
        },
        {
          "internalType": "uint256",
          "name": "tokenId",
          "type": "uint256"
        },
        {
          "internalType": "bytes",
          "name": "data",
          "type": "bytes"
        }
      ],
      "name": "safeTransferFrom",
      "outputs": [],
      "stateMutability": "nonpayable",
      "type": "function"
    },
    {
      "inputs": [
        {
          "internalType": "address",
          "name": "operator",
          "type": "address"
        },
        {
          "internalType": "bool",
          "name": "approved",
          "type": "bool"
        }
      ],
      "name": "setApprovalForAll",
      "outputs": [],
      "stateMutability": "nonpayable",
      "type": "function"
    },
    {
      "inputs": [
        {
          "internalType": "string",
          "name": "_uri",
          "type": "string"
        }
      ],
      "name": "setBaseURI",
      "outputs": [],
      "stateMutability": "nonpayable",
      "type": "function"
    },
    {
      "inputs": [
        {
          "internalType": "bool",
          "name": "_status",
          "type": "bool"
        }
      ],
      "name": "setBurnReward",
      "outputs": [],
      "stateMutability": "nonpayable",
      "type": "function"
    },
    {
      "inputs": [
        {
          "internalType": "string",
          "name": "_uri",
          "type": "string"
        }
      ],
      "name": "setContractURI",
      "outputs": [],
      "stateMutability": "nonpayable",
      "type": "function"
    },
    {
      "inputs": [
        {
          "internalType": "uint256",
          "name": "_level",
          "type": "uint256"
        },
        {
          "internalType": "uint256",
          "name": "_supply",
          "type": "uint256"
        }
      ],
      "name": "setMaxSupplyForLevel",
      "outputs": [],
      "stateMutability": "nonpayable",
      "type": "function"
    },
    {
      "inputs": [
        {
          "internalType": "bytes4",
          "name": "interfaceId",
          "type": "bytes4"
        }
      ],
      "name": "supportsInterface",
      "outputs": [
        {
          "internalType": "bool",
          "name": "",
          "type": "bool"
        }
      ],
      "stateMutability": "view",
      "type": "function"
    },
    {
      "inputs": [],
      "name": "symbol",
      "outputs": [
        {
          "internalType": "string",
          "name": "",
          "type": "string"
        }
      ],
      "stateMutability": "view",
      "type": "function"
    },
    {
      "inputs": [
        {
          "internalType": "uint256",
          "name": "tokenId",
          "type": "uint256"
        }
      ],
      "name": "tokenURI",
      "outputs": [
        {
          "internalType": "string",
          "name": "",
          "type": "string"
        }
      ],
      "stateMutability": "view",
      "type": "function"
    },
    {
      "inputs": [
        {
          "internalType": "address",
          "name": "from",
          "type": "address"
        },
        {
          "internalType": "address",
          "name": "to",
          "type": "address"
        },
        {
          "internalType": "uint256",
          "name": "tokenId",
          "type": "uint256"
        }
      ],
      "name": "transferFrom",
      "outputs": [],
      "stateMutability": "nonpayable",
      "type": "function"
    },
    {
      "inputs": [
        {
          "internalType": "address",
          "name": "newImplementation",
          "type": "address"
        }
      ],
      "name": "upgradeTo",
      "outputs": [],
      "stateMutability": "nonpayable",
      "type": "function"
    },
    {
      "inputs": [
        {
          "internalType": "address",
          "name": "newImplementation",
          "type": "address"
        },
        {
          "internalType": "bytes",
          "name": "data",
          "type": "bytes"
        }
      ],
      "name": "upgradeToAndCall",
      "outputs": [],
      "stateMutability": "payable",
      "type": "function"
    }
  ],
  "numDeployments": 1,
  "solcInputHash": "0e0f2a8d02c3d94c30cc275c820ee969",
  "bytecode": "0x60a06040523073ffffffffffffffffffffffffffffffffffffffff1660809073ffffffffffffffffffffffffffffffffffffffff168152503480156200004457600080fd5b50620000556200005b60201b60201c565b62000206565b600060019054906101000a900460ff1615620000ae576040517f08c379a0000000000000000000000000000000000000000000000000000000008152600401620000a590620001a9565b60405180910390fd5b60ff801660008054906101000a900460ff1660ff161015620001205760ff6000806101000a81548160ff021916908360ff1602179055507f7f26b83ff96e1f2b6a682f133852f6798a09c465da95921460cefb384740249860ff604051620001179190620001e9565b60405180910390a15b565b600082825260208201905092915050565b7f496e697469616c697a61626c653a20636f6e747261637420697320696e69746960008201527f616c697a696e6700000000000000000000000000000000000000000000000000602082015250565b60006200019160278362000122565b91506200019e8262000133565b604082019050919050565b60006020820190508181036000830152620001c48162000182565b9050919050565b600060ff82169050919050565b620001e381620001cb565b82525050565b6000602082019050620002006000830184620001d8565b92915050565b608051615dbd6200023e60003960008181610d2b01528181610dba015281816113950152818161142401526114d40152615dbd6000f3fe6080604052600436106102465760003560e01c80636c0360eb11610139578063a22cb465116100b6578063caa0f92a1161007a578063caa0f92a1461089f578063d5391393146108ca578063d547741f146108f5578063e8a3d4851461091e578063e985e9c514610949578063f991cbb01461098657610246565b8063a22cb465146107a8578063a5c83dbd146107d1578063b88d4fde1461080e578063bce7ed0c14610837578063c87b56dd1461086257610246565b806391d14854116100fd57806391d14854146106c1578063938e3d7b146106fe57806395d89b41146107275780639a2aa8da14610752578063a217fddf1461077d57610246565b80636c0360eb146105c857806370a08231146105f357806373e92784146106305780637feeea1b1461065b57806386481d401461068457610246565b80633659cfe6116101c757806352d1902d1161018b57806352d1902d146104e557806355f804b3146105105780635cfa9297146105395780636352211e14610562578063646789931461059f57610246565b80633659cfe61461042557806342842e0e1461044e57806342966c6814610477578063485cc955146104a05780634f1ef286146104c957610246565b806323b872dd1161020e57806323b872dd14610342578063248a9ca31461036b578063282c51f3146103a85780632f2ff15d146103d357806336568abe146103fc57610246565b806301ffc9a71461024b57806306fdde0314610288578063081812fc146102b3578063095ea7b3146102f057806316e3846a14610319575b600080fd5b34801561025757600080fd5b50610272600480360381019061026d9190614019565b6109af565b60405161027f9190614061565b60405180910390f35b34801561029457600080fd5b5061029d6109c1565b6040516102aa9190614115565b60405180910390f35b3480156102bf57600080fd5b506102da60048036038101906102d5919061416d565b610a53565b6040516102e791906141db565b60405180910390f35b3480156102fc57600080fd5b5061031760048036038101906103129190614222565b610a99565b005b34801561032557600080fd5b50610340600480360381019061033b919061428e565b610bb1565b005b34801561034e57600080fd5b50610369600480360381019061036491906142bb565b610bdd565b005b34801561037757600080fd5b50610392600480360381019061038d9190614344565b610c3d565b60405161039f9190614380565b60405180910390f35b3480156103b457600080fd5b506103bd610c5d565b6040516103ca9190614380565b60405180910390f35b3480156103df57600080fd5b506103fa60048036038101906103f5919061439b565b610c85565b005b34801561040857600080fd5b50610423600480360381019061041e919061439b565b610ca6565b005b34801561043157600080fd5b5061044c600480360381019061044791906143db565b610d29565b005b34801561045a57600080fd5b50610475600480360381019061047091906142bb565b610eb2565b005b34801561048357600080fd5b5061049e6004803603810190610499919061416d565b610ed2565b005b3480156104ac57600080fd5b506104c760048036038101906104c29190614408565b610fef565b005b6104e360048036038101906104de919061457d565b611393565b005b3480156104f157600080fd5b506104fa6114d0565b6040516105079190614380565b60405180910390f35b34801561051c57600080fd5b5061053760048036038101906105329190614639565b611589565b005b34801561054557600080fd5b50610560600480360381019061055b91906146dc565b61162b565b005b34801561056e57600080fd5b506105896004803603810190610584919061416d565b6117ab565b60405161059691906141db565b60405180910390f35b3480156105ab57600080fd5b506105c660048036038101906105c19190614764565b611832565b005b3480156105d457600080fd5b506105dd611893565b6040516105ea9190614115565b60405180910390f35b3480156105ff57600080fd5b5061061a600480360381019061061591906143db565b611922565b60405161062791906147b3565b60405180910390f35b34801561063c57600080fd5b506106456119da565b6040516106529190614115565b60405180910390f35b34801561066757600080fd5b50610682600480360381019061067d9190614222565b611a69565b005b34801561069057600080fd5b506106ab60048036038101906106a6919061416d565b611aa6565b6040516106b89190614845565b60405180910390f35b3480156106cd57600080fd5b506106e860048036038101906106e3919061439b565b611ad1565b6040516106f59190614061565b60405180910390f35b34801561070a57600080fd5b5061072560048036038101906107209190614639565b611b3c565b005b34801561073357600080fd5b5061073c611b9a565b6040516107499190614115565b60405180910390f35b34801561075e57600080fd5b50610767611c2c565b60405161077491906147b3565b60405180910390f35b34801561078957600080fd5b50610792611c3f565b60405161079f9190614380565b60405180910390f35b3480156107b457600080fd5b506107cf60048036038101906107ca9190614860565b611c46565b005b3480156107dd57600080fd5b506107f860048036038101906107f3919061416d565b611c5c565b60405161080591906147b3565b60405180910390f35b34801561081a57600080fd5b50610835600480360381019061083091906148a0565b611c75565b005b34801561084357600080fd5b5061084c611cd7565b6040516108599190614061565b60405180910390f35b34801561086e57600080fd5b506108896004803603810190610884919061416d565b611ceb565b6040516108969190614115565b60405180910390f35b3480156108ab57600080fd5b506108b4611d53565b6040516108c191906147b3565b60405180910390f35b3480156108d657600080fd5b506108df611d65565b6040516108ec9190614380565b60405180910390f35b34801561090157600080fd5b5061091c6004803603810190610917919061439b565b611d8d565b005b34801561092a57600080fd5b50610933611dae565b6040516109409190614115565b60405180910390f35b34801561095557600080fd5b50610970600480360381019061096b9190614408565b611e41565b60405161097d9190614061565b60405180910390f35b34801561099257600080fd5b506109ad60048036038101906109a8919061416d565b611ed5565b005b60006109ba82612018565b9050919050565b6060606580546109d090614952565b80601f01602080910402602001604051908101604052809291908181526020018280546109fc90614952565b8015610a495780601f10610a1e57610100808354040283529160200191610a49565b820191906000526020600020905b815481529060010190602001808311610a2c57829003601f168201915b5050505050905090565b6000610a5e82612092565b6069600083815260200190815260200160002060009054906101000a900473ffffffffffffffffffffffffffffffffffffffff169050919050565b6000610aa4826117ab565b90508073ffffffffffffffffffffffffffffffffffffffff168373ffffffffffffffffffffffffffffffffffffffff161415610b15576040517f08c379a0000000000000000000000000000000000000000000000000000000008152600401610b0c906149f6565b60405180910390fd5b8073ffffffffffffffffffffffffffffffffffffffff16610b346120dd565b73ffffffffffffffffffffffffffffffffffffffff161480610b635750610b6281610b5d6120dd565b611e41565b5b610ba2576040517f08c379a0000000000000000000000000000000000000000000000000000000008152600401610b9990614a88565b60405180910390fd5b610bac83836120e5565b505050565b6000801b610bbe8161219e565b8161016260006101000a81548160ff0219169083151502179055505050565b610bee610be86120dd565b826121b2565b610c2d576040517f08c379a0000000000000000000000000000000000000000000000000000000008152600401610c2490614b1a565b60405180910390fd5b610c38838383612247565b505050565b600060c96000838152602001908152602001600020600101549050919050565b604051602001610c6c90614b91565b6040516020818303038152906040528051906020012081565b610c8e82610c3d565b610c978161219e565b610ca18383612541565b505050565b610cae6120dd565b73ffffffffffffffffffffffffffffffffffffffff168173ffffffffffffffffffffffffffffffffffffffff1614610d1b576040517f08c379a0000000000000000000000000000000000000000000000000000000008152600401610d1290614c18565b60405180910390fd5b610d258282612622565b5050565b7f000000000000000000000000000000000000000000000000000000000000000073ffffffffffffffffffffffffffffffffffffffff163073ffffffffffffffffffffffffffffffffffffffff161415610db8576040517f08c379a0000000000000000000000000000000000000000000000000000000008152600401610daf90614caa565b60405180910390fd5b7f000000000000000000000000000000000000000000000000000000000000000073ffffffffffffffffffffffffffffffffffffffff16610df7612704565b73ffffffffffffffffffffffffffffffffffffffff1614610e4d576040517f08c379a0000000000000000000000000000000000000000000000000000000008152600401610e4490614d3c565b60405180910390fd5b610e568161275b565b610eaf81600067ffffffffffffffff811115610e7557610e74614452565b5b6040519080825280601f01601f191660200182016040528015610ea75781602001600182028036833780820191505090505b50600061276c565b50565b610ecd83838360405180602001604052806000815250611c75565b505050565b610165600082815260200190815260200160002060006101000a81549060ff0219169055610eff816128e9565b61016260009054906101000a900460ff1615610fb55761016360009054906101000a900473ffffffffffffffffffffffffffffffffffffffff1673ffffffffffffffffffffffffffffffffffffffff16637feeea1b336ec097ce7bc90715b34b9f10000000006040518363ffffffff1660e01b8152600401610f82929190614d5c565b600060405180830381600087803b158015610f9c57600080fd5b505af1158015610fb0573d6000803e3d6000fd5b505050505b7fb90306ad06b2a6ff86ddc9327db583062895ef6540e62dc50add009db5b356eb81604051610fe491906147b3565b60405180910390a150565b60008060019054906101000a900460ff161590508080156110205750600160008054906101000a900460ff1660ff16105b8061104d575061102f30612945565b15801561104c5750600160008054906101000a900460ff1660ff16145b5b61108c576040517f08c379a000000000000000000000000000000000000000000000000000000000815260040161108390614df7565b60405180910390fd5b60016000806101000a81548160ff021916908360ff16021790555080156110c9576001600060016101000a81548160ff0219169083151502179055505b61113d6040518060400160405280601281526020017f4b696e6574657820416d6261737361646f7200000000000000000000000000008152506040518060400160405280600481526020017f4b54584100000000000000000000000000000000000000000000000000000000815250612968565b6111456129c5565b61114d612a16565b61115a6000801b33612541565b61118860405160200161116c90614e63565b6040516020818303038152906040528051906020012033612541565b6111b660405160200161119a90614b91565b6040516020818303038152906040528051906020012033612541565b8261016260016101000a81548173ffffffffffffffffffffffffffffffffffffffff021916908373ffffffffffffffffffffffffffffffffffffffff1602179055508161016360006101000a81548173ffffffffffffffffffffffffffffffffffffffff021916908373ffffffffffffffffffffffffffffffffffffffff16021790555061012c6101666000806003811115611255576112546147ce565b5b6003811115611267576112666147ce565b5b8152602001908152602001600020819055506032610166600060016003811115611294576112936147ce565b5b60038111156112a6576112a56147ce565b5b81526020019081526020016000208190555060196101666000600260038111156112d3576112d26147ce565b5b60038111156112e5576112e46147ce565b5b81526020019081526020016000208190555060036101666000600380811115611311576113106147ce565b5b6003811115611323576113226147ce565b5b815260200190815260200160002081905550801561138e5760008060016101000a81548160ff0219169083151502179055507f7f26b83ff96e1f2b6a682f133852f6798a09c465da95921460cefb384740249860016040516113859190614eca565b60405180910390a15b505050565b7f000000000000000000000000000000000000000000000000000000000000000073ffffffffffffffffffffffffffffffffffffffff163073ffffffffffffffffffffffffffffffffffffffff161415611422576040517f08c379a000000000000000000000000000000000000000000000000000000000815260040161141990614caa565b60405180910390fd5b7f000000000000000000000000000000000000000000000000000000000000000073ffffffffffffffffffffffffffffffffffffffff16611461612704565b73ffffffffffffffffffffffffffffffffffffffff16146114b7576040517f08c379a00000000000000000000000000000000000000000000000000000000081526004016114ae90614d3c565b60405180910390fd5b6114c08261275b565b6114cc8282600161276c565b5050565b60007f000000000000000000000000000000000000000000000000000000000000000073ffffffffffffffffffffffffffffffffffffffff163073ffffffffffffffffffffffffffffffffffffffff1614611560576040517f08c379a000000000000000000000000000000000000000000000000000000000815260040161155790614f57565b60405180910390fd5b7f360894a13ba1a3210667c828492db98dca3e2076cc3735a920a3ca505d382bbc60001b905090565b6000801b6115968161219e565b828261016091906115a8929190613e84565b507f6bd5c950a8d8df17f772f5af37cb3655737899cbf903264b9795592da439661c60006115d761015f612a67565b6040516115e5929190614fb2565b60405180910390a17f23c8c9488efebfd474e85a7956de6f39b17c7ab88502d42a623db2d8e382bbaa838360405161161e929190615008565b60405180910390a1505050565b600061016260019054906101000a900473ffffffffffffffffffffffffffffffffffffffff169050600115158173ffffffffffffffffffffffffffffffffffffffff166392e0a3298888888888306040518763ffffffff1660e01b815260040161169a9695949392919061506a565b60206040518083038186803b1580156116b257600080fd5b505afa1580156116c6573d6000803e3d6000fd5b505050506040513d601f19601f820116820180604052508101906116ea91906150db565b15151461172c576040517f08c379a000000000000000000000000000000000000000000000000000000000815260040161172390615154565b60405180910390fd5b8073ffffffffffffffffffffffffffffffffffffffff1663773c3fff84846040518363ffffffff1660e01b8152600401611767929190615174565b600060405180830381600087803b15801561178157600080fd5b505af1158015611795573d6000803e3d6000fd5b505050506117a38686612a75565b505050505050565b6000806117b783612c88565b9050600073ffffffffffffffffffffffffffffffffffffffff168173ffffffffffffffffffffffffffffffffffffffff161415611829576040517f08c379a0000000000000000000000000000000000000000000000000000000008152600401611820906151e4565b60405180910390fd5b80915050919050565b6000801b61183f8161219e565b816101666000856003811115611858576118576147ce565b5b600381111561186a576118696147ce565b5b600381111561187c5761187b6147ce565b5b815260200190815260200160002081905550505050565b61016080546118a190614952565b80601f01602080910402602001604051908101604052809291908181526020018280546118cd90614952565b801561191a5780601f106118ef5761010080835404028352916020019161191a565b820191906000526020600020905b8154815290600101906020018083116118fd57829003601f168201915b505050505081565b60008073ffffffffffffffffffffffffffffffffffffffff168273ffffffffffffffffffffffffffffffffffffffff161415611993576040517f08c379a000000000000000000000000000000000000000000000000000000000815260040161198a90615276565b60405180910390fd5b606860008373ffffffffffffffffffffffffffffffffffffffff1673ffffffffffffffffffffffffffffffffffffffff168152602001908152602001600020549050919050565b61016180546119e890614952565b80601f0160208091040260200160405190810160405280929190818152602001828054611a1490614952565b8015611a615780601f10611a3657610100808354040283529160200191611a61565b820191906000526020600020905b815481529060010190602001808311611a4457829003601f168201915b505050505081565b604051602001611a7890614e63565b60405160208183030381529060405280519060200120611a978161219e565b611aa18383612a75565b505050565b6000610165600083815260200190815260200160002060009054906101000a900460ff169050919050565b600060c9600084815260200190815260200160002060000160008373ffffffffffffffffffffffffffffffffffffffff1673ffffffffffffffffffffffffffffffffffffffff16815260200190815260200160002060009054906101000a900460ff16905092915050565b6000801b611b498161219e565b82826101619190611b5b929190613e84565b507f5ca9f750836b0b7efdace104f07b5c9f0df0650c0fd24f5163e99044ae36ea528383604051611b8d929190615008565b60405180910390a1505050565b606060668054611ba990614952565b80601f0160208091040260200160405190810160405280929190818152602001828054611bd590614952565b8015611c225780601f10611bf757610100808354040283529160200191611c22565b820191906000526020600020905b815481529060010190602001808311611c0557829003601f168201915b5050505050905090565b6ec097ce7bc90715b34b9f100000000081565b6000801b81565b611c58611c516120dd565b8383612cc5565b5050565b6101646020528060005260406000206000915090505481565b611c86611c806120dd565b836121b2565b611cc5576040517f08c379a0000000000000000000000000000000000000000000000000000000008152600401611cbc90614b1a565b60405180910390fd5b611cd184848484612e32565b50505050565b61016260009054906101000a900460ff1681565b6060611cf682612092565b6000611d00612e8e565b90506000815111611d205760405180602001604052806000815250611d4b565b80611d2a84612f21565b604051602001611d3b9291906152c7565b6040516020818303038152906040525b915050919050565b6000611d6061015f612a67565b905090565b604051602001611d7490614e63565b6040516020818303038152906040528051906020012081565b611d9682610c3d565b611d9f8161219e565b611da98383612622565b505050565b60606101618054611dbe90614952565b80601f0160208091040260200160405190810160405280929190818152602001828054611dea90614952565b8015611e375780601f10611e0c57610100808354040283529160200191611e37565b820191906000526020600020905b815481529060010190602001808311611e1a57829003601f168201915b5050505050905090565b6000606a60008473ffffffffffffffffffffffffffffffffffffffff1673ffffffffffffffffffffffffffffffffffffffff16815260200190815260200160002060008373ffffffffffffffffffffffffffffffffffffffff1673ffffffffffffffffffffffffffffffffffffffff16815260200190815260200160002060009054906101000a900460ff16905092915050565b604051602001611ee490614b91565b60405160208183030381529060405280519060200120611f038161219e565b6000611f0e836117ab565b9050610165600084815260200190815260200160002060006101000a81549060ff0219169055611f3d83612ff9565b61016360009054906101000a900473ffffffffffffffffffffffffffffffffffffffff1673ffffffffffffffffffffffffffffffffffffffff16637feeea1b826ec097ce7bc90715b34b9f10000000006040518363ffffffff1660e01b8152600401611faa929190614d5c565b600060405180830381600087803b158015611fc457600080fd5b505af1158015611fd8573d6000803e3d6000fd5b505050507fb90306ad06b2a6ff86ddc9327db583062895ef6540e62dc50add009db5b356eb8360405161200b91906147b3565b60405180910390a1505050565b60007f7965db0b000000000000000000000000000000000000000000000000000000007bffffffffffffffffffffffffffffffffffffffffffffffffffffffff1916827bffffffffffffffffffffffffffffffffffffffffffffffffffffffff1916148061208b575061208a82613147565b5b9050919050565b61209b81613229565b6120da576040517f08c379a00000000000000000000000000000000000000000000000000000000081526004016120d1906151e4565b60405180910390fd5b50565b600033905090565b816069600083815260200190815260200160002060006101000a81548173ffffffffffffffffffffffffffffffffffffffff021916908373ffffffffffffffffffffffffffffffffffffffff160217905550808273ffffffffffffffffffffffffffffffffffffffff16612158836117ab565b73ffffffffffffffffffffffffffffffffffffffff167f8c5be1e5ebec7d5bd14f71427d1e84f3dd0314c0f7b2291e5b200ac8c7c3b92560405160405180910390a45050565b6121af816121aa6120dd565b61326a565b50565b6000806121be836117ab565b90508073ffffffffffffffffffffffffffffffffffffffff168473ffffffffffffffffffffffffffffffffffffffff16148061220057506121ff8185611e41565b5b8061223e57508373ffffffffffffffffffffffffffffffffffffffff1661222684610a53565b73ffffffffffffffffffffffffffffffffffffffff16145b91505092915050565b8273ffffffffffffffffffffffffffffffffffffffff16612267826117ab565b73ffffffffffffffffffffffffffffffffffffffff16146122bd576040517f08c379a00000000000000000000000000000000000000000000000000000000081526004016122b49061535d565b60405180910390fd5b600073ffffffffffffffffffffffffffffffffffffffff168273ffffffffffffffffffffffffffffffffffffffff16141561232d576040517f08c379a0000000000000000000000000000000000000000000000000000000008152600401612324906153ef565b60405180910390fd5b61233a83838360016132ef565b8273ffffffffffffffffffffffffffffffffffffffff1661235a826117ab565b73ffffffffffffffffffffffffffffffffffffffff16146123b0576040517f08c379a00000000000000000000000000000000000000000000000000000000081526004016123a79061535d565b60405180910390fd5b6069600082815260200190815260200160002060006101000a81549073ffffffffffffffffffffffffffffffffffffffff02191690556001606860008573ffffffffffffffffffffffffffffffffffffffff1673ffffffffffffffffffffffffffffffffffffffff168152602001908152602001600020600082825403925050819055506001606860008473ffffffffffffffffffffffffffffffffffffffff1673ffffffffffffffffffffffffffffffffffffffff16815260200190815260200160002060008282540192505081905550816067600083815260200190815260200160002060006101000a81548173ffffffffffffffffffffffffffffffffffffffff021916908373ffffffffffffffffffffffffffffffffffffffff160217905550808273ffffffffffffffffffffffffffffffffffffffff168473ffffffffffffffffffffffffffffffffffffffff167fddf252ad1be2c89b69c2b068fc378daa952ba7f163c4a11628f55a4df523b3ef60405160405180910390a461253c83838360016132f5565b505050565b61254b8282611ad1565b61261e57600160c9600084815260200190815260200160002060000160008373ffffffffffffffffffffffffffffffffffffffff1673ffffffffffffffffffffffffffffffffffffffff16815260200190815260200160002060006101000a81548160ff0219169083151502179055506125c36120dd565b73ffffffffffffffffffffffffffffffffffffffff168173ffffffffffffffffffffffffffffffffffffffff16837f2f8788117e7eff1d82e926ec794901d17c78024a50270940304540a733656f0d60405160405180910390a45b5050565b61262c8282611ad1565b1561270057600060c9600084815260200190815260200160002060000160008373ffffffffffffffffffffffffffffffffffffffff1673ffffffffffffffffffffffffffffffffffffffff16815260200190815260200160002060006101000a81548160ff0219169083151502179055506126a56120dd565b73ffffffffffffffffffffffffffffffffffffffff168173ffffffffffffffffffffffffffffffffffffffff16837ff6391f5c32d9c69d2a47ea670b442974b53935d1edc7fd64eb21e047a839171b60405160405180910390a45b5050565b60006127327f360894a13ba1a3210667c828492db98dca3e2076cc3735a920a3ca505d382bbc60001b6132fb565b60000160009054906101000a900473ffffffffffffffffffffffffffffffffffffffff16905090565b6000801b6127688161219e565b5050565b6127987f4910fdfa16fed3260ed0e7147f7cc6da11a60208b5b9406d12a635614ffd914360001b613305565b60000160009054906101000a900460ff16156127bc576127b78361330f565b6128e4565b8273ffffffffffffffffffffffffffffffffffffffff166352d1902d6040518163ffffffff1660e01b815260040160206040518083038186803b15801561280257600080fd5b505afa92505050801561283357506040513d601f19601f820116820180604052508101906128309190615424565b60015b612872576040517f08c379a0000000000000000000000000000000000000000000000000000000008152600401612869906154c3565b60405180910390fd5b7f360894a13ba1a3210667c828492db98dca3e2076cc3735a920a3ca505d382bbc60001b81146128d7576040517f08c379a00000000000000000000000000000000000000000000000000000000081526004016128ce90615555565b60405180910390fd5b506128e38383836133c8565b5b505050565b6128fa6128f46120dd565b826121b2565b612939576040517f08c379a000000000000000000000000000000000000000000000000000000000815260040161293090614b1a565b60405180910390fd5b61294281612ff9565b50565b6000808273ffffffffffffffffffffffffffffffffffffffff163b119050919050565b600060019054906101000a900460ff166129b7576040517f08c379a00000000000000000000000000000000000000000000000000000000081526004016129ae906155e7565b60405180910390fd5b6129c182826133f4565b5050565b600060019054906101000a900460ff16612a14576040517f08c379a0000000000000000000000000000000000000000000000000000000008152600401612a0b906155e7565b60405180910390fd5b565b600060019054906101000a900460ff16612a65576040517f08c379a0000000000000000000000000000000000000000000000000000000008152600401612a5c906155e7565b60405180910390fd5b565b600081600001549050919050565b600060016101676000846003811115612a9157612a906147ce565b5b6003811115612aa357612aa26147ce565b5b6003811115612ab557612ab46147ce565b5b815260200190815260200160002054612ace9190615636565b90506101666000836003811115612ae857612ae76147ce565b5b6003811115612afa57612af96147ce565b5b6003811115612b0c57612b0b6147ce565b5b815260200190815260200160002054811115612b5d576040517f08c379a0000000000000000000000000000000000000000000000000000000008152600401612b54906156d8565b60405180910390fd5b6000612b6a61015f612a67565b9050826003811115612b7f57612b7e6147ce565b5b610165600083815260200190815260200160002060006101000a81548160ff02191690836003811115612bb557612bb46147ce565b5b0217905550612bc561015f613475565b612bcf848261348b565b7fbc4ddb52c9c61a3a738bbaefba9e77197ec2ed649fc045814492d5dc8e8bb4bd81846003811115612c0457612c036147ce565b5b604051612c129291906156f8565b60405180910390a181610164600083815260200190815260200160002081905550816101676000856003811115612c4c57612c4b6147ce565b5b6003811115612c5e57612c5d6147ce565b5b6003811115612c7057612c6f6147ce565b5b81526020019081526020016000208190555050505050565b60006067600083815260200190815260200160002060009054906101000a900473ffffffffffffffffffffffffffffffffffffffff169050919050565b8173ffffffffffffffffffffffffffffffffffffffff168373ffffffffffffffffffffffffffffffffffffffff161415612d34576040517f08c379a0000000000000000000000000000000000000000000000000000000008152600401612d2b9061576d565b60405180910390fd5b80606a60008573ffffffffffffffffffffffffffffffffffffffff1673ffffffffffffffffffffffffffffffffffffffff16815260200190815260200160002060008473ffffffffffffffffffffffffffffffffffffffff1673ffffffffffffffffffffffffffffffffffffffff16815260200190815260200160002060006101000a81548160ff0219169083151502179055508173ffffffffffffffffffffffffffffffffffffffff168373ffffffffffffffffffffffffffffffffffffffff167f17307eab39ab6107e8899845ad3d59bd9653f200f220920489ca2b5937696c3183604051612e259190614061565b60405180910390a3505050565b612e3d848484612247565b612e49848484846134a9565b612e88576040517f08c379a0000000000000000000000000000000000000000000000000000000008152600401612e7f906157ff565b60405180910390fd5b50505050565b60606101608054612e9e90614952565b80601f0160208091040260200160405190810160405280929190818152602001828054612eca90614952565b8015612f175780601f10612eec57610100808354040283529160200191612f17565b820191906000526020600020905b815481529060010190602001808311612efa57829003601f168201915b5050505050905090565b606060006001612f3084613640565b01905060008167ffffffffffffffff811115612f4f57612f4e614452565b5b6040519080825280601f01601f191660200182016040528015612f815781602001600182028036833780820191505090505b509050600082602001820190505b600115612fee578080600190039150507f3031323334353637383961626364656600000000000000000000000000000000600a86061a8153600a8581612fd857612fd761581f565b5b0494506000851415612fe957612fee565b612f8f565b819350505050919050565b6000613004826117ab565b90506130148160008460016132ef565b61301d826117ab565b90506069600083815260200190815260200160002060006101000a81549073ffffffffffffffffffffffffffffffffffffffff02191690556001606860008373ffffffffffffffffffffffffffffffffffffffff1673ffffffffffffffffffffffffffffffffffffffff168152602001908152602001600020600082825403925050819055506067600083815260200190815260200160002060006101000a81549073ffffffffffffffffffffffffffffffffffffffff021916905581600073ffffffffffffffffffffffffffffffffffffffff168273ffffffffffffffffffffffffffffffffffffffff167fddf252ad1be2c89b69c2b068fc378daa952ba7f163c4a11628f55a4df523b3ef60405160405180910390a46131438160008460016132f5565b5050565b60007f80ac58cd000000000000000000000000000000000000000000000000000000007bffffffffffffffffffffffffffffffffffffffffffffffffffffffff1916827bffffffffffffffffffffffffffffffffffffffffffffffffffffffff1916148061321257507f5b5e139f000000000000000000000000000000000000000000000000000000007bffffffffffffffffffffffffffffffffffffffffffffffffffffffff1916827bffffffffffffffffffffffffffffffffffffffffffffffffffffffff1916145b80613222575061322182613793565b5b9050919050565b60008073ffffffffffffffffffffffffffffffffffffffff1661324b83612c88565b73ffffffffffffffffffffffffffffffffffffffff1614159050919050565b6132748282611ad1565b6132eb57613281816137fd565b61328f8360001c602061382a565b6040516020016132a09291906158e6565b6040516020818303038152906040526040517f08c379a00000000000000000000000000000000000000000000000000000000081526004016132e29190614115565b60405180910390fd5b5050565b50505050565b50505050565b6000819050919050565b6000819050919050565b61331881612945565b613357576040517f08c379a000000000000000000000000000000000000000000000000000000000815260040161334e90615992565b60405180910390fd5b806133847f360894a13ba1a3210667c828492db98dca3e2076cc3735a920a3ca505d382bbc60001b6132fb565b60000160006101000a81548173ffffffffffffffffffffffffffffffffffffffff021916908373ffffffffffffffffffffffffffffffffffffffff16021790555050565b6133d183613a66565b6000825111806133de5750805b156133ef576133ed8383613ab5565b505b505050565b600060019054906101000a900460ff16613443576040517f08c379a000000000000000000000000000000000000000000000000000000000815260040161343a906155e7565b60405180910390fd5b8160659080519060200190613459929190613f0a565b508060669080519060200190613470929190613f0a565b505050565b6001816000016000828254019250508190555050565b6134a5828260405180602001604052806000815250613b99565b5050565b60006134ca8473ffffffffffffffffffffffffffffffffffffffff16612945565b15613633578373ffffffffffffffffffffffffffffffffffffffff1663150b7a026134f36120dd565b8786866040518563ffffffff1660e01b815260040161351594939291906159f6565b602060405180830381600087803b15801561352f57600080fd5b505af192505050801561356057506040513d601f19601f8201168201806040525081019061355d9190615a57565b60015b6135e3573d8060008114613590576040519150601f19603f3d011682016040523d82523d6000602084013e613595565b606091505b506000815114156135db576040517f08c379a00000000000000000000000000000000000000000000000000000000081526004016135d2906157ff565b60405180910390fd5b805181602001fd5b63150b7a0260e01b7bffffffffffffffffffffffffffffffffffffffffffffffffffffffff1916817bffffffffffffffffffffffffffffffffffffffffffffffffffffffff191614915050613638565b600190505b949350505050565b600080600090507a184f03e93ff9f4daa797ed6e38ed64bf6a1f010000000000000000831061369e577a184f03e93ff9f4daa797ed6e38ed64bf6a1f01000000000000000083816136945761369361581f565b5b0492506040810190505b6d04ee2d6d415b85acef810000000083106136db576d04ee2d6d415b85acef810000000083816136d1576136d061581f565b5b0492506020810190505b662386f26fc10000831061370a57662386f26fc100008381613700576136ff61581f565b5b0492506010810190505b6305f5e1008310613733576305f5e10083816137295761372861581f565b5b0492506008810190505b612710831061375857612710838161374e5761374d61581f565b5b0492506004810190505b6064831061377b57606483816137715761377061581f565b5b0492506002810190505b600a831061378a576001810190505b80915050919050565b60007f01ffc9a7000000000000000000000000000000000000000000000000000000007bffffffffffffffffffffffffffffffffffffffffffffffffffffffff1916827bffffffffffffffffffffffffffffffffffffffffffffffffffffffff1916149050919050565b60606138238273ffffffffffffffffffffffffffffffffffffffff16601460ff1661382a565b9050919050565b60606000600283600261383d9190615a84565b6138479190615636565b67ffffffffffffffff8111156138605761385f614452565b5b6040519080825280601f01601f1916602001820160405280156138925781602001600182028036833780820191505090505b5090507f3000000000000000000000000000000000000000000000000000000000000000816000815181106138ca576138c9615ade565b5b60200101907effffffffffffffffffffffffffffffffffffffffffffffffffffffffffffff1916908160001a9053507f78000000000000000000000000000000000000000000000000000000000000008160018151811061392e5761392d615ade565b5b60200101907effffffffffffffffffffffffffffffffffffffffffffffffffffffffffffff1916908160001a9053506000600184600261396e9190615a84565b6139789190615636565b90505b6001811115613a18577f3031323334353637383961626364656600000000000000000000000000000000600f8616601081106139ba576139b9615ade565b5b1a60f81b8282815181106139d1576139d0615ade565b5b60200101907effffffffffffffffffffffffffffffffffffffffffffffffffffffffffffff1916908160001a905350600485901c945080613a1190615b0d565b905061397b565b5060008414613a5c576040517f08c379a0000000000000000000000000000000000000000000000000000000008152600401613a5390615b83565b60405180910390fd5b8091505092915050565b613a6f8161330f565b8073ffffffffffffffffffffffffffffffffffffffff167fbc7cd75a20ee27fd9adebab32041f755214dbc6bffa90cc0225b39da2e5c2d3b60405160405180910390a250565b6060613ac083612945565b613aff576040517f08c379a0000000000000000000000000000000000000000000000000000000008152600401613af690615c15565b60405180910390fd5b6000808473ffffffffffffffffffffffffffffffffffffffff1684604051613b279190615c71565b600060405180830381855af49150503d8060008114613b62576040519150601f19603f3d011682016040523d82523d6000602084013e613b67565b606091505b5091509150613b8f8282604051806060016040528060278152602001615d6160279139613bf4565b9250505092915050565b613ba38383613c16565b613bb060008484846134a9565b613bef576040517f08c379a0000000000000000000000000000000000000000000000000000000008152600401613be6906157ff565b60405180910390fd5b505050565b60608315613c0457829050613c0f565b613c0e8383613e34565b5b9392505050565b600073ffffffffffffffffffffffffffffffffffffffff168273ffffffffffffffffffffffffffffffffffffffff161415613c86576040517f08c379a0000000000000000000000000000000000000000000000000000000008152600401613c7d90615cd4565b60405180910390fd5b613c8f81613229565b15613ccf576040517f08c379a0000000000000000000000000000000000000000000000000000000008152600401613cc690615d40565b60405180910390fd5b613cdd6000838360016132ef565b613ce681613229565b15613d26576040517f08c379a0000000000000000000000000000000000000000000000000000000008152600401613d1d90615d40565b60405180910390fd5b6001606860008473ffffffffffffffffffffffffffffffffffffffff1673ffffffffffffffffffffffffffffffffffffffff16815260200190815260200160002060008282540192505081905550816067600083815260200190815260200160002060006101000a81548173ffffffffffffffffffffffffffffffffffffffff021916908373ffffffffffffffffffffffffffffffffffffffff160217905550808273ffffffffffffffffffffffffffffffffffffffff16600073ffffffffffffffffffffffffffffffffffffffff167fddf252ad1be2c89b69c2b068fc378daa952ba7f163c4a11628f55a4df523b3ef60405160405180910390a4613e306000838360016132f5565b5050565b600082511115613e475781518083602001fd5b806040517f08c379a0000000000000000000000000000000000000000000000000000000008152600401613e7b9190614115565b60405180910390fd5b828054613e9090614952565b90600052602060002090601f016020900481019282613eb25760008555613ef9565b82601f10613ecb57803560ff1916838001178555613ef9565b82800160010185558215613ef9579182015b82811115613ef8578235825591602001919060010190613edd565b5b509050613f069190613f90565b5090565b828054613f1690614952565b90600052602060002090601f016020900481019282613f385760008555613f7f565b82601f10613f5157805160ff1916838001178555613f7f565b82800160010185558215613f7f579182015b82811115613f7e578251825591602001919060010190613f63565b5b509050613f8c9190613f90565b5090565b5b80821115613fa9576000816000905550600101613f91565b5090565b6000604051905090565b600080fd5b600080fd5b60007fffffffff0000000000000000000000000000000000000000000000000000000082169050919050565b613ff681613fc1565b811461400157600080fd5b50565b60008135905061401381613fed565b92915050565b60006020828403121561402f5761402e613fb7565b5b600061403d84828501614004565b91505092915050565b60008115159050919050565b61405b81614046565b82525050565b60006020820190506140766000830184614052565b92915050565b600081519050919050565b600082825260208201905092915050565b60005b838110156140b657808201518184015260208101905061409b565b838111156140c5576000848401525b50505050565b6000601f19601f8301169050919050565b60006140e78261407c565b6140f18185614087565b9350614101818560208601614098565b61410a816140cb565b840191505092915050565b6000602082019050818103600083015261412f81846140dc565b905092915050565b6000819050919050565b61414a81614137565b811461415557600080fd5b50565b60008135905061416781614141565b92915050565b60006020828403121561418357614182613fb7565b5b600061419184828501614158565b91505092915050565b600073ffffffffffffffffffffffffffffffffffffffff82169050919050565b60006141c58261419a565b9050919050565b6141d5816141ba565b82525050565b60006020820190506141f060008301846141cc565b92915050565b6141ff816141ba565b811461420a57600080fd5b50565b60008135905061421c816141f6565b92915050565b6000806040838503121561423957614238613fb7565b5b60006142478582860161420d565b925050602061425885828601614158565b9150509250929050565b61426b81614046565b811461427657600080fd5b50565b60008135905061428881614262565b92915050565b6000602082840312156142a4576142a3613fb7565b5b60006142b284828501614279565b91505092915050565b6000806000606084860312156142d4576142d3613fb7565b5b60006142e28682870161420d565b93505060206142f38682870161420d565b925050604061430486828701614158565b9150509250925092565b6000819050919050565b6143218161430e565b811461432c57600080fd5b50565b60008135905061433e81614318565b92915050565b60006020828403121561435a57614359613fb7565b5b60006143688482850161432f565b91505092915050565b61437a8161430e565b82525050565b60006020820190506143956000830184614371565b92915050565b600080604083850312156143b2576143b1613fb7565b5b60006143c08582860161432f565b92505060206143d18582860161420d565b9150509250929050565b6000602082840312156143f1576143f0613fb7565b5b60006143ff8482850161420d565b91505092915050565b6000806040838503121561441f5761441e613fb7565b5b600061442d8582860161420d565b925050602061443e8582860161420d565b9150509250929050565b600080fd5b600080fd5b7f4e487b7100000000000000000000000000000000000000000000000000000000600052604160045260246000fd5b61448a826140cb565b810181811067ffffffffffffffff821117156144a9576144a8614452565b5b80604052505050565b60006144bc613fad565b90506144c88282614481565b919050565b600067ffffffffffffffff8211156144e8576144e7614452565b5b6144f1826140cb565b9050602081019050919050565b82818337600083830152505050565b600061452061451b846144cd565b6144b2565b90508281526020810184848401111561453c5761453b61444d565b5b6145478482856144fe565b509392505050565b600082601f83011261456457614563614448565b5b813561457484826020860161450d565b91505092915050565b6000806040838503121561459457614593613fb7565b5b60006145a28582860161420d565b925050602083013567ffffffffffffffff8111156145c3576145c2613fbc565b5b6145cf8582860161454f565b9150509250929050565b600080fd5b600080fd5b60008083601f8401126145f9576145f8614448565b5b8235905067ffffffffffffffff811115614616576146156145d9565b5b602083019150836001820283011115614632576146316145de565b5b9250929050565b600080602083850312156146505761464f613fb7565b5b600083013567ffffffffffffffff81111561466e5761466d613fbc565b5b61467a858286016145e3565b92509250509250929050565b60008083601f84011261469c5761469b614448565b5b8235905067ffffffffffffffff8111156146b9576146b86145d9565b5b6020830191508360018202830111156146d5576146d46145de565b5b9250929050565b6000806000806000608086880312156146f8576146f7613fb7565b5b60006147068882890161420d565b955050602061471788828901614158565b945050604061472888828901614158565b935050606086013567ffffffffffffffff81111561474957614748613fbc565b5b61475588828901614686565b92509250509295509295909350565b6000806040838503121561477b5761477a613fb7565b5b600061478985828601614158565b925050602061479a85828601614158565b9150509250929050565b6147ad81614137565b82525050565b60006020820190506147c860008301846147a4565b92915050565b7f4e487b7100000000000000000000000000000000000000000000000000000000600052602160045260246000fd5b6004811061480e5761480d6147ce565b5b50565b600081905061481f826147fd565b919050565b600061482f82614811565b9050919050565b61483f81614824565b82525050565b600060208201905061485a6000830184614836565b92915050565b6000806040838503121561487757614876613fb7565b5b60006148858582860161420d565b925050602061489685828601614279565b9150509250929050565b600080600080608085870312156148ba576148b9613fb7565b5b60006148c88782880161420d565b94505060206148d98782880161420d565b93505060406148ea87828801614158565b925050606085013567ffffffffffffffff81111561490b5761490a613fbc565b5b6149178782880161454f565b91505092959194509250565b7f4e487b7100000000000000000000000000000000000000000000000000000000600052602260045260246000fd5b6000600282049050600182168061496a57607f821691505b6020821081141561497e5761497d614923565b5b50919050565b7f4552433732313a20617070726f76616c20746f2063757272656e74206f776e6560008201527f7200000000000000000000000000000000000000000000000000000000000000602082015250565b60006149e0602183614087565b91506149eb82614984565b604082019050919050565b60006020820190508181036000830152614a0f816149d3565b9050919050565b7f4552433732313a20617070726f76652063616c6c6572206973206e6f7420746f60008201527f6b656e206f776e6572206f7220617070726f76656420666f7220616c6c000000602082015250565b6000614a72603d83614087565b9150614a7d82614a16565b604082019050919050565b60006020820190508181036000830152614aa181614a65565b9050919050565b7f4552433732313a2063616c6c6572206973206e6f7420746f6b656e206f776e6560008201527f72206f7220617070726f76656400000000000000000000000000000000000000602082015250565b6000614b04602d83614087565b9150614b0f82614aa8565b604082019050919050565b60006020820190508181036000830152614b3381614af7565b9050919050565b600081905092915050565b7f4255524e45525f524f4c45000000000000000000000000000000000000000000600082015250565b6000614b7b600b83614b3a565b9150614b8682614b45565b600b82019050919050565b6000614b9c82614b6e565b9150819050919050565b7f416363657373436f6e74726f6c3a2063616e206f6e6c792072656e6f756e636560008201527f20726f6c657320666f722073656c660000000000000000000000000000000000602082015250565b6000614c02602f83614087565b9150614c0d82614ba6565b604082019050919050565b60006020820190508181036000830152614c3181614bf5565b9050919050565b7f46756e6374696f6e206d7573742062652063616c6c6564207468726f7567682060008201527f64656c656761746563616c6c0000000000000000000000000000000000000000602082015250565b6000614c94602c83614087565b9150614c9f82614c38565b604082019050919050565b60006020820190508181036000830152614cc381614c87565b9050919050565b7f46756e6374696f6e206d7573742062652063616c6c6564207468726f7567682060008201527f6163746976652070726f78790000000000000000000000000000000000000000602082015250565b6000614d26602c83614087565b9150614d3182614cca565b604082019050919050565b60006020820190508181036000830152614d5581614d19565b9050919050565b6000604082019050614d7160008301856141cc565b614d7e60208301846147a4565b9392505050565b7f496e697469616c697a61626c653a20636f6e747261637420697320616c72656160008201527f647920696e697469616c697a6564000000000000000000000000000000000000602082015250565b6000614de1602e83614087565b9150614dec82614d85565b604082019050919050565b60006020820190508181036000830152614e1081614dd4565b9050919050565b7f4d494e5445525f524f4c45000000000000000000000000000000000000000000600082015250565b6000614e4d600b83614b3a565b9150614e5882614e17565b600b82019050919050565b6000614e6e82614e40565b9150819050919050565b6000819050919050565b600060ff82169050919050565b6000819050919050565b6000614eb4614eaf614eaa84614e78565b614e8f565b614e82565b9050919050565b614ec481614e99565b82525050565b6000602082019050614edf6000830184614ebb565b92915050565b7f555550535570677261646561626c653a206d757374206e6f742062652063616c60008201527f6c6564207468726f7567682064656c656761746563616c6c0000000000000000602082015250565b6000614f41603883614087565b9150614f4c82614ee5565b604082019050919050565b60006020820190508181036000830152614f7081614f34565b9050919050565b6000819050919050565b6000614f9c614f97614f9284614f77565b614e8f565b614137565b9050919050565b614fac81614f81565b82525050565b6000604082019050614fc76000830185614fa3565b614fd460208301846147a4565b9392505050565b6000614fe78385614087565b9350614ff48385846144fe565b614ffd836140cb565b840190509392505050565b60006020820190508181036000830152615023818486614fdb565b90509392505050565b600082825260208201905092915050565b6000615049838561502c565b93506150568385846144fe565b61505f836140cb565b840190509392505050565b600060a08201905061507f60008301896141cc565b61508c60208301886147a4565b61509960408301876147a4565b81810360608301526150ac81858761503d565b90506150bb60808301846141cc565b979650505050505050565b6000815190506150d581614262565b92915050565b6000602082840312156150f1576150f0613fb7565b5b60006150ff848285016150c6565b91505092915050565b7f4b413a20497373756572207369676e6174757265206d69736d61746368000000600082015250565b600061513e601d83614087565b915061514982615108565b602082019050919050565b6000602082019050818103600083015261516d81615131565b9050919050565b6000602082019050818103600083015261518f81848661503d565b90509392505050565b7f4552433732313a20696e76616c696420746f6b656e2049440000000000000000600082015250565b60006151ce601883614087565b91506151d982615198565b602082019050919050565b600060208201905081810360008301526151fd816151c1565b9050919050565b7f4552433732313a2061646472657373207a65726f206973206e6f74206120766160008201527f6c6964206f776e65720000000000000000000000000000000000000000000000602082015250565b6000615260602983614087565b915061526b82615204565b604082019050919050565b6000602082019050818103600083015261528f81615253565b9050919050565b60006152a18261407c565b6152ab8185614b3a565b93506152bb818560208601614098565b80840191505092915050565b60006152d38285615296565b91506152df8284615296565b91508190509392505050565b7f4552433732313a207472616e736665722066726f6d20696e636f72726563742060008201527f6f776e6572000000000000000000000000000000000000000000000000000000602082015250565b6000615347602583614087565b9150615352826152eb565b604082019050919050565b600060208201905081810360008301526153768161533a565b9050919050565b7f4552433732313a207472616e7366657220746f20746865207a65726f2061646460008201527f7265737300000000000000000000000000000000000000000000000000000000602082015250565b60006153d9602483614087565b91506153e48261537d565b604082019050919050565b60006020820190508181036000830152615408816153cc565b9050919050565b60008151905061541e81614318565b92915050565b60006020828403121561543a57615439613fb7565b5b60006154488482850161540f565b91505092915050565b7f45524331393637557067726164653a206e657720696d706c656d656e7461746960008201527f6f6e206973206e6f742055555053000000000000000000000000000000000000602082015250565b60006154ad602e83614087565b91506154b882615451565b604082019050919050565b600060208201905081810360008301526154dc816154a0565b9050919050565b7f45524331393637557067726164653a20756e737570706f727465642070726f7860008201527f6961626c65555549440000000000000000000000000000000000000000000000602082015250565b600061553f602983614087565b915061554a826154e3565b604082019050919050565b6000602082019050818103600083015261556e81615532565b9050919050565b7f496e697469616c697a61626c653a20636f6e7472616374206973206e6f74206960008201527f6e697469616c697a696e67000000000000000000000000000000000000000000602082015250565b60006155d1602b83614087565b91506155dc82615575565b604082019050919050565b60006020820190508181036000830152615600816155c4565b9050919050565b7f4e487b7100000000000000000000000000000000000000000000000000000000600052601160045260246000fd5b600061564182614137565b915061564c83614137565b9250827fffffffffffffffffffffffffffffffffffffffffffffffffffffffffffffffff0382111561568157615680615607565b5b828201905092915050565b7f4b413a204c6576656c2773206d617820737570706c7920726561636865640000600082015250565b60006156c2601e83614087565b91506156cd8261568c565b602082019050919050565b600060208201905081810360008301526156f1816156b5565b9050919050565b600060408201905061570d60008301856147a4565b61571a6020830184614836565b9392505050565b7f4552433732313a20617070726f766520746f2063616c6c657200000000000000600082015250565b6000615757601983614087565b915061576282615721565b602082019050919050565b600060208201905081810360008301526157868161574a565b9050919050565b7f4552433732313a207472616e7366657220746f206e6f6e20455243373231526560008201527f63656976657220696d706c656d656e7465720000000000000000000000000000602082015250565b60006157e9603283614087565b91506157f48261578d565b604082019050919050565b60006020820190508181036000830152615818816157dc565b9050919050565b7f4e487b7100000000000000000000000000000000000000000000000000000000600052601260045260246000fd5b7f416363657373436f6e74726f6c3a206163636f756e7420000000000000000000600082015250565b6000615884601783614b3a565b915061588f8261584e565b601782019050919050565b7f206973206d697373696e6720726f6c6520000000000000000000000000000000600082015250565b60006158d0601183614b3a565b91506158db8261589a565b601182019050919050565b60006158f182615877565b91506158fd8285615296565b9150615908826158c3565b91506159148284615296565b91508190509392505050565b7f455243313936373a206e657720696d706c656d656e746174696f6e206973206e60008201527f6f74206120636f6e747261637400000000000000000000000000000000000000602082015250565b600061597c602d83614087565b915061598782615920565b604082019050919050565b600060208201905081810360008301526159ab8161596f565b9050919050565b600081519050919050565b60006159c8826159b2565b6159d2818561502c565b93506159e2818560208601614098565b6159eb816140cb565b840191505092915050565b6000608082019050615a0b60008301876141cc565b615a1860208301866141cc565b615a2560408301856147a4565b8181036060830152615a3781846159bd565b905095945050505050565b600081519050615a5181613fed565b92915050565b600060208284031215615a6d57615a6c613fb7565b5b6000615a7b84828501615a42565b91505092915050565b6000615a8f82614137565b9150615a9a83614137565b9250817fffffffffffffffffffffffffffffffffffffffffffffffffffffffffffffffff0483118215151615615ad357615ad2615607565b5b828202905092915050565b7f4e487b7100000000000000000000000000000000000000000000000000000000600052603260045260246000fd5b6000615b1882614137565b91506000821415615b2c57615b2b615607565b5b600182039050919050565b7f537472696e67733a20686578206c656e67746820696e73756666696369656e74600082015250565b6000615b6d602083614087565b9150615b7882615b37565b602082019050919050565b60006020820190508181036000830152615b9c81615b60565b9050919050565b7f416464726573733a2064656c65676174652063616c6c20746f206e6f6e2d636f60008201527f6e74726163740000000000000000000000000000000000000000000000000000602082015250565b6000615bff602683614087565b9150615c0a82615ba3565b604082019050919050565b60006020820190508181036000830152615c2e81615bf2565b9050919050565b600081905092915050565b6000615c4b826159b2565b615c558185615c35565b9350615c65818560208601614098565b80840191505092915050565b6000615c7d8284615c40565b915081905092915050565b7f4552433732313a206d696e7420746f20746865207a65726f2061646472657373600082015250565b6000615cbe602083614087565b9150615cc982615c88565b602082019050919050565b60006020820190508181036000830152615ced81615cb1565b9050919050565b7f4552433732313a20746f6b656e20616c7265616479206d696e74656400000000600082015250565b6000615d2a601c83614087565b9150615d3582615cf4565b602082019050919050565b60006020820190508181036000830152615d5981615d1d565b905091905056fe416464726573733a206c6f772d6c6576656c2064656c65676174652063616c6c206661696c6564a2646970667358221220b15ba04be5aa28b2a9baed97eab9960b864de8393751c6900e67616665ab6a4964736f6c63430008090033",
  "devdoc": {
    "author": "Kinetex Team",
    "custom:security-contact": "semkin.eth@gmail.com*",
    "events": {
      "Burn(uint256)": {
        "details": "Emitted when an nft is burned."
      },
      "Mint(uint256,uint8)": {
        "details": "Emitted when an NFT is minted."
      },
      "SetBaseURI(string)": {
        "details": "Emitted when the base_uri us updated."
      },
      "SetContractURI(string)": {
        "details": "Emitted when the contract_uri us updated."
      }
    },
    "kind": "dev",
    "methods": {
      "approve(address,uint256)": {
        "details": "See {IERC721-approve}."
      },
      "balanceOf(address)": {
        "details": "See {IERC721-balanceOf}."
      },
      "constructor": {
        "custom:oz-upgrades-unsafe-allow": "constructor"
      },
      "getApproved(uint256)": {
        "details": "See {IERC721-getApproved}."
      },
      "getLevel(uint256)": {
        "params": {
          "_tokenId": "token Id."
        }
      },
      "getNextTokenId()": {
        "details": "Can be used to retrieve total supply."
      },
      "getRoleAdmin(bytes32)": {
        "details": "Returns the admin role that controls `role`. See {grantRole} and {revokeRole}. To change a role's admin, use {_setRoleAdmin}."
      },
      "grantRole(bytes32,address)": {
        "details": "Grants `role` to `account`. If `account` had not been already granted `role`, emits a {RoleGranted} event. Requirements: - the caller must have ``role``'s admin role. May emit a {RoleGranted} event."
      },
      "hasRole(bytes32,address)": {
        "details": "Returns `true` if `account` has been granted `role`."
      },
      "initialize(address,address)": {
        "details": "Proxy initializer",
        "params": {
          "kinetexRewards": "KinetexRewards deployed instance",
          "signatureManager": "SignatureManager deployed instance"
        }
      },
      "isApprovedForAll(address,address)": {
        "details": "See {IERC721-isApprovedForAll}."
      },
      "name()": {
        "details": "See {IERC721Metadata-name}."
      },
      "ownerOf(uint256)": {
        "details": "See {IERC721-ownerOf}."
      },
      "proxiableUUID()": {
        "details": "Implementation of the ERC1822 {proxiableUUID} function. This returns the storage slot used by the implementation. It is used to validate the implementation's compatibility when performing an upgrade. IMPORTANT: A proxy pointing at a proxiable contract should not be considered proxiable itself, because this risks bricking a proxy that upgrades to it, by delegating to itself until out of gas. Thus it is critical that this function revert if invoked through a proxy. This is guaranteed by the `notDelegated` modifier."
      },
      "renounceRole(bytes32,address)": {
        "details": "Revokes `role` from the calling account. Roles are often managed via {grantRole} and {revokeRole}: this function's purpose is to provide a mechanism for accounts to lose their privileges if they are compromised (such as when a trusted device is misplaced). If the calling account had been revoked `role`, emits a {RoleRevoked} event. Requirements: - the caller must be `account`. May emit a {RoleRevoked} event."
      },
      "revokeRole(bytes32,address)": {
        "details": "Revokes `role` from `account`. If `account` had been granted `role`, emits a {RoleRevoked} event. Requirements: - the caller must have ``role``'s admin role. May emit a {RoleRevoked} event."
      },
      "safeMint(address,uint256,uint256,bytes)": {
        "details": "Needs to be granted MANAGER role on SignatureManager instance"
      },
      "safeTransferFrom(address,address,uint256)": {
        "details": "See {IERC721-safeTransferFrom}."
      },
      "safeTransferFrom(address,address,uint256,bytes)": {
        "details": "See {IERC721-safeTransferFrom}."
      },
      "setApprovalForAll(address,bool)": {
        "details": "See {IERC721-setApprovalForAll}."
      },
      "symbol()": {
        "details": "See {IERC721Metadata-symbol}."
      },
      "tokenURI(uint256)": {
        "details": "See {IERC721Metadata-tokenURI}."
      },
      "transferFrom(address,address,uint256)": {
        "details": "See {IERC721-transferFrom}."
      },
      "upgradeTo(address)": {
        "details": "Upgrade the implementation of the proxy to `newImplementation`. Calls {_authorizeUpgrade}. Emits an {Upgraded} event."
      },
      "upgradeToAndCall(address,bytes)": {
        "details": "Upgrade the implementation of the proxy to `newImplementation`, and subsequently execute the function call encoded in `data`. Calls {_authorizeUpgrade}. Emits an {Upgraded} event."
      }
    },
    "title": "Kinetex Ambassador",
    "version": 1
  },
  "userdoc": {
    "kind": "user",
    "methods": {
      "burn(uint256)": {
        "notice": "Token burn. Refer to IKinetexRewards.sol"
      },
      "burnPriveleged(uint256)": {
        "notice": "Token burn that doesn't require approval."
      },
      "contractURI()": {
        "notice": "Contract metadata"
      },
      "getLevel(uint256)": {
        "notice": "Retrieves onchain metadata."
      },
      "getNextTokenId()": {
        "notice": "Retrieves the tokenId for the next mint"
      },
      "initialize(address,address)": {
        "notice": "Initialize the contract and grant roles to the deployer"
      },
      "safeMint(address,uint256,uint256,bytes)": {
        "notice": "Mints a token if the signature is valid. Refer to IKinetexRewards.sol"
      },
      "safeMintPriveleged(address,uint256)": {
        "notice": "Mints a token if called by a priveled account. Refer to IKinetexRewards.sol"
      },
      "setBaseURI(string)": {
        "notice": "Sets the baseURI."
      },
      "setBurnReward(bool)": {
        "notice": "Toggles the mint of KinetexReward tokens to burner"
      },
      "setContractURI(string)": {
        "notice": "Sets the contractURI."
      },
      "setMaxSupplyForLevel(uint256,uint256)": {
        "notice": "Updates the max supply per level."
      },
      "supportsInterface(bytes4)": {
        "notice": "EIP165"
      }
    },
    "notice": "ERC721 Collection for Kinetex Network ambassadors.",
    "version": 1
  },
  "storageLayout": {
    "storage": [
      {
        "astId": 936,
        "contract": "contracts/ambassador/KinetexAmbassador.sol:KinetexAmbassador",
        "label": "_initialized",
        "offset": 0,
        "slot": "0",
        "type": "t_uint8"
      },
      {
        "astId": 939,
        "contract": "contracts/ambassador/KinetexAmbassador.sol:KinetexAmbassador",
        "label": "_initializing",
        "offset": 1,
        "slot": "0",
        "type": "t_bool"
      },
      {
        "astId": 2722,
        "contract": "contracts/ambassador/KinetexAmbassador.sol:KinetexAmbassador",
        "label": "__gap",
        "offset": 0,
        "slot": "1",
        "type": "t_array(t_uint256)50_storage"
      },
      {
        "astId": 3075,
        "contract": "contracts/ambassador/KinetexAmbassador.sol:KinetexAmbassador",
        "label": "__gap",
        "offset": 0,
        "slot": "51",
        "type": "t_array(t_uint256)50_storage"
      },
      {
        "astId": 1263,
        "contract": "contracts/ambassador/KinetexAmbassador.sol:KinetexAmbassador",
        "label": "_name",
        "offset": 0,
        "slot": "101",
        "type": "t_string_storage"
      },
      {
        "astId": 1265,
        "contract": "contracts/ambassador/KinetexAmbassador.sol:KinetexAmbassador",
        "label": "_symbol",
        "offset": 0,
        "slot": "102",
        "type": "t_string_storage"
      },
      {
        "astId": 1269,
        "contract": "contracts/ambassador/KinetexAmbassador.sol:KinetexAmbassador",
        "label": "_owners",
        "offset": 0,
        "slot": "103",
        "type": "t_mapping(t_uint256,t_address)"
      },
      {
        "astId": 1273,
        "contract": "contracts/ambassador/KinetexAmbassador.sol:KinetexAmbassador",
        "label": "_balances",
        "offset": 0,
        "slot": "104",
        "type": "t_mapping(t_address,t_uint256)"
      },
      {
        "astId": 1277,
        "contract": "contracts/ambassador/KinetexAmbassador.sol:KinetexAmbassador",
        "label": "_tokenApprovals",
        "offset": 0,
        "slot": "105",
        "type": "t_mapping(t_uint256,t_address)"
      },
      {
        "astId": 1283,
        "contract": "contracts/ambassador/KinetexAmbassador.sol:KinetexAmbassador",
        "label": "_operatorApprovals",
        "offset": 0,
        "slot": "106",
        "type": "t_mapping(t_address,t_mapping(t_address,t_bool))"
      },
      {
        "astId": 2185,
        "contract": "contracts/ambassador/KinetexAmbassador.sol:KinetexAmbassador",
        "label": "__gap",
        "offset": 0,
        "slot": "107",
        "type": "t_array(t_uint256)44_storage"
      },
      {
        "astId": 2369,
        "contract": "contracts/ambassador/KinetexAmbassador.sol:KinetexAmbassador",
        "label": "__gap",
        "offset": 0,
        "slot": "151",
        "type": "t_array(t_uint256)50_storage"
      },
      {
        "astId": 39,
        "contract": "contracts/ambassador/KinetexAmbassador.sol:KinetexAmbassador",
        "label": "_roles",
        "offset": 0,
        "slot": "201",
        "type": "t_mapping(t_bytes32,t_struct(RoleData)34_storage)"
      },
      {
        "astId": 334,
        "contract": "contracts/ambassador/KinetexAmbassador.sol:KinetexAmbassador",
        "label": "__gap",
        "offset": 0,
        "slot": "202",
        "type": "t_array(t_uint256)49_storage"
      },
      {
        "astId": 918,
        "contract": "contracts/ambassador/KinetexAmbassador.sol:KinetexAmbassador",
        "label": "__gap",
        "offset": 0,
        "slot": "251",
        "type": "t_array(t_uint256)50_storage"
      },
      {
        "astId": 1233,
        "contract": "contracts/ambassador/KinetexAmbassador.sol:KinetexAmbassador",
        "label": "__gap",
        "offset": 0,
        "slot": "301",
        "type": "t_array(t_uint256)50_storage"
      },
      {
        "astId": 4740,
        "contract": "contracts/ambassador/KinetexAmbassador.sol:KinetexAmbassador",
        "label": "_tokenIdCounter",
        "offset": 0,
        "slot": "351",
        "type": "t_struct(Counter)2729_storage"
      },
      {
        "astId": 4758,
        "contract": "contracts/ambassador/KinetexAmbassador.sol:KinetexAmbassador",
        "label": "baseURI",
        "offset": 0,
        "slot": "352",
        "type": "t_string_storage"
      },
      {
        "astId": 4760,
        "contract": "contracts/ambassador/KinetexAmbassador.sol:KinetexAmbassador",
        "label": "contractMetadataURI",
        "offset": 0,
        "slot": "353",
        "type": "t_string_storage"
      },
      {
        "astId": 4767,
        "contract": "contracts/ambassador/KinetexAmbassador.sol:KinetexAmbassador",
        "label": "burnRewardUnlocked",
        "offset": 0,
        "slot": "354",
        "type": "t_bool"
      },
      {
        "astId": 4769,
        "contract": "contracts/ambassador/KinetexAmbassador.sol:KinetexAmbassador",
        "label": "_signatureManager",
        "offset": 1,
        "slot": "354",
        "type": "t_address"
      },
      {
        "astId": 4771,
        "contract": "contracts/ambassador/KinetexAmbassador.sol:KinetexAmbassador",
        "label": "_kinetexRewards",
        "offset": 0,
        "slot": "355",
        "type": "t_address"
      },
      {
        "astId": 4775,
        "contract": "contracts/ambassador/KinetexAmbassador.sol:KinetexAmbassador",
        "label": "levelId",
        "offset": 0,
        "slot": "356",
        "type": "t_mapping(t_uint256,t_uint256)"
      },
      {
        "astId": 4785,
        "contract": "contracts/ambassador/KinetexAmbassador.sol:KinetexAmbassador",
        "label": "_levelByTokenId",
        "offset": 0,
        "slot": "357",
        "type": "t_mapping(t_uint256,t_enum(Level)4780)"
      },
      {
        "astId": 4790,
        "contract": "contracts/ambassador/KinetexAmbassador.sol:KinetexAmbassador",
        "label": "_maxSupplyByLevel",
        "offset": 0,
        "slot": "358",
        "type": "t_mapping(t_enum(Level)4780,t_uint256)"
      },
      {
        "astId": 4795,
        "contract": "contracts/ambassador/KinetexAmbassador.sol:KinetexAmbassador",
        "label": "_supplyByLevel",
        "offset": 0,
        "slot": "359",
        "type": "t_mapping(t_enum(Level)4780,t_uint256)"
      },
      {
        "astId": 4799,
        "contract": "contracts/ambassador/KinetexAmbassador.sol:KinetexAmbassador",
        "label": "__gap",
        "offset": 0,
        "slot": "360",
        "type": "t_array(t_uint256)89_storage"
      }
    ],
    "types": {
      "t_address": {
        "encoding": "inplace",
        "label": "address",
        "numberOfBytes": "20"
      },
      "t_array(t_uint256)44_storage": {
        "base": "t_uint256",
        "encoding": "inplace",
        "label": "uint256[44]",
        "numberOfBytes": "1408"
      },
      "t_array(t_uint256)49_storage": {
        "base": "t_uint256",
        "encoding": "inplace",
        "label": "uint256[49]",
        "numberOfBytes": "1568"
      },
      "t_array(t_uint256)50_storage": {
        "base": "t_uint256",
        "encoding": "inplace",
        "label": "uint256[50]",
        "numberOfBytes": "1600"
      },
      "t_array(t_uint256)89_storage": {
        "base": "t_uint256",
        "encoding": "inplace",
        "label": "uint256[89]",
        "numberOfBytes": "2848"
      },
      "t_bool": {
        "encoding": "inplace",
        "label": "bool",
        "numberOfBytes": "1"
      },
      "t_bytes32": {
        "encoding": "inplace",
        "label": "bytes32",
        "numberOfBytes": "32"
      },
      "t_enum(Level)4780": {
        "encoding": "inplace",
        "label": "enum KinetexAmbassador.Level",
        "numberOfBytes": "1"
      },
      "t_mapping(t_address,t_bool)": {
        "encoding": "mapping",
        "key": "t_address",
        "label": "mapping(address => bool)",
        "numberOfBytes": "32",
        "value": "t_bool"
      },
      "t_mapping(t_address,t_mapping(t_address,t_bool))": {
        "encoding": "mapping",
        "key": "t_address",
        "label": "mapping(address => mapping(address => bool))",
        "numberOfBytes": "32",
        "value": "t_mapping(t_address,t_bool)"
      },
      "t_mapping(t_address,t_uint256)": {
        "encoding": "mapping",
        "key": "t_address",
        "label": "mapping(address => uint256)",
        "numberOfBytes": "32",
        "value": "t_uint256"
      },
      "t_mapping(t_bytes32,t_struct(RoleData)34_storage)": {
        "encoding": "mapping",
        "key": "t_bytes32",
        "label": "mapping(bytes32 => struct AccessControlUpgradeable.RoleData)",
        "numberOfBytes": "32",
        "value": "t_struct(RoleData)34_storage"
      },
      "t_mapping(t_enum(Level)4780,t_uint256)": {
        "encoding": "mapping",
        "key": "t_enum(Level)4780",
        "label": "mapping(enum KinetexAmbassador.Level => uint256)",
        "numberOfBytes": "32",
        "value": "t_uint256"
      },
      "t_mapping(t_uint256,t_address)": {
        "encoding": "mapping",
        "key": "t_uint256",
        "label": "mapping(uint256 => address)",
        "numberOfBytes": "32",
        "value": "t_address"
      },
      "t_mapping(t_uint256,t_enum(Level)4780)": {
        "encoding": "mapping",
        "key": "t_uint256",
        "label": "mapping(uint256 => enum KinetexAmbassador.Level)",
        "numberOfBytes": "32",
        "value": "t_enum(Level)4780"
      },
      "t_mapping(t_uint256,t_uint256)": {
        "encoding": "mapping",
        "key": "t_uint256",
        "label": "mapping(uint256 => uint256)",
        "numberOfBytes": "32",
        "value": "t_uint256"
      },
      "t_string_storage": {
        "encoding": "bytes",
        "label": "string",
        "numberOfBytes": "32"
      },
      "t_struct(Counter)2729_storage": {
        "encoding": "inplace",
        "label": "struct CountersUpgradeable.Counter",
        "members": [
          {
            "astId": 2728,
            "contract": "contracts/ambassador/KinetexAmbassador.sol:KinetexAmbassador",
            "label": "_value",
            "offset": 0,
            "slot": "0",
            "type": "t_uint256"
          }
        ],
        "numberOfBytes": "32"
      },
      "t_struct(RoleData)34_storage": {
        "encoding": "inplace",
        "label": "struct AccessControlUpgradeable.RoleData",
        "members": [
          {
            "astId": 31,
            "contract": "contracts/ambassador/KinetexAmbassador.sol:KinetexAmbassador",
            "label": "members",
            "offset": 0,
            "slot": "0",
            "type": "t_mapping(t_address,t_bool)"
          },
          {
            "astId": 33,
            "contract": "contracts/ambassador/KinetexAmbassador.sol:KinetexAmbassador",
            "label": "adminRole",
            "offset": 0,
            "slot": "1",
            "type": "t_bytes32"
          }
        ],
        "numberOfBytes": "64"
      },
      "t_uint256": {
        "encoding": "inplace",
        "label": "uint256",
        "numberOfBytes": "32"
      },
      "t_uint8": {
        "encoding": "inplace",
        "label": "uint8",
        "numberOfBytes": "1"
      }
    }
  }
}