{
  "address": "0x8E5fC69503cE78bb3980055E6AfFdF7A2192dF27",
  "abi": [
    {
      "inputs": [],
      "stateMutability": "nonpayable",
      "type": "constructor"
    },
    {
      "anonymous": false,
      "inputs": [
        {
          "indexed": false,
          "internalType": "address",
          "name": "previousAdmin",
          "type": "address"
        },
        {
          "indexed": false,
          "internalType": "address",
          "name": "newAdmin",
          "type": "address"
        }
      ],
      "name": "AdminChanged",
      "type": "event"
    },
    {
      "anonymous": false,
      "inputs": [
        {
          "indexed": true,
          "internalType": "address",
          "name": "owner",
          "type": "address"
        },
        {
          "indexed": true,
          "internalType": "address",
          "name": "approved",
          "type": "address"
        },
        {
          "indexed": true,
          "internalType": "uint256",
          "name": "tokenId",
          "type": "uint256"
        }
      ],
      "name": "Approval",
      "type": "event"
    },
    {
      "anonymous": false,
      "inputs": [
        {
          "indexed": true,
          "internalType": "address",
          "name": "owner",
          "type": "address"
        },
        {
          "indexed": true,
          "internalType": "address",
          "name": "operator",
          "type": "address"
        },
        {
          "indexed": false,
          "internalType": "bool",
          "name": "approved",
          "type": "bool"
        }
      ],
      "name": "ApprovalForAll",
      "type": "event"
    },
    {
      "anonymous": false,
      "inputs": [
        {
          "indexed": false,
          "internalType": "uint256",
          "name": "_fromTokenId",
          "type": "uint256"
        },
        {
          "indexed": false,
          "internalType": "uint256",
          "name": "_toTokenId",
          "type": "uint256"
        }
      ],
      "name": "BatchMetadataUpdate",
      "type": "event"
    },
    {
      "anonymous": false,
      "inputs": [
        {
          "indexed": true,
          "internalType": "address",
          "name": "beacon",
          "type": "address"
        }
      ],
      "name": "BeaconUpgraded",
      "type": "event"
    },
    {
      "anonymous": false,
      "inputs": [
        {
          "indexed": false,
          "internalType": "uint256",
          "name": "tokenId",
          "type": "uint256"
        }
      ],
      "name": "Burn",
      "type": "event"
    },
    {
      "anonymous": false,
      "inputs": [
        {
          "indexed": false,
          "internalType": "uint8",
          "name": "version",
          "type": "uint8"
        }
      ],
      "name": "Initialized",
      "type": "event"
    },
    {
      "anonymous": false,
      "inputs": [
        {
          "indexed": false,
          "internalType": "uint256",
          "name": "tokenId",
          "type": "uint256"
        }
      ],
      "name": "Locked",
      "type": "event"
    },
    {
      "anonymous": false,
      "inputs": [
        {
          "indexed": false,
          "internalType": "uint256",
          "name": "_tokenId",
          "type": "uint256"
        }
      ],
      "name": "MetadataUpdate",
      "type": "event"
    },
    {
      "anonymous": false,
      "inputs": [
        {
          "indexed": false,
          "internalType": "uint256",
          "name": "tokenId",
          "type": "uint256"
        },
        {
          "components": [
            {
              "internalType": "enum RewardLevels.Level",
              "name": "level",
              "type": "uint8"
            },
            {
              "internalType": "uint256",
              "name": "dust",
              "type": "uint256"
            }
          ],
          "indexed": false,
          "internalType": "struct IKinetexRewards.Attributes",
          "name": "attributes",
          "type": "tuple"
        }
      ],
      "name": "Mint",
      "type": "event"
    },
    {
      "anonymous": false,
      "inputs": [
        {
          "indexed": true,
          "internalType": "bytes32",
          "name": "role",
          "type": "bytes32"
        },
        {
          "indexed": true,
          "internalType": "bytes32",
          "name": "previousAdminRole",
          "type": "bytes32"
        },
        {
          "indexed": true,
          "internalType": "bytes32",
          "name": "newAdminRole",
          "type": "bytes32"
        }
      ],
      "name": "RoleAdminChanged",
      "type": "event"
    },
    {
      "anonymous": false,
      "inputs": [
        {
          "indexed": true,
          "internalType": "bytes32",
          "name": "role",
          "type": "bytes32"
        },
        {
          "indexed": true,
          "internalType": "address",
          "name": "account",
          "type": "address"
        },
        {
          "indexed": true,
          "internalType": "address",
          "name": "sender",
          "type": "address"
        }
      ],
      "name": "RoleGranted",
      "type": "event"
    },
    {
      "anonymous": false,
      "inputs": [
        {
          "indexed": true,
          "internalType": "bytes32",
          "name": "role",
          "type": "bytes32"
        },
        {
          "indexed": true,
          "internalType": "address",
          "name": "account",
          "type": "address"
        },
        {
          "indexed": true,
          "internalType": "address",
          "name": "sender",
          "type": "address"
        }
      ],
      "name": "RoleRevoked",
      "type": "event"
    },
    {
      "anonymous": false,
      "inputs": [
        {
          "indexed": false,
          "internalType": "string",
          "name": "uri",
          "type": "string"
        }
      ],
      "name": "SetBaseURI",
      "type": "event"
    },
    {
      "anonymous": false,
      "inputs": [
        {
          "indexed": false,
          "internalType": "string",
          "name": "uri",
          "type": "string"
        }
      ],
      "name": "SetContractURI",
      "type": "event"
    },
    {
      "anonymous": false,
      "inputs": [
        {
          "indexed": true,
          "internalType": "address",
          "name": "from",
          "type": "address"
        },
        {
          "indexed": true,
          "internalType": "address",
          "name": "to",
          "type": "address"
        },
        {
          "indexed": true,
          "internalType": "uint256",
          "name": "tokenId",
          "type": "uint256"
        }
      ],
      "name": "Transfer",
      "type": "event"
    },
    {
      "anonymous": false,
      "inputs": [
        {
          "indexed": false,
          "internalType": "uint256",
          "name": "tokenId",
          "type": "uint256"
        }
      ],
      "name": "Unlocked",
      "type": "event"
    },
    {
      "anonymous": false,
      "inputs": [
        {
          "indexed": true,
          "internalType": "address",
          "name": "implementation",
          "type": "address"
        }
      ],
      "name": "Upgraded",
      "type": "event"
    },
    {
      "inputs": [],
      "name": "BURNER_ROLE",
      "outputs": [
        {
          "internalType": "bytes32",
          "name": "",
          "type": "bytes32"
        }
      ],
      "stateMutability": "view",
      "type": "function"
    },
    {
      "inputs": [],
      "name": "DEFAULT_ADMIN_ROLE",
      "outputs": [
        {
          "internalType": "bytes32",
          "name": "",
          "type": "bytes32"
        }
      ],
      "stateMutability": "view",
      "type": "function"
    },
    {
      "inputs": [],
      "name": "MINTER_ROLE",
      "outputs": [
        {
          "internalType": "bytes32",
          "name": "",
          "type": "bytes32"
        }
      ],
      "stateMutability": "view",
      "type": "function"
    },
    {
      "inputs": [
        {
          "internalType": "address",
          "name": "to",
          "type": "address"
        },
        {
          "internalType": "uint256",
          "name": "tokenId",
          "type": "uint256"
        }
      ],
      "name": "approve",
      "outputs": [],
      "stateMutability": "nonpayable",
      "type": "function"
    },
    {
      "inputs": [
        {
          "internalType": "address",
          "name": "owner",
          "type": "address"
        }
      ],
      "name": "balanceOf",
      "outputs": [
        {
          "internalType": "uint256",
          "name": "",
          "type": "uint256"
        }
      ],
      "stateMutability": "view",
      "type": "function"
    },
    {
      "inputs": [],
      "name": "baseURI",
      "outputs": [
        {
          "internalType": "string",
          "name": "",
          "type": "string"
        }
      ],
      "stateMutability": "view",
      "type": "function"
    },
    {
      "inputs": [
        {
          "internalType": "uint256",
          "name": "_tokenId",
          "type": "uint256"
        }
      ],
      "name": "burn",
      "outputs": [],
      "stateMutability": "nonpayable",
      "type": "function"
    },
    {
      "inputs": [
        {
          "internalType": "uint256",
          "name": "_tokenId",
          "type": "uint256"
        }
      ],
      "name": "burnPriveleged",
      "outputs": [],
      "stateMutability": "nonpayable",
      "type": "function"
    },
    {
      "inputs": [],
      "name": "contractLocked",
      "outputs": [
        {
          "internalType": "bool",
          "name": "",
          "type": "bool"
        }
      ],
      "stateMutability": "view",
      "type": "function"
    },
    {
      "inputs": [],
      "name": "contractMetadataURI",
      "outputs": [
        {
          "internalType": "string",
          "name": "",
          "type": "string"
        }
      ],
      "stateMutability": "view",
      "type": "function"
    },
    {
      "inputs": [],
      "name": "contractURI",
      "outputs": [
        {
          "internalType": "string",
          "name": "",
          "type": "string"
        }
      ],
      "stateMutability": "view",
      "type": "function"
    },
    {
      "inputs": [
        {
          "internalType": "uint256",
          "name": "tokenId",
          "type": "uint256"
        }
      ],
      "name": "getApproved",
      "outputs": [
        {
          "internalType": "address",
          "name": "",
          "type": "address"
        }
      ],
      "stateMutability": "view",
      "type": "function"
    },
    {
      "inputs": [
        {
          "internalType": "uint256",
          "name": "_tokenId",
          "type": "uint256"
        }
      ],
      "name": "getAttributes",
      "outputs": [
        {
          "components": [
            {
              "internalType": "enum RewardLevels.Level",
              "name": "level",
              "type": "uint8"
            },
            {
              "internalType": "uint256",
              "name": "dust",
              "type": "uint256"
            }
          ],
          "internalType": "struct IKinetexRewards.Attributes",
          "name": "",
          "type": "tuple"
        }
      ],
      "stateMutability": "view",
      "type": "function"
    },
    {
      "inputs": [],
      "name": "getNextTokenId",
      "outputs": [
        {
          "internalType": "uint256",
          "name": "",
          "type": "uint256"
        }
      ],
      "stateMutability": "view",
      "type": "function"
    },
    {
      "inputs": [
        {
          "internalType": "bytes32",
          "name": "role",
          "type": "bytes32"
        }
      ],
      "name": "getRoleAdmin",
      "outputs": [
        {
          "internalType": "bytes32",
          "name": "",
          "type": "bytes32"
        }
      ],
      "stateMutability": "view",
      "type": "function"
    },
    {
      "inputs": [
        {
          "internalType": "bytes32",
          "name": "role",
          "type": "bytes32"
        },
        {
          "internalType": "address",
          "name": "account",
          "type": "address"
        }
      ],
      "name": "grantRole",
      "outputs": [],
      "stateMutability": "nonpayable",
      "type": "function"
    },
    {
      "inputs": [
        {
          "internalType": "bytes32",
          "name": "role",
          "type": "bytes32"
        },
        {
          "internalType": "address",
          "name": "account",
          "type": "address"
        }
      ],
      "name": "hasRole",
      "outputs": [
        {
          "internalType": "bool",
          "name": "",
          "type": "bool"
        }
      ],
      "stateMutability": "view",
      "type": "function"
    },
    {
      "inputs": [
        {
          "internalType": "address",
          "name": "signatureManager",
          "type": "address"
        }
      ],
      "name": "initialize",
      "outputs": [],
      "stateMutability": "nonpayable",
      "type": "function"
    },
    {
      "inputs": [
        {
          "internalType": "address",
          "name": "owner",
          "type": "address"
        },
        {
          "internalType": "address",
          "name": "operator",
          "type": "address"
        }
      ],
      "name": "isApprovedForAll",
      "outputs": [
        {
          "internalType": "bool",
          "name": "",
          "type": "bool"
        }
      ],
      "stateMutability": "view",
      "type": "function"
    },
    {
      "inputs": [],
      "name": "lock",
      "outputs": [],
      "stateMutability": "nonpayable",
      "type": "function"
    },
    {
      "inputs": [
        {
          "internalType": "uint256",
          "name": "tokenId",
          "type": "uint256"
        }
      ],
      "name": "locked",
      "outputs": [
        {
          "internalType": "bool",
          "name": "",
          "type": "bool"
        }
      ],
      "stateMutability": "view",
      "type": "function"
    },
    {
      "inputs": [],
      "name": "name",
      "outputs": [
        {
          "internalType": "string",
          "name": "",
          "type": "string"
        }
      ],
      "stateMutability": "view",
      "type": "function"
    },
    {
      "inputs": [
        {
          "internalType": "uint256",
          "name": "tokenId",
          "type": "uint256"
        }
      ],
      "name": "ownerOf",
      "outputs": [
        {
          "internalType": "address",
          "name": "",
          "type": "address"
        }
      ],
      "stateMutability": "view",
      "type": "function"
    },
    {
      "inputs": [],
      "name": "proxiableUUID",
      "outputs": [
        {
          "internalType": "bytes32",
          "name": "",
          "type": "bytes32"
        }
      ],
      "stateMutability": "view",
      "type": "function"
    },
    {
      "inputs": [
        {
          "internalType": "bytes32",
          "name": "role",
          "type": "bytes32"
        },
        {
          "internalType": "address",
          "name": "account",
          "type": "address"
        }
      ],
      "name": "renounceRole",
      "outputs": [],
      "stateMutability": "nonpayable",
      "type": "function"
    },
    {
      "inputs": [
        {
          "internalType": "bytes32",
          "name": "role",
          "type": "bytes32"
        },
        {
          "internalType": "address",
          "name": "account",
          "type": "address"
        }
      ],
      "name": "revokeRole",
      "outputs": [],
      "stateMutability": "nonpayable",
      "type": "function"
    },
    {
      "inputs": [
        {
          "internalType": "address",
          "name": "_to",
          "type": "address"
        },
        {
          "internalType": "uint256",
          "name": "_dust",
          "type": "uint256"
        },
        {
          "internalType": "uint256",
          "name": "_nonce",
          "type": "uint256"
        },
        {
          "internalType": "bytes",
          "name": "_signature",
          "type": "bytes"
        }
      ],
      "name": "safeMint",
      "outputs": [],
      "stateMutability": "nonpayable",
      "type": "function"
    },
    {
      "inputs": [
        {
          "internalType": "address",
          "name": "_to",
          "type": "address"
        },
        {
          "internalType": "uint256",
          "name": "_dust",
          "type": "uint256"
        }
      ],
      "name": "safeMintPriveleged",
      "outputs": [],
      "stateMutability": "nonpayable",
      "type": "function"
    },
    {
      "inputs": [
        {
          "internalType": "address",
          "name": "from",
          "type": "address"
        },
        {
          "internalType": "address",
          "name": "to",
          "type": "address"
        },
        {
          "internalType": "uint256",
          "name": "tokenId",
          "type": "uint256"
        }
      ],
      "name": "safeTransferFrom",
      "outputs": [],
      "stateMutability": "nonpayable",
      "type": "function"
    },
    {
      "inputs": [
        {
          "internalType": "address",
          "name": "from",
          "type": "address"
        },
        {
          "internalType": "address",
          "name": "to",
          "type": "address"
        },
        {
          "internalType": "uint256",
          "name": "tokenId",
          "type": "uint256"
        },
        {
          "internalType": "bytes",
          "name": "data",
          "type": "bytes"
        }
      ],
      "name": "safeTransferFrom",
      "outputs": [],
      "stateMutability": "nonpayable",
      "type": "function"
    },
    {
      "inputs": [
        {
          "internalType": "address",
          "name": "operator",
          "type": "address"
        },
        {
          "internalType": "bool",
          "name": "approved",
          "type": "bool"
        }
      ],
      "name": "setApprovalForAll",
      "outputs": [],
      "stateMutability": "nonpayable",
      "type": "function"
    },
    {
      "inputs": [
        {
          "internalType": "string",
          "name": "_uri",
          "type": "string"
        }
      ],
      "name": "setBaseURI",
      "outputs": [],
      "stateMutability": "nonpayable",
      "type": "function"
    },
    {
      "inputs": [
        {
          "internalType": "string",
          "name": "_uri",
          "type": "string"
        }
      ],
      "name": "setContractURI",
      "outputs": [],
      "stateMutability": "nonpayable",
      "type": "function"
    },
    {
      "inputs": [
        {
          "internalType": "bytes4",
          "name": "interfaceId",
          "type": "bytes4"
        }
      ],
      "name": "supportsInterface",
      "outputs": [
        {
          "internalType": "bool",
          "name": "",
          "type": "bool"
        }
      ],
      "stateMutability": "view",
      "type": "function"
    },
    {
      "inputs": [],
      "name": "symbol",
      "outputs": [
        {
          "internalType": "string",
          "name": "",
          "type": "string"
        }
      ],
      "stateMutability": "view",
      "type": "function"
    },
    {
      "inputs": [
        {
          "internalType": "uint256",
          "name": "tokenId",
          "type": "uint256"
        }
      ],
      "name": "tokenURI",
      "outputs": [
        {
          "internalType": "string",
          "name": "",
          "type": "string"
        }
      ],
      "stateMutability": "view",
      "type": "function"
    },
    {
      "inputs": [
        {
          "internalType": "address",
          "name": "from",
          "type": "address"
        },
        {
          "internalType": "address",
          "name": "to",
          "type": "address"
        },
        {
          "internalType": "uint256",
          "name": "tokenId",
          "type": "uint256"
        }
      ],
      "name": "transferFrom",
      "outputs": [],
      "stateMutability": "nonpayable",
      "type": "function"
    },
    {
      "inputs": [],
      "name": "unlock",
      "outputs": [],
      "stateMutability": "nonpayable",
      "type": "function"
    },
    {
      "inputs": [
        {
          "internalType": "address",
          "name": "newImplementation",
          "type": "address"
        }
      ],
      "name": "upgradeTo",
      "outputs": [],
      "stateMutability": "nonpayable",
      "type": "function"
    },
    {
      "inputs": [
        {
          "internalType": "address",
          "name": "newImplementation",
          "type": "address"
        },
        {
          "internalType": "bytes",
          "name": "data",
          "type": "bytes"
        }
      ],
      "name": "upgradeToAndCall",
      "outputs": [],
      "stateMutability": "payable",
      "type": "function"
    }
  ],
  "numDeployments": 1,
  "solcInputHash": "0e0f2a8d02c3d94c30cc275c820ee969",
  "bytecode": "0x60a06040523073ffffffffffffffffffffffffffffffffffffffff1660809073ffffffffffffffffffffffffffffffffffffffff168152503480156200004457600080fd5b50620000556200005b60201b60201c565b62000206565b600060019054906101000a900460ff1615620000ae576040517f08c379a0000000000000000000000000000000000000000000000000000000008152600401620000a590620001a9565b60405180910390fd5b60ff801660008054906101000a900460ff1660ff161015620001205760ff6000806101000a81548160ff021916908360ff1602179055507f7f26b83ff96e1f2b6a682f133852f6798a09c465da95921460cefb384740249860ff604051620001179190620001e9565b60405180910390a15b565b600082825260208201905092915050565b7f496e697469616c697a61626c653a20636f6e747261637420697320696e69746960008201527f616c697a696e6700000000000000000000000000000000000000000000000000602082015250565b60006200019160278362000122565b91506200019e8262000133565b604082019050919050565b60006020820190508181036000830152620001c48162000182565b9050919050565b600060ff82169050919050565b620001e381620001cb565b82525050565b6000602082019050620002006000830184620001d8565b92915050565b608051615e396200023e60003960008181610cba01528181610d4901528181610f9d0152818161102c01526110dc0152615e396000f3fe60806040526004361061023b5760003560e01c806370a082311161012e578063b88d4fde116100ab578063d547741f1161006f578063d547741f14610884578063e8a3d485146108ad578063e985e9c5146108d8578063f83d08ba14610915578063f991cbb01461092c5761023b565b8063b88d4fde1461079f578063c4d66de8146107c8578063c87b56dd146107f1578063caa0f92a1461082e578063d5391393146108595761023b565b806395d89b41116100f257806395d89b41146106cc578063a217fddf146106f7578063a22cb46514610722578063a69df4b51461074b578063b45a3c0e146107625761023b565b806370a08231146105d557806373e92784146106125780637feeea1b1461063d57806391d1485414610666578063938e3d7b146106a35761023b565b80633659cfe6116101bc57806352d1902d1161018057806352d1902d146104f057806355f804b31461051b5780635cfa9297146105445780636352211e1461056d5780636c0360eb146105aa5761023b565b80633659cfe61461041c57806342842e0e1461044557806342966c681461046e5780634378a6e3146104975780634f1ef286146104d45761023b565b8063248a9ca311610203578063248a9ca314610337578063282c51f3146103745780632f2ff15d1461039f578063324cb3cb146103c857806336568abe146103f35761023b565b806301ffc9a71461024057806306fdde031461027d578063081812fc146102a8578063095ea7b3146102e557806323b872dd1461030e575b600080fd5b34801561024c57600080fd5b5061026760048036038101906102629190613fcc565b610955565b6040516102749190614014565b60405180910390f35b34801561028957600080fd5b50610292610967565b60405161029f91906140c8565b60405180910390f35b3480156102b457600080fd5b506102cf60048036038101906102ca9190614120565b6109f9565b6040516102dc919061418e565b60405180910390f35b3480156102f157600080fd5b5061030c600480360381019061030791906141d5565b610a3f565b005b34801561031a57600080fd5b5061033560048036038101906103309190614215565b610b57565b005b34801561034357600080fd5b5061035e6004803603810190610359919061429e565b610bb8565b60405161036b91906142da565b60405180910390f35b34801561038057600080fd5b50610389610bd8565b60405161039691906142da565b60405180910390f35b3480156103ab57600080fd5b506103c660048036038101906103c191906142f5565b610c00565b005b3480156103d457600080fd5b506103dd610c21565b6040516103ea9190614014565b60405180910390f35b3480156103ff57600080fd5b5061041a600480360381019061041591906142f5565b610c35565b005b34801561042857600080fd5b50610443600480360381019061043e9190614335565b610cb8565b005b34801561045157600080fd5b5061046c60048036038101906104679190614215565b610e41565b005b34801561047a57600080fd5b5061049560048036038101906104909190614120565b610e61565b005b3480156104a357600080fd5b506104be60048036038101906104b99190614120565b610f28565b6040516104cb9190614417565b60405180910390f35b6104ee60048036038101906104e99190614567565b610f9b565b005b3480156104fc57600080fd5b506105056110d8565b60405161051291906142da565b60405180910390f35b34801561052757600080fd5b50610542600480360381019061053d9190614623565b611191565b005b34801561055057600080fd5b5061056b600480360381019061056691906146c6565b611233565b005b34801561057957600080fd5b50610594600480360381019061058f9190614120565b6113b3565b6040516105a1919061418e565b60405180910390f35b3480156105b657600080fd5b506105bf61143a565b6040516105cc91906140c8565b60405180910390f35b3480156105e157600080fd5b506105fc60048036038101906105f79190614335565b6114c9565b604051610609919061475d565b60405180910390f35b34801561061e57600080fd5b50610627611581565b60405161063491906140c8565b60405180910390f35b34801561064957600080fd5b50610664600480360381019061065f91906141d5565b611610565b005b34801561067257600080fd5b5061068d600480360381019061068891906142f5565b61164d565b60405161069a9190614014565b60405180910390f35b3480156106af57600080fd5b506106ca60048036038101906106c59190614623565b6116b8565b005b3480156106d857600080fd5b506106e1611716565b6040516106ee91906140c8565b60405180910390f35b34801561070357600080fd5b5061070c6117a8565b60405161071991906142da565b60405180910390f35b34801561072e57600080fd5b50610749600480360381019061074491906147a4565b6117af565b005b34801561075757600080fd5b506107606117c5565b005b34801561076e57600080fd5b5061078960048036038101906107849190614120565b6118a1565b6040516107969190614014565b60405180910390f35b3480156107ab57600080fd5b506107c660048036038101906107c191906147e4565b6118fb565b005b3480156107d457600080fd5b506107ef60048036038101906107ea9190614335565b61195e565b005b3480156107fd57600080fd5b5061081860048036038101906108139190614120565b611be0565b60405161082591906140c8565b60405180910390f35b34801561083a57600080fd5b50610843611c48565b604051610850919061475d565b60405180910390f35b34801561086557600080fd5b5061086e611c5a565b60405161087b91906142da565b60405180910390f35b34801561089057600080fd5b506108ab60048036038101906108a691906142f5565b611c82565b005b3480156108b957600080fd5b506108c2611ca3565b6040516108cf91906140c8565b60405180910390f35b3480156108e457600080fd5b506108ff60048036038101906108fa9190614867565b611d36565b60405161090c9190614014565b60405180910390f35b34801561092157600080fd5b5061092a611dca565b005b34801561093857600080fd5b50610953600480360381019061094e9190614120565b611ea7565b005b600061096082611f9d565b9050919050565b606060658054610976906148d6565b80601f01602080910402602001604051908101604052809291908181526020018280546109a2906148d6565b80156109ef5780601f106109c4576101008083540402835291602001916109ef565b820191906000526020600020905b8154815290600101906020018083116109d257829003601f168201915b5050505050905090565b6000610a0482612017565b6069600083815260200190815260200160002060009054906101000a900473ffffffffffffffffffffffffffffffffffffffff169050919050565b6000610a4a826113b3565b90508073ffffffffffffffffffffffffffffffffffffffff168373ffffffffffffffffffffffffffffffffffffffff161415610abb576040517f08c379a0000000000000000000000000000000000000000000000000000000008152600401610ab29061497a565b60405180910390fd5b8073ffffffffffffffffffffffffffffffffffffffff16610ada612062565b73ffffffffffffffffffffffffffffffffffffffff161480610b095750610b0881610b03612062565b611d36565b5b610b48576040517f08c379a0000000000000000000000000000000000000000000000000000000008152600401610b3f90614a0c565b60405180910390fd5b610b52838361206a565b505050565b61016260009054906101000a900460ff1615610ba8576040517f08c379a0000000000000000000000000000000000000000000000000000000008152600401610b9f90614a78565b60405180910390fd5b610bb3838383612123565b505050565b600060c96000838152602001908152602001600020600101549050919050565b604051602001610be790614aef565b6040516020818303038152906040528051906020012081565b610c0982610bb8565b610c1281612183565b610c1c8383612197565b505050565b61016260009054906101000a900460ff1681565b610c3d612062565b73ffffffffffffffffffffffffffffffffffffffff168173ffffffffffffffffffffffffffffffffffffffff1614610caa576040517f08c379a0000000000000000000000000000000000000000000000000000000008152600401610ca190614b76565b60405180910390fd5b610cb48282612278565b5050565b7f000000000000000000000000000000000000000000000000000000000000000073ffffffffffffffffffffffffffffffffffffffff163073ffffffffffffffffffffffffffffffffffffffff161415610d47576040517f08c379a0000000000000000000000000000000000000000000000000000000008152600401610d3e90614c08565b60405180910390fd5b7f000000000000000000000000000000000000000000000000000000000000000073ffffffffffffffffffffffffffffffffffffffff16610d8661235a565b73ffffffffffffffffffffffffffffffffffffffff1614610ddc576040517f08c379a0000000000000000000000000000000000000000000000000000000008152600401610dd390614c9a565b60405180910390fd5b610de5816123b1565b610e3e81600067ffffffffffffffff811115610e0457610e0361443c565b5b6040519080825280601f01601f191660200182016040528015610e365781602001600182028036833780820191505090505b5060006123c2565b50565b610e5c838383604051806020016040528060008152506118fb565b505050565b61016260009054906101000a900460ff1615610eb2576040517f08c379a0000000000000000000000000000000000000000000000000000000008152600401610ea990614a78565b60405180910390fd5b6101636000828152602001908152602001600020600080820160006101000a81549060ff021916905560018201600090555050610eee8161253f565b7fb90306ad06b2a6ff86ddc9327db583062895ef6540e62dc50add009db5b356eb81604051610f1d919061475d565b60405180910390a150565b610f30613e0b565b61016360008381526020019081526020016000206040518060400160405290816000820160009054906101000a900460ff166003811115610f7457610f73614362565b5b6003811115610f8657610f85614362565b5b81526020016001820154815250509050919050565b7f000000000000000000000000000000000000000000000000000000000000000073ffffffffffffffffffffffffffffffffffffffff163073ffffffffffffffffffffffffffffffffffffffff16141561102a576040517f08c379a000000000000000000000000000000000000000000000000000000000815260040161102190614c08565b60405180910390fd5b7f000000000000000000000000000000000000000000000000000000000000000073ffffffffffffffffffffffffffffffffffffffff1661106961235a565b73ffffffffffffffffffffffffffffffffffffffff16146110bf576040517f08c379a00000000000000000000000000000000000000000000000000000000081526004016110b690614c9a565b60405180910390fd5b6110c8826123b1565b6110d4828260016123c2565b5050565b60007f000000000000000000000000000000000000000000000000000000000000000073ffffffffffffffffffffffffffffffffffffffff163073ffffffffffffffffffffffffffffffffffffffff1614611168576040517f08c379a000000000000000000000000000000000000000000000000000000000815260040161115f90614d2c565b60405180910390fd5b7f360894a13ba1a3210667c828492db98dca3e2076cc3735a920a3ca505d382bbc60001b905090565b6000801b61119e81612183565b828261016091906111b0929190613e37565b507f6bd5c950a8d8df17f772f5af37cb3655737899cbf903264b9795592da439661c60006111df61015f61259b565b6040516111ed929190614d91565b60405180910390a17f23c8c9488efebfd474e85a7956de6f39b17c7ab88502d42a623db2d8e382bbaa8383604051611226929190614de7565b60405180910390a1505050565b600061016260019054906101000a900473ffffffffffffffffffffffffffffffffffffffff169050600115158173ffffffffffffffffffffffffffffffffffffffff166392e0a3298888888888306040518763ffffffff1660e01b81526004016112a296959493929190614e49565b60206040518083038186803b1580156112ba57600080fd5b505afa1580156112ce573d6000803e3d6000fd5b505050506040513d601f19601f820116820180604052508101906112f29190614eba565b151514611334576040517f08c379a000000000000000000000000000000000000000000000000000000000815260040161132b90614f33565b60405180910390fd5b8073ffffffffffffffffffffffffffffffffffffffff1663773c3fff84846040518363ffffffff1660e01b815260040161136f929190614f53565b600060405180830381600087803b15801561138957600080fd5b505af115801561139d573d6000803e3d6000fd5b505050506113ab86866125a9565b505050505050565b6000806113bf836126b7565b9050600073ffffffffffffffffffffffffffffffffffffffff168173ffffffffffffffffffffffffffffffffffffffff161415611431576040517f08c379a000000000000000000000000000000000000000000000000000000000815260040161142890614fc3565b60405180910390fd5b80915050919050565b6101608054611448906148d6565b80601f0160208091040260200160405190810160405280929190818152602001828054611474906148d6565b80156114c15780601f10611496576101008083540402835291602001916114c1565b820191906000526020600020905b8154815290600101906020018083116114a457829003601f168201915b505050505081565b60008073ffffffffffffffffffffffffffffffffffffffff168273ffffffffffffffffffffffffffffffffffffffff16141561153a576040517f08c379a000000000000000000000000000000000000000000000000000000000815260040161153190615055565b60405180910390fd5b606860008373ffffffffffffffffffffffffffffffffffffffff1673ffffffffffffffffffffffffffffffffffffffff168152602001908152602001600020549050919050565b610161805461158f906148d6565b80601f01602080910402602001604051908101604052809291908181526020018280546115bb906148d6565b80156116085780601f106115dd57610100808354040283529160200191611608565b820191906000526020600020905b8154815290600101906020018083116115eb57829003601f168201915b505050505081565b60405160200161161f906150c1565b6040516020818303038152906040528051906020012061163e81612183565b61164883836125a9565b505050565b600060c9600084815260200190815260200160002060000160008373ffffffffffffffffffffffffffffffffffffffff1673ffffffffffffffffffffffffffffffffffffffff16815260200190815260200160002060009054906101000a900460ff16905092915050565b6000801b6116c581612183565b828261016191906116d7929190613e37565b507f5ca9f750836b0b7efdace104f07b5c9f0df0650c0fd24f5163e99044ae36ea528383604051611709929190614de7565b60405180910390a1505050565b606060668054611725906148d6565b80601f0160208091040260200160405190810160405280929190818152602001828054611751906148d6565b801561179e5780601f106117735761010080835404028352916020019161179e565b820191906000526020600020905b81548152906001019060200180831161178157829003601f168201915b5050505050905090565b6000801b81565b6117c16117ba612062565b83836126f4565b5050565b6000801b6117d281612183565b61016260009054906101000a900460ff16611822576040517f08c379a000000000000000000000000000000000000000000000000000000000815260040161181990615122565b60405180910390fd5b600061016260006101000a81548160ff02191690831515021790555060005b61184c61015f61259b565b81101561189d577ff27b6ce5b2f5e68ddb2fd95a8a909d4ecf1daaac270935fff052feacb24f184281604051611882919061475d565b60405180910390a1808061189590615171565b915050611841565b5050565b60008073ffffffffffffffffffffffffffffffffffffffff166118c3836113b3565b73ffffffffffffffffffffffffffffffffffffffff16141580156118f4575061016260009054906101000a900460ff165b9050919050565b61016260009054906101000a900460ff161561194c576040517f08c379a000000000000000000000000000000000000000000000000000000000815260040161194390614a78565b60405180910390fd5b61195884848484612861565b50505050565b60008060019054906101000a900460ff1615905080801561198f5750600160008054906101000a900460ff1660ff16105b806119bc575061199e306128c3565b1580156119bb5750600160008054906101000a900460ff1660ff16145b5b6119fb576040517f08c379a00000000000000000000000000000000000000000000000000000000081526004016119f29061522c565b60405180910390fd5b60016000806101000a81548160ff021916908360ff1602179055508015611a38576001600060016101000a81548160ff0219169083151502179055505b611aac6040518060400160405280600f81526020017f4b696e65746578205265776172647300000000000000000000000000000000008152506040518060400160405280600481526020017f4b545852000000000000000000000000000000000000000000000000000000008152506128e6565b611ab4612943565b611abc612994565b611ac96000801b33612197565b611af7604051602001611adb906150c1565b6040516020818303038152906040528051906020012033612197565b611b25604051602001611b0990614aef565b6040516020818303038152906040528051906020012033612197565b600161016260006101000a81548160ff0219169083151502179055508161016260016101000a81548173ffffffffffffffffffffffffffffffffffffffff021916908373ffffffffffffffffffffffffffffffffffffffff1602179055508015611bdc5760008060016101000a81548160ff0219169083151502179055507f7f26b83ff96e1f2b6a682f133852f6798a09c465da95921460cefb38474024986001604051611bd39190615294565b60405180910390a15b5050565b6060611beb82612017565b6000611bf56129e5565b90506000815111611c155760405180602001604052806000815250611c40565b80611c1f84612a78565b604051602001611c309291906152e0565b6040516020818303038152906040525b915050919050565b6000611c5561015f61259b565b905090565b604051602001611c69906150c1565b6040516020818303038152906040528051906020012081565b611c8b82610bb8565b611c9481612183565b611c9e8383612278565b505050565b60606101618054611cb3906148d6565b80601f0160208091040260200160405190810160405280929190818152602001828054611cdf906148d6565b8015611d2c5780601f10611d0157610100808354040283529160200191611d2c565b820191906000526020600020905b815481529060010190602001808311611d0f57829003601f168201915b5050505050905090565b6000606a60008473ffffffffffffffffffffffffffffffffffffffff1673ffffffffffffffffffffffffffffffffffffffff16815260200190815260200160002060008373ffffffffffffffffffffffffffffffffffffffff1673ffffffffffffffffffffffffffffffffffffffff16815260200190815260200160002060009054906101000a900460ff16905092915050565b6000801b611dd781612183565b61016260009054906101000a900460ff1615611e28576040517f08c379a0000000000000000000000000000000000000000000000000000000008152600401611e1f90615350565b60405180910390fd5b600161016260006101000a81548160ff02191690831515021790555060005b611e5261015f61259b565b811015611ea3577f032bc66be43dbccb7487781d168eb7bda224628a3b2c3388bdf69b532a3a161181604051611e88919061475d565b60405180910390a18080611e9b90615171565b915050611e47565b5050565b604051602001611eb690614aef565b60405160208183030381529060405280519060200120611ed581612183565b61016260009054906101000a900460ff1615611f26576040517f08c379a0000000000000000000000000000000000000000000000000000000008152600401611f1d90614a78565b60405180910390fd5b6101636000838152602001908152602001600020600080820160006101000a81549060ff021916905560018201600090555050611f6282612b50565b7fb90306ad06b2a6ff86ddc9327db583062895ef6540e62dc50add009db5b356eb82604051611f91919061475d565b60405180910390a15050565b60007f7965db0b000000000000000000000000000000000000000000000000000000007bffffffffffffffffffffffffffffffffffffffffffffffffffffffff1916827bffffffffffffffffffffffffffffffffffffffffffffffffffffffff19161480612010575061200f82612c9e565b5b9050919050565b61202081612d80565b61205f576040517f08c379a000000000000000000000000000000000000000000000000000000000815260040161205690614fc3565b60405180910390fd5b50565b600033905090565b816069600083815260200190815260200160002060006101000a81548173ffffffffffffffffffffffffffffffffffffffff021916908373ffffffffffffffffffffffffffffffffffffffff160217905550808273ffffffffffffffffffffffffffffffffffffffff166120dd836113b3565b73ffffffffffffffffffffffffffffffffffffffff167f8c5be1e5ebec7d5bd14f71427d1e84f3dd0314c0f7b2291e5b200ac8c7c3b92560405160405180910390a45050565b61213461212e612062565b82612dc1565b612173576040517f08c379a000000000000000000000000000000000000000000000000000000000815260040161216a906153e2565b60405180910390fd5b61217e838383612e56565b505050565b6121948161218f612062565b613150565b50565b6121a1828261164d565b61227457600160c9600084815260200190815260200160002060000160008373ffffffffffffffffffffffffffffffffffffffff1673ffffffffffffffffffffffffffffffffffffffff16815260200190815260200160002060006101000a81548160ff021916908315150217905550612219612062565b73ffffffffffffffffffffffffffffffffffffffff168173ffffffffffffffffffffffffffffffffffffffff16837f2f8788117e7eff1d82e926ec794901d17c78024a50270940304540a733656f0d60405160405180910390a45b5050565b612282828261164d565b1561235657600060c9600084815260200190815260200160002060000160008373ffffffffffffffffffffffffffffffffffffffff1673ffffffffffffffffffffffffffffffffffffffff16815260200190815260200160002060006101000a81548160ff0219169083151502179055506122fb612062565b73ffffffffffffffffffffffffffffffffffffffff168173ffffffffffffffffffffffffffffffffffffffff16837ff6391f5c32d9c69d2a47ea670b442974b53935d1edc7fd64eb21e047a839171b60405160405180910390a45b5050565b60006123887f360894a13ba1a3210667c828492db98dca3e2076cc3735a920a3ca505d382bbc60001b6131d5565b60000160009054906101000a900473ffffffffffffffffffffffffffffffffffffffff16905090565b6000801b6123be81612183565b5050565b6123ee7f4910fdfa16fed3260ed0e7147f7cc6da11a60208b5b9406d12a635614ffd914360001b6131df565b60000160009054906101000a900460ff16156124125761240d836131e9565b61253a565b8273ffffffffffffffffffffffffffffffffffffffff166352d1902d6040518163ffffffff1660e01b815260040160206040518083038186803b15801561245857600080fd5b505afa92505050801561248957506040513d601f19601f820116820180604052508101906124869190615417565b60015b6124c8576040517f08c379a00000000000000000000000000000000000000000000000000000000081526004016124bf906154b6565b60405180910390fd5b7f360894a13ba1a3210667c828492db98dca3e2076cc3735a920a3ca505d382bbc60001b811461252d576040517f08c379a000000000000000000000000000000000000000000000000000000000815260040161252490615548565b60405180910390fd5b506125398383836132a2565b5b505050565b61255061254a612062565b82612dc1565b61258f576040517f08c379a0000000000000000000000000000000000000000000000000000000008152600401612586906153e2565b60405180910390fd5b61259881612b50565b50565b600081600001549050919050565b60006125b661015f61259b565b905060006125c3836132ce565b905060405180604001604052808260038111156125e3576125e2614362565b5b815260200184815250610163600084815260200190815260200160002060008201518160000160006101000a81548160ff0219169083600381111561262b5761262a614362565b5b02179055506020820151816001015590505061264861015f613313565b6126528483613329565b7f91b5055a948b220cc7661279d3247d8cc0ef1ca630ae94343a583bcea7049ab782604051806040016040528084600381111561269257612691614362565b5b8152602001868152506040516126a9929190615568565b60405180910390a150505050565b60006067600083815260200190815260200160002060009054906101000a900473ffffffffffffffffffffffffffffffffffffffff169050919050565b8173ffffffffffffffffffffffffffffffffffffffff168373ffffffffffffffffffffffffffffffffffffffff161415612763576040517f08c379a000000000000000000000000000000000000000000000000000000000815260040161275a906155dd565b60405180910390fd5b80606a60008573ffffffffffffffffffffffffffffffffffffffff1673ffffffffffffffffffffffffffffffffffffffff16815260200190815260200160002060008473ffffffffffffffffffffffffffffffffffffffff1673ffffffffffffffffffffffffffffffffffffffff16815260200190815260200160002060006101000a81548160ff0219169083151502179055508173ffffffffffffffffffffffffffffffffffffffff168373ffffffffffffffffffffffffffffffffffffffff167f17307eab39ab6107e8899845ad3d59bd9653f200f220920489ca2b5937696c31836040516128549190614014565b60405180910390a3505050565b61287261286c612062565b83612dc1565b6128b1576040517f08c379a00000000000000000000000000000000000000000000000000000000081526004016128a8906153e2565b60405180910390fd5b6128bd84848484613347565b50505050565b6000808273ffffffffffffffffffffffffffffffffffffffff163b119050919050565b600060019054906101000a900460ff16612935576040517f08c379a000000000000000000000000000000000000000000000000000000000815260040161292c9061566f565b60405180910390fd5b61293f82826133a3565b5050565b600060019054906101000a900460ff16612992576040517f08c379a00000000000000000000000000000000000000000000000000000000081526004016129899061566f565b60405180910390fd5b565b600060019054906101000a900460ff166129e3576040517f08c379a00000000000000000000000000000000000000000000000000000000081526004016129da9061566f565b60405180910390fd5b565b606061016080546129f5906148d6565b80601f0160208091040260200160405190810160405280929190818152602001828054612a21906148d6565b8015612a6e5780601f10612a4357610100808354040283529160200191612a6e565b820191906000526020600020905b815481529060010190602001808311612a5157829003601f168201915b5050505050905090565b606060006001612a8784613424565b01905060008167ffffffffffffffff811115612aa657612aa561443c565b5b6040519080825280601f01601f191660200182016040528015612ad85781602001600182028036833780820191505090505b509050600082602001820190505b600115612b45578080600190039150507f3031323334353637383961626364656600000000000000000000000000000000600a86061a8153600a8581612b2f57612b2e61568f565b5b0494506000851415612b4057612b45565b612ae6565b819350505050919050565b6000612b5b826113b3565b9050612b6b816000846001613577565b612b74826113b3565b90506069600083815260200190815260200160002060006101000a81549073ffffffffffffffffffffffffffffffffffffffff02191690556001606860008373ffffffffffffffffffffffffffffffffffffffff1673ffffffffffffffffffffffffffffffffffffffff168152602001908152602001600020600082825403925050819055506067600083815260200190815260200160002060006101000a81549073ffffffffffffffffffffffffffffffffffffffff021916905581600073ffffffffffffffffffffffffffffffffffffffff168273ffffffffffffffffffffffffffffffffffffffff167fddf252ad1be2c89b69c2b068fc378daa952ba7f163c4a11628f55a4df523b3ef60405160405180910390a4612c9a81600084600161357d565b5050565b60007f80ac58cd000000000000000000000000000000000000000000000000000000007bffffffffffffffffffffffffffffffffffffffffffffffffffffffff1916827bffffffffffffffffffffffffffffffffffffffffffffffffffffffff19161480612d6957507f5b5e139f000000000000000000000000000000000000000000000000000000007bffffffffffffffffffffffffffffffffffffffffffffffffffffffff1916827bffffffffffffffffffffffffffffffffffffffffffffffffffffffff1916145b80612d795750612d7882613583565b5b9050919050565b60008073ffffffffffffffffffffffffffffffffffffffff16612da2836126b7565b73ffffffffffffffffffffffffffffffffffffffff1614159050919050565b600080612dcd836113b3565b90508073ffffffffffffffffffffffffffffffffffffffff168473ffffffffffffffffffffffffffffffffffffffff161480612e0f5750612e0e8185611d36565b5b80612e4d57508373ffffffffffffffffffffffffffffffffffffffff16612e35846109f9565b73ffffffffffffffffffffffffffffffffffffffff16145b91505092915050565b8273ffffffffffffffffffffffffffffffffffffffff16612e76826113b3565b73ffffffffffffffffffffffffffffffffffffffff1614612ecc576040517f08c379a0000000000000000000000000000000000000000000000000000000008152600401612ec390615730565b60405180910390fd5b600073ffffffffffffffffffffffffffffffffffffffff168273ffffffffffffffffffffffffffffffffffffffff161415612f3c576040517f08c379a0000000000000000000000000000000000000000000000000000000008152600401612f33906157c2565b60405180910390fd5b612f498383836001613577565b8273ffffffffffffffffffffffffffffffffffffffff16612f69826113b3565b73ffffffffffffffffffffffffffffffffffffffff1614612fbf576040517f08c379a0000000000000000000000000000000000000000000000000000000008152600401612fb690615730565b60405180910390fd5b6069600082815260200190815260200160002060006101000a81549073ffffffffffffffffffffffffffffffffffffffff02191690556001606860008573ffffffffffffffffffffffffffffffffffffffff1673ffffffffffffffffffffffffffffffffffffffff168152602001908152602001600020600082825403925050819055506001606860008473ffffffffffffffffffffffffffffffffffffffff1673ffffffffffffffffffffffffffffffffffffffff16815260200190815260200160002060008282540192505081905550816067600083815260200190815260200160002060006101000a81548173ffffffffffffffffffffffffffffffffffffffff021916908373ffffffffffffffffffffffffffffffffffffffff160217905550808273ffffffffffffffffffffffffffffffffffffffff168473ffffffffffffffffffffffffffffffffffffffff167fddf252ad1be2c89b69c2b068fc378daa952ba7f163c4a11628f55a4df523b3ef60405160405180910390a461314b838383600161357d565b505050565b61315a828261164d565b6131d157613167816135ed565b6131758360001c602061361a565b60405160200161318692919061587a565b6040516020818303038152906040526040517f08c379a00000000000000000000000000000000000000000000000000000000081526004016131c891906140c8565b60405180910390fd5b5050565b6000819050919050565b6000819050919050565b6131f2816128c3565b613231576040517f08c379a000000000000000000000000000000000000000000000000000000000815260040161322890615926565b60405180910390fd5b8061325e7f360894a13ba1a3210667c828492db98dca3e2076cc3735a920a3ca505d382bbc60001b6131d5565b60000160006101000a81548173ffffffffffffffffffffffffffffffffffffffff021916908373ffffffffffffffffffffffffffffffffffffffff16021790555050565b6132ab83613856565b6000825111806132b85750805b156132c9576132c783836138a5565b505b505050565b6000610bb88210156132e3576000905061330e565b6113888210156132f6576001905061330e565b612710821015613309576002905061330e565b600390505b919050565b6001816000016000828254019250508190555050565b613343828260405180602001604052806000815250613989565b5050565b613352848484612e56565b61335e848484846139e4565b61339d576040517f08c379a0000000000000000000000000000000000000000000000000000000008152600401613394906159b8565b60405180910390fd5b50505050565b600060019054906101000a900460ff166133f2576040517f08c379a00000000000000000000000000000000000000000000000000000000081526004016133e99061566f565b60405180910390fd5b8160659080519060200190613408929190613ebd565b50806066908051906020019061341f929190613ebd565b505050565b600080600090507a184f03e93ff9f4daa797ed6e38ed64bf6a1f0100000000000000008310613482577a184f03e93ff9f4daa797ed6e38ed64bf6a1f01000000000000000083816134785761347761568f565b5b0492506040810190505b6d04ee2d6d415b85acef810000000083106134bf576d04ee2d6d415b85acef810000000083816134b5576134b461568f565b5b0492506020810190505b662386f26fc1000083106134ee57662386f26fc1000083816134e4576134e361568f565b5b0492506010810190505b6305f5e1008310613517576305f5e100838161350d5761350c61568f565b5b0492506008810190505b612710831061353c5761271083816135325761353161568f565b5b0492506004810190505b6064831061355f57606483816135555761355461568f565b5b0492506002810190505b600a831061356e576001810190505b80915050919050565b50505050565b50505050565b60007f01ffc9a7000000000000000000000000000000000000000000000000000000007bffffffffffffffffffffffffffffffffffffffffffffffffffffffff1916827bffffffffffffffffffffffffffffffffffffffffffffffffffffffff1916149050919050565b60606136138273ffffffffffffffffffffffffffffffffffffffff16601460ff1661361a565b9050919050565b60606000600283600261362d91906159d8565b6136379190615a32565b67ffffffffffffffff8111156136505761364f61443c565b5b6040519080825280601f01601f1916602001820160405280156136825781602001600182028036833780820191505090505b5090507f3000000000000000000000000000000000000000000000000000000000000000816000815181106136ba576136b9615a88565b5b60200101907effffffffffffffffffffffffffffffffffffffffffffffffffffffffffffff1916908160001a9053507f78000000000000000000000000000000000000000000000000000000000000008160018151811061371e5761371d615a88565b5b60200101907effffffffffffffffffffffffffffffffffffffffffffffffffffffffffffff1916908160001a9053506000600184600261375e91906159d8565b6137689190615a32565b90505b6001811115613808577f3031323334353637383961626364656600000000000000000000000000000000600f8616601081106137aa576137a9615a88565b5b1a60f81b8282815181106137c1576137c0615a88565b5b60200101907effffffffffffffffffffffffffffffffffffffffffffffffffffffffffffff1916908160001a905350600485901c94508061380190615ab7565b905061376b565b506000841461384c576040517f08c379a000000000000000000000000000000000000000000000000000000000815260040161384390615b2d565b60405180910390fd5b8091505092915050565b61385f816131e9565b8073ffffffffffffffffffffffffffffffffffffffff167fbc7cd75a20ee27fd9adebab32041f755214dbc6bffa90cc0225b39da2e5c2d3b60405160405180910390a250565b60606138b0836128c3565b6138ef576040517f08c379a00000000000000000000000000000000000000000000000000000000081526004016138e690615bbf565b60405180910390fd5b6000808473ffffffffffffffffffffffffffffffffffffffff16846040516139179190615c26565b600060405180830381855af49150503d8060008114613952576040519150601f19603f3d011682016040523d82523d6000602084013e613957565b606091505b509150915061397f8282604051806060016040528060278152602001615ddd60279139613b7b565b9250505092915050565b6139938383613b9d565b6139a060008484846139e4565b6139df576040517f08c379a00000000000000000000000000000000000000000000000000000000081526004016139d6906159b8565b60405180910390fd5b505050565b6000613a058473ffffffffffffffffffffffffffffffffffffffff166128c3565b15613b6e578373ffffffffffffffffffffffffffffffffffffffff1663150b7a02613a2e612062565b8786866040518563ffffffff1660e01b8152600401613a509493929190615c76565b602060405180830381600087803b158015613a6a57600080fd5b505af1925050508015613a9b57506040513d601f19601f82011682018060405250810190613a989190615cd7565b60015b613b1e573d8060008114613acb576040519150601f19603f3d011682016040523d82523d6000602084013e613ad0565b606091505b50600081511415613b16576040517f08c379a0000000000000000000000000000000000000000000000000000000008152600401613b0d906159b8565b60405180910390fd5b805181602001fd5b63150b7a0260e01b7bffffffffffffffffffffffffffffffffffffffffffffffffffffffff1916817bffffffffffffffffffffffffffffffffffffffffffffffffffffffff191614915050613b73565b600190505b949350505050565b60608315613b8b57829050613b96565b613b958383613dbb565b5b9392505050565b600073ffffffffffffffffffffffffffffffffffffffff168273ffffffffffffffffffffffffffffffffffffffff161415613c0d576040517f08c379a0000000000000000000000000000000000000000000000000000000008152600401613c0490615d50565b60405180910390fd5b613c1681612d80565b15613c56576040517f08c379a0000000000000000000000000000000000000000000000000000000008152600401613c4d90615dbc565b60405180910390fd5b613c64600083836001613577565b613c6d81612d80565b15613cad576040517f08c379a0000000000000000000000000000000000000000000000000000000008152600401613ca490615dbc565b60405180910390fd5b6001606860008473ffffffffffffffffffffffffffffffffffffffff1673ffffffffffffffffffffffffffffffffffffffff16815260200190815260200160002060008282540192505081905550816067600083815260200190815260200160002060006101000a81548173ffffffffffffffffffffffffffffffffffffffff021916908373ffffffffffffffffffffffffffffffffffffffff160217905550808273ffffffffffffffffffffffffffffffffffffffff16600073ffffffffffffffffffffffffffffffffffffffff167fddf252ad1be2c89b69c2b068fc378daa952ba7f163c4a11628f55a4df523b3ef60405160405180910390a4613db760008383600161357d565b5050565b600082511115613dce5781518083602001fd5b806040517f08c379a0000000000000000000000000000000000000000000000000000000008152600401613e0291906140c8565b60405180910390fd5b604051806040016040528060006003811115613e2a57613e29614362565b5b8152602001600081525090565b828054613e43906148d6565b90600052602060002090601f016020900481019282613e655760008555613eac565b82601f10613e7e57803560ff1916838001178555613eac565b82800160010185558215613eac579182015b82811115613eab578235825591602001919060010190613e90565b5b509050613eb99190613f43565b5090565b828054613ec9906148d6565b90600052602060002090601f016020900481019282613eeb5760008555613f32565b82601f10613f0457805160ff1916838001178555613f32565b82800160010185558215613f32579182015b82811115613f31578251825591602001919060010190613f16565b5b509050613f3f9190613f43565b5090565b5b80821115613f5c576000816000905550600101613f44565b5090565b6000604051905090565b600080fd5b600080fd5b60007fffffffff0000000000000000000000000000000000000000000000000000000082169050919050565b613fa981613f74565b8114613fb457600080fd5b50565b600081359050613fc681613fa0565b92915050565b600060208284031215613fe257613fe1613f6a565b5b6000613ff084828501613fb7565b91505092915050565b60008115159050919050565b61400e81613ff9565b82525050565b60006020820190506140296000830184614005565b92915050565b600081519050919050565b600082825260208201905092915050565b60005b8381101561406957808201518184015260208101905061404e565b83811115614078576000848401525b50505050565b6000601f19601f8301169050919050565b600061409a8261402f565b6140a4818561403a565b93506140b481856020860161404b565b6140bd8161407e565b840191505092915050565b600060208201905081810360008301526140e2818461408f565b905092915050565b6000819050919050565b6140fd816140ea565b811461410857600080fd5b50565b60008135905061411a816140f4565b92915050565b60006020828403121561413657614135613f6a565b5b60006141448482850161410b565b91505092915050565b600073ffffffffffffffffffffffffffffffffffffffff82169050919050565b60006141788261414d565b9050919050565b6141888161416d565b82525050565b60006020820190506141a3600083018461417f565b92915050565b6141b28161416d565b81146141bd57600080fd5b50565b6000813590506141cf816141a9565b92915050565b600080604083850312156141ec576141eb613f6a565b5b60006141fa858286016141c0565b925050602061420b8582860161410b565b9150509250929050565b60008060006060848603121561422e5761422d613f6a565b5b600061423c868287016141c0565b935050602061424d868287016141c0565b925050604061425e8682870161410b565b9150509250925092565b6000819050919050565b61427b81614268565b811461428657600080fd5b50565b60008135905061429881614272565b92915050565b6000602082840312156142b4576142b3613f6a565b5b60006142c284828501614289565b91505092915050565b6142d481614268565b82525050565b60006020820190506142ef60008301846142cb565b92915050565b6000806040838503121561430c5761430b613f6a565b5b600061431a85828601614289565b925050602061432b858286016141c0565b9150509250929050565b60006020828403121561434b5761434a613f6a565b5b6000614359848285016141c0565b91505092915050565b7f4e487b7100000000000000000000000000000000000000000000000000000000600052602160045260246000fd5b600481106143a2576143a1614362565b5b50565b60008190506143b382614391565b919050565b60006143c3826143a5565b9050919050565b6143d3816143b8565b82525050565b6143e2816140ea565b82525050565b6040820160008201516143fe60008501826143ca565b50602082015161441160208501826143d9565b50505050565b600060408201905061442c60008301846143e8565b92915050565b600080fd5b600080fd5b7f4e487b7100000000000000000000000000000000000000000000000000000000600052604160045260246000fd5b6144748261407e565b810181811067ffffffffffffffff821117156144935761449261443c565b5b80604052505050565b60006144a6613f60565b90506144b2828261446b565b919050565b600067ffffffffffffffff8211156144d2576144d161443c565b5b6144db8261407e565b9050602081019050919050565b82818337600083830152505050565b600061450a614505846144b7565b61449c565b90508281526020810184848401111561452657614525614437565b5b6145318482856144e8565b509392505050565b600082601f83011261454e5761454d614432565b5b813561455e8482602086016144f7565b91505092915050565b6000806040838503121561457e5761457d613f6a565b5b600061458c858286016141c0565b925050602083013567ffffffffffffffff8111156145ad576145ac613f6f565b5b6145b985828601614539565b9150509250929050565b600080fd5b600080fd5b60008083601f8401126145e3576145e2614432565b5b8235905067ffffffffffffffff811115614600576145ff6145c3565b5b60208301915083600182028301111561461c5761461b6145c8565b5b9250929050565b6000806020838503121561463a57614639613f6a565b5b600083013567ffffffffffffffff81111561465857614657613f6f565b5b614664858286016145cd565b92509250509250929050565b60008083601f84011261468657614685614432565b5b8235905067ffffffffffffffff8111156146a3576146a26145c3565b5b6020830191508360018202830111156146bf576146be6145c8565b5b9250929050565b6000806000806000608086880312156146e2576146e1613f6a565b5b60006146f0888289016141c0565b95505060206147018882890161410b565b94505060406147128882890161410b565b935050606086013567ffffffffffffffff81111561473357614732613f6f565b5b61473f88828901614670565b92509250509295509295909350565b614757816140ea565b82525050565b6000602082019050614772600083018461474e565b92915050565b61478181613ff9565b811461478c57600080fd5b50565b60008135905061479e81614778565b92915050565b600080604083850312156147bb576147ba613f6a565b5b60006147c9858286016141c0565b92505060206147da8582860161478f565b9150509250929050565b600080600080608085870312156147fe576147fd613f6a565b5b600061480c878288016141c0565b945050602061481d878288016141c0565b935050604061482e8782880161410b565b925050606085013567ffffffffffffffff81111561484f5761484e613f6f565b5b61485b87828801614539565b91505092959194509250565b6000806040838503121561487e5761487d613f6a565b5b600061488c858286016141c0565b925050602061489d858286016141c0565b9150509250929050565b7f4e487b7100000000000000000000000000000000000000000000000000000000600052602260045260246000fd5b600060028204905060018216806148ee57607f821691505b60208210811415614902576149016148a7565b5b50919050565b7f4552433732313a20617070726f76616c20746f2063757272656e74206f776e6560008201527f7200000000000000000000000000000000000000000000000000000000000000602082015250565b600061496460218361403a565b915061496f82614908565b604082019050919050565b6000602082019050818103600083015261499381614957565b9050919050565b7f4552433732313a20617070726f76652063616c6c6572206973206e6f7420746f60008201527f6b656e206f776e6572206f7220617070726f76656420666f7220616c6c000000602082015250565b60006149f6603d8361403a565b9150614a018261499a565b604082019050919050565b60006020820190508181036000830152614a25816149e9565b9050919050565b7f4b523a20546f6b656e732061726520736f756c626f756e640000000000000000600082015250565b6000614a6260188361403a565b9150614a6d82614a2c565b602082019050919050565b60006020820190508181036000830152614a9181614a55565b9050919050565b600081905092915050565b7f4255524e45525f524f4c45000000000000000000000000000000000000000000600082015250565b6000614ad9600b83614a98565b9150614ae482614aa3565b600b82019050919050565b6000614afa82614acc565b9150819050919050565b7f416363657373436f6e74726f6c3a2063616e206f6e6c792072656e6f756e636560008201527f20726f6c657320666f722073656c660000000000000000000000000000000000602082015250565b6000614b60602f8361403a565b9150614b6b82614b04565b604082019050919050565b60006020820190508181036000830152614b8f81614b53565b9050919050565b7f46756e6374696f6e206d7573742062652063616c6c6564207468726f7567682060008201527f64656c656761746563616c6c0000000000000000000000000000000000000000602082015250565b6000614bf2602c8361403a565b9150614bfd82614b96565b604082019050919050565b60006020820190508181036000830152614c2181614be5565b9050919050565b7f46756e6374696f6e206d7573742062652063616c6c6564207468726f7567682060008201527f6163746976652070726f78790000000000000000000000000000000000000000602082015250565b6000614c84602c8361403a565b9150614c8f82614c28565b604082019050919050565b60006020820190508181036000830152614cb381614c77565b9050919050565b7f555550535570677261646561626c653a206d757374206e6f742062652063616c60008201527f6c6564207468726f7567682064656c656761746563616c6c0000000000000000602082015250565b6000614d1660388361403a565b9150614d2182614cba565b604082019050919050565b60006020820190508181036000830152614d4581614d09565b9050919050565b6000819050919050565b6000819050919050565b6000614d7b614d76614d7184614d4c565b614d56565b6140ea565b9050919050565b614d8b81614d60565b82525050565b6000604082019050614da66000830185614d82565b614db3602083018461474e565b9392505050565b6000614dc6838561403a565b9350614dd38385846144e8565b614ddc8361407e565b840190509392505050565b60006020820190508181036000830152614e02818486614dba565b90509392505050565b600082825260208201905092915050565b6000614e288385614e0b565b9350614e358385846144e8565b614e3e8361407e565b840190509392505050565b600060a082019050614e5e600083018961417f565b614e6b602083018861474e565b614e78604083018761474e565b8181036060830152614e8b818587614e1c565b9050614e9a608083018461417f565b979650505050505050565b600081519050614eb481614778565b92915050565b600060208284031215614ed057614ecf613f6a565b5b6000614ede84828501614ea5565b91505092915050565b7f4b523a20497373756572207369676e6174757265206d69736d61746368000000600082015250565b6000614f1d601d8361403a565b9150614f2882614ee7565b602082019050919050565b60006020820190508181036000830152614f4c81614f10565b9050919050565b60006020820190508181036000830152614f6e818486614e1c565b90509392505050565b7f4552433732313a20696e76616c696420746f6b656e2049440000000000000000600082015250565b6000614fad60188361403a565b9150614fb882614f77565b602082019050919050565b60006020820190508181036000830152614fdc81614fa0565b9050919050565b7f4552433732313a2061646472657373207a65726f206973206e6f74206120766160008201527f6c6964206f776e65720000000000000000000000000000000000000000000000602082015250565b600061503f60298361403a565b915061504a82614fe3565b604082019050919050565b6000602082019050818103600083015261506e81615032565b9050919050565b7f4d494e5445525f524f4c45000000000000000000000000000000000000000000600082015250565b60006150ab600b83614a98565b91506150b682615075565b600b82019050919050565b60006150cc8261509e565b9150819050919050565b7f4b523a20636f6e747261637420616c726561647920756e6c6f636b6564000000600082015250565b600061510c601d8361403a565b9150615117826150d6565b602082019050919050565b6000602082019050818103600083015261513b816150ff565b9050919050565b7f4e487b7100000000000000000000000000000000000000000000000000000000600052601160045260246000fd5b600061517c826140ea565b91507fffffffffffffffffffffffffffffffffffffffffffffffffffffffffffffffff8214156151af576151ae615142565b5b600182019050919050565b7f496e697469616c697a61626c653a20636f6e747261637420697320616c72656160008201527f647920696e697469616c697a6564000000000000000000000000000000000000602082015250565b6000615216602e8361403a565b9150615221826151ba565b604082019050919050565b6000602082019050818103600083015261524581615209565b9050919050565b6000819050919050565b600060ff82169050919050565b600061527e6152796152748461524c565b614d56565b615256565b9050919050565b61528e81615263565b82525050565b60006020820190506152a96000830184615285565b92915050565b60006152ba8261402f565b6152c48185614a98565b93506152d481856020860161404b565b80840191505092915050565b60006152ec82856152af565b91506152f882846152af565b91508190509392505050565b7f4b523a20636f6e747261637420616c7265616479206c6f636b65640000000000600082015250565b600061533a601b8361403a565b915061534582615304565b602082019050919050565b600060208201905081810360008301526153698161532d565b9050919050565b7f4552433732313a2063616c6c6572206973206e6f7420746f6b656e206f776e6560008201527f72206f7220617070726f76656400000000000000000000000000000000000000602082015250565b60006153cc602d8361403a565b91506153d782615370565b604082019050919050565b600060208201905081810360008301526153fb816153bf565b9050919050565b60008151905061541181614272565b92915050565b60006020828403121561542d5761542c613f6a565b5b600061543b84828501615402565b91505092915050565b7f45524331393637557067726164653a206e657720696d706c656d656e7461746960008201527f6f6e206973206e6f742055555053000000000000000000000000000000000000602082015250565b60006154a0602e8361403a565b91506154ab82615444565b604082019050919050565b600060208201905081810360008301526154cf81615493565b9050919050565b7f45524331393637557067726164653a20756e737570706f727465642070726f7860008201527f6961626c65555549440000000000000000000000000000000000000000000000602082015250565b600061553260298361403a565b915061553d826154d6565b604082019050919050565b6000602082019050818103600083015261556181615525565b9050919050565b600060608201905061557d600083018561474e565b61558a60208301846143e8565b9392505050565b7f4552433732313a20617070726f766520746f2063616c6c657200000000000000600082015250565b60006155c760198361403a565b91506155d282615591565b602082019050919050565b600060208201905081810360008301526155f6816155ba565b9050919050565b7f496e697469616c697a61626c653a20636f6e7472616374206973206e6f74206960008201527f6e697469616c697a696e67000000000000000000000000000000000000000000602082015250565b6000615659602b8361403a565b9150615664826155fd565b604082019050919050565b600060208201905081810360008301526156888161564c565b9050919050565b7f4e487b7100000000000000000000000000000000000000000000000000000000600052601260045260246000fd5b7f4552433732313a207472616e736665722066726f6d20696e636f72726563742060008201527f6f776e6572000000000000000000000000000000000000000000000000000000602082015250565b600061571a60258361403a565b9150615725826156be565b604082019050919050565b600060208201905081810360008301526157498161570d565b9050919050565b7f4552433732313a207472616e7366657220746f20746865207a65726f2061646460008201527f7265737300000000000000000000000000000000000000000000000000000000602082015250565b60006157ac60248361403a565b91506157b782615750565b604082019050919050565b600060208201905081810360008301526157db8161579f565b9050919050565b7f416363657373436f6e74726f6c3a206163636f756e7420000000000000000000600082015250565b6000615818601783614a98565b9150615823826157e2565b601782019050919050565b7f206973206d697373696e6720726f6c6520000000000000000000000000000000600082015250565b6000615864601183614a98565b915061586f8261582e565b601182019050919050565b60006158858261580b565b915061589182856152af565b915061589c82615857565b91506158a882846152af565b91508190509392505050565b7f455243313936373a206e657720696d706c656d656e746174696f6e206973206e60008201527f6f74206120636f6e747261637400000000000000000000000000000000000000602082015250565b6000615910602d8361403a565b915061591b826158b4565b604082019050919050565b6000602082019050818103600083015261593f81615903565b9050919050565b7f4552433732313a207472616e7366657220746f206e6f6e20455243373231526560008201527f63656976657220696d706c656d656e7465720000000000000000000000000000602082015250565b60006159a260328361403a565b91506159ad82615946565b604082019050919050565b600060208201905081810360008301526159d181615995565b9050919050565b60006159e3826140ea565b91506159ee836140ea565b9250817fffffffffffffffffffffffffffffffffffffffffffffffffffffffffffffffff0483118215151615615a2757615a26615142565b5b828202905092915050565b6000615a3d826140ea565b9150615a48836140ea565b9250827fffffffffffffffffffffffffffffffffffffffffffffffffffffffffffffffff03821115615a7d57615a7c615142565b5b828201905092915050565b7f4e487b7100000000000000000000000000000000000000000000000000000000600052603260045260246000fd5b6000615ac2826140ea565b91506000821415615ad657615ad5615142565b5b600182039050919050565b7f537472696e67733a20686578206c656e67746820696e73756666696369656e74600082015250565b6000615b1760208361403a565b9150615b2282615ae1565b602082019050919050565b60006020820190508181036000830152615b4681615b0a565b9050919050565b7f416464726573733a2064656c65676174652063616c6c20746f206e6f6e2d636f60008201527f6e74726163740000000000000000000000000000000000000000000000000000602082015250565b6000615ba960268361403a565b9150615bb482615b4d565b604082019050919050565b60006020820190508181036000830152615bd881615b9c565b9050919050565b600081519050919050565b600081905092915050565b6000615c0082615bdf565b615c0a8185615bea565b9350615c1a81856020860161404b565b80840191505092915050565b6000615c328284615bf5565b915081905092915050565b6000615c4882615bdf565b615c528185614e0b565b9350615c6281856020860161404b565b615c6b8161407e565b840191505092915050565b6000608082019050615c8b600083018761417f565b615c98602083018661417f565b615ca5604083018561474e565b8181036060830152615cb78184615c3d565b905095945050505050565b600081519050615cd181613fa0565b92915050565b600060208284031215615ced57615cec613f6a565b5b6000615cfb84828501615cc2565b91505092915050565b7f4552433732313a206d696e7420746f20746865207a65726f2061646472657373600082015250565b6000615d3a60208361403a565b9150615d4582615d04565b602082019050919050565b60006020820190508181036000830152615d6981615d2d565b9050919050565b7f4552433732313a20746f6b656e20616c7265616479206d696e74656400000000600082015250565b6000615da6601c8361403a565b9150615db182615d70565b602082019050919050565b60006020820190508181036000830152615dd581615d99565b905091905056fe416464726573733a206c6f772d6c6576656c2064656c65676174652063616c6c206661696c6564a2646970667358221220d0cb39f9b50d96953ba32b2f145d9467b79a806518ab068dac893f3ce5ebb10664736f6c63430008090033",
  "devdoc": {
    "author": "Kinetex Team",
    "custom:security-contact": "semkin.eth@gmail.com*",
    "kind": "dev",
    "methods": {
      "approve(address,uint256)": {
        "details": "See {IERC721-approve}."
      },
      "balanceOf(address)": {
        "details": "See {IERC721-balanceOf}."
      },
      "constructor": {
        "custom:oz-upgrades-unsafe-allow": "constructor"
      },
      "getApproved(uint256)": {
        "details": "See {IERC721-getApproved}."
      },
      "getAttributes(uint256)": {
        "params": {
          "_tokenId": "token Id."
        }
      },
      "getNextTokenId()": {
        "details": "Can be used to retrieve total supply."
      },
      "getRoleAdmin(bytes32)": {
        "details": "Returns the admin role that controls `role`. See {grantRole} and {revokeRole}. To change a role's admin, use {_setRoleAdmin}."
      },
      "grantRole(bytes32,address)": {
        "details": "Grants `role` to `account`. If `account` had not been already granted `role`, emits a {RoleGranted} event. Requirements: - the caller must have ``role``'s admin role. May emit a {RoleGranted} event."
      },
      "hasRole(bytes32,address)": {
        "details": "Returns `true` if `account` has been granted `role`."
      },
      "initialize(address)": {
        "details": "Proxy initializer",
        "params": {
          "signatureManager": "SignatureManager deployed instance"
        }
      },
      "isApprovedForAll(address,address)": {
        "details": "See {IERC721-isApprovedForAll}."
      },
      "lock()": {
        "details": "EIP5192"
      },
      "locked(uint256)": {
        "details": "EIP 5192",
        "params": {
          "tokenId": "token Id."
        }
      },
      "name()": {
        "details": "See {IERC721Metadata-name}."
      },
      "ownerOf(uint256)": {
        "details": "See {IERC721-ownerOf}."
      },
      "proxiableUUID()": {
        "details": "Implementation of the ERC1822 {proxiableUUID} function. This returns the storage slot used by the implementation. It is used to validate the implementation's compatibility when performing an upgrade. IMPORTANT: A proxy pointing at a proxiable contract should not be considered proxiable itself, because this risks bricking a proxy that upgrades to it, by delegating to itself until out of gas. Thus it is critical that this function revert if invoked through a proxy. This is guaranteed by the `notDelegated` modifier."
      },
      "renounceRole(bytes32,address)": {
        "details": "Revokes `role` from the calling account. Roles are often managed via {grantRole} and {revokeRole}: this function's purpose is to provide a mechanism for accounts to lose their privileges if they are compromised (such as when a trusted device is misplaced). If the calling account had been revoked `role`, emits a {RoleRevoked} event. Requirements: - the caller must be `account`. May emit a {RoleRevoked} event."
      },
      "revokeRole(bytes32,address)": {
        "details": "Revokes `role` from `account`. If `account` had been granted `role`, emits a {RoleRevoked} event. Requirements: - the caller must have ``role``'s admin role. May emit a {RoleRevoked} event."
      },
      "safeMint(address,uint256,uint256,bytes)": {
        "details": "Needs to be granted MANAGER role on SignatureManager instance"
      },
      "safeTransferFrom(address,address,uint256)": {
        "details": "See {IERC721-safeTransferFrom}."
      },
      "safeTransferFrom(address,address,uint256,bytes)": {
        "details": "EIP5192, EIP712"
      },
      "setApprovalForAll(address,bool)": {
        "details": "See {IERC721-setApprovalForAll}."
      },
      "symbol()": {
        "details": "See {IERC721Metadata-symbol}."
      },
      "tokenURI(uint256)": {
        "details": "See {IERC721Metadata-tokenURI}."
      },
      "transferFrom(address,address,uint256)": {
        "details": "EIP5192, EIP712"
      },
      "unlock()": {
        "details": "EIP5192"
      },
      "upgradeTo(address)": {
        "details": "Upgrade the implementation of the proxy to `newImplementation`. Calls {_authorizeUpgrade}. Emits an {Upgraded} event."
      },
      "upgradeToAndCall(address,bytes)": {
        "details": "Upgrade the implementation of the proxy to `newImplementation`, and subsequently execute the function call encoded in `data`. Calls {_authorizeUpgrade}. Emits an {Upgraded} event."
      }
    },
    "title": "Kinetex Rewards",
    "version": 1
  },
  "userdoc": {
    "events": {
      "Locked(uint256)": {
        "notice": "Emitted when the locking status is changed to locked."
      },
      "Unlocked(uint256)": {
        "notice": "Emitted when the locking status is changed to unlocked."
      }
    },
    "kind": "user",
    "methods": {
      "burn(uint256)": {
        "notice": "Token burn. Refer to IKinetexRewards.sol"
      },
      "burnPriveleged(uint256)": {
        "notice": "Token burn that doesn't require approval. Refer to IKinetexRewards.sol"
      },
      "contractURI()": {
        "notice": "Contract metadata"
      },
      "getAttributes(uint256)": {
        "notice": "Retrieves onchain metadata."
      },
      "getNextTokenId()": {
        "notice": "Retrieves the tokenId for the next mint"
      },
      "initialize(address)": {
        "notice": "Initialize the contract and grant roles to the deployer"
      },
      "lock()": {
        "notice": "Makes the tokens soulbound (non-transferrable)"
      },
      "locked(uint256)": {
        "notice": "Determines whether the token is transferrable."
      },
      "safeMint(address,uint256,uint256,bytes)": {
        "notice": "Mints a token if the signature is valid. Refer to IKinetexRewards.sol"
      },
      "safeMintPriveleged(address,uint256)": {
        "notice": "Mints a token if called by a priveled account. Refer to IKinetexRewards.sol"
      },
      "safeTransferFrom(address,address,uint256,bytes)": {
        "notice": "Override for OpenZeppelin ERC721 safeTransferFrom()"
      },
      "setBaseURI(string)": {
        "notice": "Sets the baseURI. Refer to IKinetexRewards.sol"
      },
      "setContractURI(string)": {
        "notice": "Sets the contractURI. Refer to IKinetexRewards.sol"
      },
      "supportsInterface(bytes4)": {
        "notice": "EIP165"
      },
      "transferFrom(address,address,uint256)": {
        "notice": "Override for OpenZeppelin ERC721 transferFrom()"
      },
      "unlock()": {
        "notice": "Makes the tokens transferrable"
      }
    },
    "notice": "ERC721 Collection designed for crafting and staking capabilities.",
    "version": 1
  },
  "storageLayout": {
    "storage": [
      {
        "astId": 936,
        "contract": "contracts/rewards/KinetexRewards.sol:KinetexRewards",
        "label": "_initialized",
        "offset": 0,
        "slot": "0",
        "type": "t_uint8"
      },
      {
        "astId": 939,
        "contract": "contracts/rewards/KinetexRewards.sol:KinetexRewards",
        "label": "_initializing",
        "offset": 1,
        "slot": "0",
        "type": "t_bool"
      },
      {
        "astId": 2722,
        "contract": "contracts/rewards/KinetexRewards.sol:KinetexRewards",
        "label": "__gap",
        "offset": 0,
        "slot": "1",
        "type": "t_array(t_uint256)50_storage"
      },
      {
        "astId": 3075,
        "contract": "contracts/rewards/KinetexRewards.sol:KinetexRewards",
        "label": "__gap",
        "offset": 0,
        "slot": "51",
        "type": "t_array(t_uint256)50_storage"
      },
      {
        "astId": 1263,
        "contract": "contracts/rewards/KinetexRewards.sol:KinetexRewards",
        "label": "_name",
        "offset": 0,
        "slot": "101",
        "type": "t_string_storage"
      },
      {
        "astId": 1265,
        "contract": "contracts/rewards/KinetexRewards.sol:KinetexRewards",
        "label": "_symbol",
        "offset": 0,
        "slot": "102",
        "type": "t_string_storage"
      },
      {
        "astId": 1269,
        "contract": "contracts/rewards/KinetexRewards.sol:KinetexRewards",
        "label": "_owners",
        "offset": 0,
        "slot": "103",
        "type": "t_mapping(t_uint256,t_address)"
      },
      {
        "astId": 1273,
        "contract": "contracts/rewards/KinetexRewards.sol:KinetexRewards",
        "label": "_balances",
        "offset": 0,
        "slot": "104",
        "type": "t_mapping(t_address,t_uint256)"
      },
      {
        "astId": 1277,
        "contract": "contracts/rewards/KinetexRewards.sol:KinetexRewards",
        "label": "_tokenApprovals",
        "offset": 0,
        "slot": "105",
        "type": "t_mapping(t_uint256,t_address)"
      },
      {
        "astId": 1283,
        "contract": "contracts/rewards/KinetexRewards.sol:KinetexRewards",
        "label": "_operatorApprovals",
        "offset": 0,
        "slot": "106",
        "type": "t_mapping(t_address,t_mapping(t_address,t_bool))"
      },
      {
        "astId": 2185,
        "contract": "contracts/rewards/KinetexRewards.sol:KinetexRewards",
        "label": "__gap",
        "offset": 0,
        "slot": "107",
        "type": "t_array(t_uint256)44_storage"
      },
      {
        "astId": 2369,
        "contract": "contracts/rewards/KinetexRewards.sol:KinetexRewards",
        "label": "__gap",
        "offset": 0,
        "slot": "151",
        "type": "t_array(t_uint256)50_storage"
      },
      {
        "astId": 39,
        "contract": "contracts/rewards/KinetexRewards.sol:KinetexRewards",
        "label": "_roles",
        "offset": 0,
        "slot": "201",
        "type": "t_mapping(t_bytes32,t_struct(RoleData)34_storage)"
      },
      {
        "astId": 334,
        "contract": "contracts/rewards/KinetexRewards.sol:KinetexRewards",
        "label": "__gap",
        "offset": 0,
        "slot": "202",
        "type": "t_array(t_uint256)49_storage"
      },
      {
        "astId": 918,
        "contract": "contracts/rewards/KinetexRewards.sol:KinetexRewards",
        "label": "__gap",
        "offset": 0,
        "slot": "251",
        "type": "t_array(t_uint256)50_storage"
      },
      {
        "astId": 1233,
        "contract": "contracts/rewards/KinetexRewards.sol:KinetexRewards",
        "label": "__gap",
        "offset": 0,
        "slot": "301",
        "type": "t_array(t_uint256)50_storage"
      },
      {
        "astId": 6088,
        "contract": "contracts/rewards/KinetexRewards.sol:KinetexRewards",
        "label": "_tokenIdCounter",
        "offset": 0,
        "slot": "351",
        "type": "t_struct(Counter)2729_storage"
      },
      {
        "astId": 6106,
        "contract": "contracts/rewards/KinetexRewards.sol:KinetexRewards",
        "label": "baseURI",
        "offset": 0,
        "slot": "352",
        "type": "t_string_storage"
      },
      {
        "astId": 6108,
        "contract": "contracts/rewards/KinetexRewards.sol:KinetexRewards",
        "label": "contractMetadataURI",
        "offset": 0,
        "slot": "353",
        "type": "t_string_storage"
      },
      {
        "astId": 6110,
        "contract": "contracts/rewards/KinetexRewards.sol:KinetexRewards",
        "label": "contractLocked",
        "offset": 0,
        "slot": "354",
        "type": "t_bool"
      },
      {
        "astId": 6112,
        "contract": "contracts/rewards/KinetexRewards.sol:KinetexRewards",
        "label": "_signatureManager",
        "offset": 1,
        "slot": "354",
        "type": "t_address"
      },
      {
        "astId": 6117,
        "contract": "contracts/rewards/KinetexRewards.sol:KinetexRewards",
        "label": "_attributesByTokenId",
        "offset": 0,
        "slot": "355",
        "type": "t_mapping(t_uint256,t_struct(Attributes)5972_storage)"
      },
      {
        "astId": 6121,
        "contract": "contracts/rewards/KinetexRewards.sol:KinetexRewards",
        "label": "__gap",
        "offset": 0,
        "slot": "356",
        "type": "t_array(t_uint256)91_storage"
      }
    ],
    "types": {
      "t_address": {
        "encoding": "inplace",
        "label": "address",
        "numberOfBytes": "20"
      },
      "t_array(t_uint256)44_storage": {
        "base": "t_uint256",
        "encoding": "inplace",
        "label": "uint256[44]",
        "numberOfBytes": "1408"
      },
      "t_array(t_uint256)49_storage": {
        "base": "t_uint256",
        "encoding": "inplace",
        "label": "uint256[49]",
        "numberOfBytes": "1568"
      },
      "t_array(t_uint256)50_storage": {
        "base": "t_uint256",
        "encoding": "inplace",
        "label": "uint256[50]",
        "numberOfBytes": "1600"
      },
      "t_array(t_uint256)91_storage": {
        "base": "t_uint256",
        "encoding": "inplace",
        "label": "uint256[91]",
        "numberOfBytes": "2912"
      },
      "t_bool": {
        "encoding": "inplace",
        "label": "bool",
        "numberOfBytes": "1"
      },
      "t_bytes32": {
        "encoding": "inplace",
        "label": "bytes32",
        "numberOfBytes": "32"
      },
      "t_enum(Level)5753": {
        "encoding": "inplace",
        "label": "enum RewardLevels.Level",
        "numberOfBytes": "1"
      },
      "t_mapping(t_address,t_bool)": {
        "encoding": "mapping",
        "key": "t_address",
        "label": "mapping(address => bool)",
        "numberOfBytes": "32",
        "value": "t_bool"
      },
      "t_mapping(t_address,t_mapping(t_address,t_bool))": {
        "encoding": "mapping",
        "key": "t_address",
        "label": "mapping(address => mapping(address => bool))",
        "numberOfBytes": "32",
        "value": "t_mapping(t_address,t_bool)"
      },
      "t_mapping(t_address,t_uint256)": {
        "encoding": "mapping",
        "key": "t_address",
        "label": "mapping(address => uint256)",
        "numberOfBytes": "32",
        "value": "t_uint256"
      },
      "t_mapping(t_bytes32,t_struct(RoleData)34_storage)": {
        "encoding": "mapping",
        "key": "t_bytes32",
        "label": "mapping(bytes32 => struct AccessControlUpgradeable.RoleData)",
        "numberOfBytes": "32",
        "value": "t_struct(RoleData)34_storage"
      },
      "t_mapping(t_uint256,t_address)": {
        "encoding": "mapping",
        "key": "t_uint256",
        "label": "mapping(uint256 => address)",
        "numberOfBytes": "32",
        "value": "t_address"
      },
      "t_mapping(t_uint256,t_struct(Attributes)5972_storage)": {
        "encoding": "mapping",
        "key": "t_uint256",
        "label": "mapping(uint256 => struct IKinetexRewards.Attributes)",
        "numberOfBytes": "32",
        "value": "t_struct(Attributes)5972_storage"
      },
      "t_string_storage": {
        "encoding": "bytes",
        "label": "string",
        "numberOfBytes": "32"
      },
      "t_struct(Attributes)5972_storage": {
        "encoding": "inplace",
        "label": "struct IKinetexRewards.Attributes",
        "members": [
          {
            "astId": 5969,
            "contract": "contracts/rewards/KinetexRewards.sol:KinetexRewards",
            "label": "level",
            "offset": 0,
            "slot": "0",
            "type": "t_enum(Level)5753"
          },
          {
            "astId": 5971,
            "contract": "contracts/rewards/KinetexRewards.sol:KinetexRewards",
            "label": "dust",
            "offset": 0,
            "slot": "1",
            "type": "t_uint256"
          }
        ],
        "numberOfBytes": "64"
      },
      "t_struct(Counter)2729_storage": {
        "encoding": "inplace",
        "label": "struct CountersUpgradeable.Counter",
        "members": [
          {
            "astId": 2728,
            "contract": "contracts/rewards/KinetexRewards.sol:KinetexRewards",
            "label": "_value",
            "offset": 0,
            "slot": "0",
            "type": "t_uint256"
          }
        ],
        "numberOfBytes": "32"
      },
      "t_struct(RoleData)34_storage": {
        "encoding": "inplace",
        "label": "struct AccessControlUpgradeable.RoleData",
        "members": [
          {
            "astId": 31,
            "contract": "contracts/rewards/KinetexRewards.sol:KinetexRewards",
            "label": "members",
            "offset": 0,
            "slot": "0",
            "type": "t_mapping(t_address,t_bool)"
          },
          {
            "astId": 33,
            "contract": "contracts/rewards/KinetexRewards.sol:KinetexRewards",
            "label": "adminRole",
            "offset": 0,
            "slot": "1",
            "type": "t_bytes32"
          }
        ],
        "numberOfBytes": "64"
      },
      "t_uint256": {
        "encoding": "inplace",
        "label": "uint256",
        "numberOfBytes": "32"
      },
      "t_uint8": {
        "encoding": "inplace",
        "label": "uint8",
        "numberOfBytes": "1"
      }
    }
  }
}