{
  "address": "0x0C03c35a6eC014A9622CD9a43D32Dbab6bA06d16",
  "abi": [
    {
      "inputs": [],
      "stateMutability": "nonpayable",
      "type": "constructor"
    },
    {
      "anonymous": false,
      "inputs": [
        {
          "indexed": false,
          "internalType": "address",
          "name": "previousAdmin",
          "type": "address"
        },
        {
          "indexed": false,
          "internalType": "address",
          "name": "newAdmin",
          "type": "address"
        }
      ],
      "name": "AdminChanged",
      "type": "event"
    },
    {
      "anonymous": false,
      "inputs": [
        {
          "indexed": true,
          "internalType": "address",
          "name": "beacon",
          "type": "address"
        }
      ],
      "name": "BeaconUpgraded",
      "type": "event"
    },
    {
      "anonymous": false,
      "inputs": [
        {
          "indexed": false,
          "internalType": "uint8",
          "name": "version",
          "type": "uint8"
        }
      ],
      "name": "Initialized",
      "type": "event"
    },
    {
      "anonymous": false,
      "inputs": [
        {
          "indexed": true,
          "internalType": "bytes32",
          "name": "role",
          "type": "bytes32"
        },
        {
          "indexed": true,
          "internalType": "bytes32",
          "name": "previousAdminRole",
          "type": "bytes32"
        },
        {
          "indexed": true,
          "internalType": "bytes32",
          "name": "newAdminRole",
          "type": "bytes32"
        }
      ],
      "name": "RoleAdminChanged",
      "type": "event"
    },
    {
      "anonymous": false,
      "inputs": [
        {
          "indexed": true,
          "internalType": "bytes32",
          "name": "role",
          "type": "bytes32"
        },
        {
          "indexed": true,
          "internalType": "address",
          "name": "account",
          "type": "address"
        },
        {
          "indexed": true,
          "internalType": "address",
          "name": "sender",
          "type": "address"
        }
      ],
      "name": "RoleGranted",
      "type": "event"
    },
    {
      "anonymous": false,
      "inputs": [
        {
          "indexed": true,
          "internalType": "bytes32",
          "name": "role",
          "type": "bytes32"
        },
        {
          "indexed": true,
          "internalType": "address",
          "name": "account",
          "type": "address"
        },
        {
          "indexed": true,
          "internalType": "address",
          "name": "sender",
          "type": "address"
        }
      ],
      "name": "RoleRevoked",
      "type": "event"
    },
    {
      "anonymous": false,
      "inputs": [
        {
          "indexed": true,
          "internalType": "address",
          "name": "implementation",
          "type": "address"
        }
      ],
      "name": "Upgraded",
      "type": "event"
    },
    {
      "inputs": [],
      "name": "CONSUMER_ROLE",
      "outputs": [
        {
          "internalType": "bytes32",
          "name": "",
          "type": "bytes32"
        }
      ],
      "stateMutability": "view",
      "type": "function"
    },
    {
      "inputs": [],
      "name": "DEFAULT_ADMIN_ROLE",
      "outputs": [
        {
          "internalType": "bytes32",
          "name": "",
          "type": "bytes32"
        }
      ],
      "stateMutability": "view",
      "type": "function"
    },
    {
      "inputs": [
        {
          "internalType": "address",
          "name": "_consumer",
          "type": "address"
        }
      ],
      "name": "getIssuer",
      "outputs": [
        {
          "internalType": "address",
          "name": "",
          "type": "address"
        }
      ],
      "stateMutability": "view",
      "type": "function"
    },
    {
      "inputs": [
        {
          "internalType": "bytes32",
          "name": "role",
          "type": "bytes32"
        }
      ],
      "name": "getRoleAdmin",
      "outputs": [
        {
          "internalType": "bytes32",
          "name": "",
          "type": "bytes32"
        }
      ],
      "stateMutability": "view",
      "type": "function"
    },
    {
      "inputs": [
        {
          "internalType": "bytes32",
          "name": "role",
          "type": "bytes32"
        },
        {
          "internalType": "address",
          "name": "account",
          "type": "address"
        }
      ],
      "name": "grantRole",
      "outputs": [],
      "stateMutability": "nonpayable",
      "type": "function"
    },
    {
      "inputs": [
        {
          "internalType": "bytes32",
          "name": "role",
          "type": "bytes32"
        },
        {
          "internalType": "address",
          "name": "account",
          "type": "address"
        }
      ],
      "name": "hasRole",
      "outputs": [
        {
          "internalType": "bool",
          "name": "",
          "type": "bool"
        }
      ],
      "stateMutability": "view",
      "type": "function"
    },
    {
      "inputs": [],
      "name": "initialize",
      "outputs": [],
      "stateMutability": "nonpayable",
      "type": "function"
    },
    {
      "inputs": [],
      "name": "proxiableUUID",
      "outputs": [
        {
          "internalType": "bytes32",
          "name": "",
          "type": "bytes32"
        }
      ],
      "stateMutability": "view",
      "type": "function"
    },
    {
      "inputs": [
        {
          "internalType": "address",
          "name": "_consumer",
          "type": "address"
        },
        {
          "internalType": "address",
          "name": "_issuer",
          "type": "address"
        }
      ],
      "name": "registerConsumer",
      "outputs": [],
      "stateMutability": "nonpayable",
      "type": "function"
    },
    {
      "inputs": [
        {
          "internalType": "bytes32",
          "name": "role",
          "type": "bytes32"
        },
        {
          "internalType": "address",
          "name": "account",
          "type": "address"
        }
      ],
      "name": "renounceRole",
      "outputs": [],
      "stateMutability": "nonpayable",
      "type": "function"
    },
    {
      "inputs": [
        {
          "internalType": "bytes32",
          "name": "role",
          "type": "bytes32"
        },
        {
          "internalType": "address",
          "name": "account",
          "type": "address"
        }
      ],
      "name": "revokeRole",
      "outputs": [],
      "stateMutability": "nonpayable",
      "type": "function"
    },
    {
      "inputs": [
        {
          "internalType": "address",
          "name": "_issuer",
          "type": "address"
        },
        {
          "internalType": "address",
          "name": "_consumer",
          "type": "address"
        }
      ],
      "name": "setIssuer",
      "outputs": [],
      "stateMutability": "nonpayable",
      "type": "function"
    },
    {
      "inputs": [
        {
          "internalType": "bytes4",
          "name": "interfaceId",
          "type": "bytes4"
        }
      ],
      "name": "supportsInterface",
      "outputs": [
        {
          "internalType": "bool",
          "name": "",
          "type": "bool"
        }
      ],
      "stateMutability": "view",
      "type": "function"
    },
    {
      "inputs": [
        {
          "internalType": "address",
          "name": "newImplementation",
          "type": "address"
        }
      ],
      "name": "upgradeTo",
      "outputs": [],
      "stateMutability": "nonpayable",
      "type": "function"
    },
    {
      "inputs": [
        {
          "internalType": "address",
          "name": "newImplementation",
          "type": "address"
        },
        {
          "internalType": "bytes",
          "name": "data",
          "type": "bytes"
        }
      ],
      "name": "upgradeToAndCall",
      "outputs": [],
      "stateMutability": "payable",
      "type": "function"
    },
    {
      "inputs": [
        {
          "internalType": "bytes",
          "name": "_signature",
          "type": "bytes"
        }
      ],
      "name": "useSignature",
      "outputs": [],
      "stateMutability": "nonpayable",
      "type": "function"
    },
    {
      "inputs": [
        {
          "internalType": "address",
          "name": "_to",
          "type": "address"
        },
        {
          "internalType": "uint256",
          "name": "_attribute",
          "type": "uint256"
        },
        {
          "internalType": "uint256",
          "name": "_nonce",
          "type": "uint256"
        },
        {
          "internalType": "bytes",
          "name": "_signature",
          "type": "bytes"
        },
        {
          "internalType": "address",
          "name": "_consumer",
          "type": "address"
        }
      ],
      "name": "verifySignature",
      "outputs": [
        {
          "internalType": "bool",
          "name": "",
          "type": "bool"
        }
      ],
      "stateMutability": "view",
      "type": "function"
    }
  ],
  "numDeployments": 6,
  "solcInputHash": "345da17736951475fcd5d8d54bafe226",
  "bytecode": "0x60a06040523073ffffffffffffffffffffffffffffffffffffffff1660809073ffffffffffffffffffffffffffffffffffffffff168152503480156200004457600080fd5b50620000556200005b60201b60201c565b62000206565b600060019054906101000a900460ff1615620000ae576040517f08c379a0000000000000000000000000000000000000000000000000000000008152600401620000a590620001a9565b60405180910390fd5b60ff801660008054906101000a900460ff1660ff161015620001205760ff6000806101000a81548160ff021916908360ff1602179055507f7f26b83ff96e1f2b6a682f133852f6798a09c465da95921460cefb384740249860ff604051620001179190620001e9565b60405180910390a15b565b600082825260208201905092915050565b7f496e697469616c697a61626c653a20636f6e747261637420697320696e69746960008201527f616c697a696e6700000000000000000000000000000000000000000000000000602082015250565b60006200019160278362000122565b91506200019e8262000133565b604082019050919050565b60006020820190508181036000830152620001c48162000182565b9050919050565b600060ff82169050919050565b620001e381620001cb565b82525050565b6000602082019050620002006000830184620001d8565b92915050565b60805161353d6200023e60003960008181610547015281816105d6015281816106f8015281816107870152610837015261353d6000f3fe6080604052600436106100fe5760003560e01c80635e00785f1161009557806392e0a3291161006457806392e0a329146103105780639a38330d1461034d578063a217fddf14610376578063d547741f146103a1578063fef03da3146103ca576100fe565b80635e00785f1461026a578063773c3fff146102935780638129fc1c146102bc57806391d14854146102d3576100fe565b80633659cfe6116100d15780633659cfe6146101cf5780634bc02da6146101f85780634f1ef2861461022357806352d1902d1461023f576100fe565b806301ffc9a714610103578063248a9ca3146101405780632f2ff15d1461017d57806336568abe146101a6575b600080fd5b34801561010f57600080fd5b5061012a60048036038101906101259190611fe4565b610407565b604051610137919061202c565b60405180910390f35b34801561014c57600080fd5b506101676004803603810190610162919061207d565b610481565b60405161017491906120b9565b60405180910390f35b34801561018957600080fd5b506101a4600480360381019061019f9190612132565b6104a1565b005b3480156101b257600080fd5b506101cd60048036038101906101c89190612132565b6104c2565b005b3480156101db57600080fd5b506101f660048036038101906101f19190612172565b610545565b005b34801561020457600080fd5b5061020d6106ce565b60405161021a91906120b9565b60405180910390f35b61023d600480360381019061023891906122e5565b6106f6565b005b34801561024b57600080fd5b50610254610833565b60405161026191906120b9565b60405180910390f35b34801561027657600080fd5b50610291600480360381019061028c9190612341565b6108ec565b005b34801561029f57600080fd5b506102ba60048036038101906102b591906123e1565b610a4a565b005b3480156102c857600080fd5b506102d1610af3565b005b3480156102df57600080fd5b506102fa60048036038101906102f59190612132565b610c46565b604051610307919061202c565b60405180910390f35b34801561031c57600080fd5b5061033760048036038101906103329190612464565b610cb1565b604051610344919061202c565b60405180910390f35b34801561035957600080fd5b50610374600480360381019061036f9190612341565b610ec1565b005b34801561038257600080fd5b5061038b610fc8565b60405161039891906120b9565b60405180910390f35b3480156103ad57600080fd5b506103c860048036038101906103c39190612132565b610fcf565b005b3480156103d657600080fd5b506103f160048036038101906103ec9190612172565b610ff0565b6040516103fe919061250d565b60405180910390f35b60007f7965db0b000000000000000000000000000000000000000000000000000000007bffffffffffffffffffffffffffffffffffffffffffffffffffffffff1916827bffffffffffffffffffffffffffffffffffffffffffffffffffffffff1916148061047a5750610479826110de565b5b9050919050565b600060656000838152602001908152602001600020600101549050919050565b6104aa82610481565b6104b381611148565b6104bd838361115c565b505050565b6104ca61123d565b73ffffffffffffffffffffffffffffffffffffffff168173ffffffffffffffffffffffffffffffffffffffff1614610537576040517f08c379a000000000000000000000000000000000000000000000000000000000815260040161052e906125ab565b60405180910390fd5b6105418282611245565b5050565b7f000000000000000000000000000000000000000000000000000000000000000073ffffffffffffffffffffffffffffffffffffffff163073ffffffffffffffffffffffffffffffffffffffff1614156105d4576040517f08c379a00000000000000000000000000000000000000000000000000000000081526004016105cb9061263d565b60405180910390fd5b7f000000000000000000000000000000000000000000000000000000000000000073ffffffffffffffffffffffffffffffffffffffff16610613611327565b73ffffffffffffffffffffffffffffffffffffffff1614610669576040517f08c379a0000000000000000000000000000000000000000000000000000000008152600401610660906126cf565b60405180910390fd5b6106728161137e565b6106cb81600067ffffffffffffffff811115610691576106906121ba565b5b6040519080825280601f01601f1916602001820160405280156106c35781602001600182028036833780820191505090505b50600061138f565b50565b6040516020016106dd90612746565b6040516020818303038152906040528051906020012081565b7f000000000000000000000000000000000000000000000000000000000000000073ffffffffffffffffffffffffffffffffffffffff163073ffffffffffffffffffffffffffffffffffffffff161415610785576040517f08c379a000000000000000000000000000000000000000000000000000000000815260040161077c9061263d565b60405180910390fd5b7f000000000000000000000000000000000000000000000000000000000000000073ffffffffffffffffffffffffffffffffffffffff166107c4611327565b73ffffffffffffffffffffffffffffffffffffffff161461081a576040517f08c379a0000000000000000000000000000000000000000000000000000000008152600401610811906126cf565b60405180910390fd5b6108238261137e565b61082f8282600161138f565b5050565b60007f000000000000000000000000000000000000000000000000000000000000000073ffffffffffffffffffffffffffffffffffffffff163073ffffffffffffffffffffffffffffffffffffffff16146108c3576040517f08c379a00000000000000000000000000000000000000000000000000000000081526004016108ba906127cd565b60405180910390fd5b7f360894a13ba1a3210667c828492db98dca3e2076cc3735a920a3ca505d382bbc60001b905090565b6000801b6108f981611148565b600073ffffffffffffffffffffffffffffffffffffffff1660fb60008573ffffffffffffffffffffffffffffffffffffffff1673ffffffffffffffffffffffffffffffffffffffff16815260200190815260200160002060009054906101000a900473ffffffffffffffffffffffffffffffffffffffff1673ffffffffffffffffffffffffffffffffffffffff16146109c7576040517f08c379a00000000000000000000000000000000000000000000000000000000081526004016109be90612839565b60405180910390fd5b8160fb60008573ffffffffffffffffffffffffffffffffffffffff1673ffffffffffffffffffffffffffffffffffffffff16815260200190815260200160002060006101000a81548173ffffffffffffffffffffffffffffffffffffffff021916908373ffffffffffffffffffffffffffffffffffffffff160217905550505050565b604051602001610a5990612746565b60405160208183030381529060405280519060200120610a7881611148565b600160fc60003373ffffffffffffffffffffffffffffffffffffffff1673ffffffffffffffffffffffffffffffffffffffff1681526020019081526020016000208484604051610ac9929190612889565b908152602001604051809103902060006101000a81548160ff021916908315150217905550505050565b60008060019054906101000a900460ff16159050808015610b245750600160008054906101000a900460ff1660ff16105b80610b515750610b333061150c565b158015610b505750600160008054906101000a900460ff1660ff16145b5b610b90576040517f08c379a0000000000000000000000000000000000000000000000000000000008152600401610b8790612914565b60405180910390fd5b60016000806101000a81548160ff021916908360ff1602179055508015610bcd576001600060016101000a81548160ff0219169083151502179055505b610bd561152f565b610bdd611580565b610bea6000801b3361115c565b8015610c435760008060016101000a81548160ff0219169083151502179055507f7f26b83ff96e1f2b6a682f133852f6798a09c465da95921460cefb38474024986001604051610c3a9190612986565b60405180910390a15b50565b60006065600084815260200190815260200160002060000160008373ffffffffffffffffffffffffffffffffffffffff1673ffffffffffffffffffffffffffffffffffffffff16815260200190815260200160002060009054906101000a900460ff16905092915050565b60008060fb60008473ffffffffffffffffffffffffffffffffffffffff1673ffffffffffffffffffffffffffffffffffffffff16815260200190815260200160002060009054906101000a900473ffffffffffffffffffffffffffffffffffffffff169050600073ffffffffffffffffffffffffffffffffffffffff168173ffffffffffffffffffffffffffffffffffffffff161415610d86576040517f08c379a0000000000000000000000000000000000000000000000000000000008152600401610d7d906129ed565b60405180910390fd5b6000888888604051602001610d9d93929190612a76565b6040516020818303038152906040528051906020012090506000610dc0826115d1565b90508273ffffffffffffffffffffffffffffffffffffffff16610e278289898080601f016020809104026020016040519081016040528093929190818152602001838380828437600081840152601f19601f82011690508083019250505050505050611601565b73ffffffffffffffffffffffffffffffffffffffff16148015610eb2575060fc60008673ffffffffffffffffffffffffffffffffffffffff1673ffffffffffffffffffffffffffffffffffffffff1681526020019081526020016000208787604051610e94929190612889565b908152602001604051809103902060009054906101000a900460ff16155b93505050509695505050505050565b604051602001610ed090612746565b604051602081830303815290604052805190602001206000801b610ef48233610c46565b80610f055750610f048133610c46565b5b610f44576040517f08c379a0000000000000000000000000000000000000000000000000000000008152600401610f3b90612aff565b60405180910390fd5b8360fb60008573ffffffffffffffffffffffffffffffffffffffff1673ffffffffffffffffffffffffffffffffffffffff16815260200190815260200160002060006101000a81548173ffffffffffffffffffffffffffffffffffffffff021916908373ffffffffffffffffffffffffffffffffffffffff16021790555050505050565b6000801b81565b610fd882610481565b610fe181611148565b610feb8383611245565b505050565b60008060001b60405160200161100590612746565b604051602081830303815290604052805190602001206110258233610c46565b8061103657506110358133610c46565b5b611075576040517f08c379a000000000000000000000000000000000000000000000000000000000815260040161106c90612aff565b60405180910390fd5b60fb60008573ffffffffffffffffffffffffffffffffffffffff1673ffffffffffffffffffffffffffffffffffffffff16815260200190815260200160002060009054906101000a900473ffffffffffffffffffffffffffffffffffffffff1692505050919050565b60007f01ffc9a7000000000000000000000000000000000000000000000000000000007bffffffffffffffffffffffffffffffffffffffffffffffffffffffff1916827bffffffffffffffffffffffffffffffffffffffffffffffffffffffff1916149050919050565b6111598161115461123d565b611628565b50565b6111668282610c46565b6112395760016065600084815260200190815260200160002060000160008373ffffffffffffffffffffffffffffffffffffffff1673ffffffffffffffffffffffffffffffffffffffff16815260200190815260200160002060006101000a81548160ff0219169083151502179055506111de61123d565b73ffffffffffffffffffffffffffffffffffffffff168173ffffffffffffffffffffffffffffffffffffffff16837f2f8788117e7eff1d82e926ec794901d17c78024a50270940304540a733656f0d60405160405180910390a45b5050565b600033905090565b61124f8282610c46565b156113235760006065600084815260200190815260200160002060000160008373ffffffffffffffffffffffffffffffffffffffff1673ffffffffffffffffffffffffffffffffffffffff16815260200190815260200160002060006101000a81548160ff0219169083151502179055506112c861123d565b73ffffffffffffffffffffffffffffffffffffffff168173ffffffffffffffffffffffffffffffffffffffff16837ff6391f5c32d9c69d2a47ea670b442974b53935d1edc7fd64eb21e047a839171b60405160405180910390a45b5050565b60006113557f360894a13ba1a3210667c828492db98dca3e2076cc3735a920a3ca505d382bbc60001b6116ad565b60000160009054906101000a900473ffffffffffffffffffffffffffffffffffffffff16905090565b6000801b61138b81611148565b5050565b6113bb7f4910fdfa16fed3260ed0e7147f7cc6da11a60208b5b9406d12a635614ffd914360001b6116b7565b60000160009054906101000a900460ff16156113df576113da836116c1565b611507565b8273ffffffffffffffffffffffffffffffffffffffff166352d1902d6040518163ffffffff1660e01b815260040160206040518083038186803b15801561142557600080fd5b505afa92505050801561145657506040513d601f19601f820116820180604052508101906114539190612b34565b60015b611495576040517f08c379a000000000000000000000000000000000000000000000000000000000815260040161148c90612bd3565b60405180910390fd5b7f360894a13ba1a3210667c828492db98dca3e2076cc3735a920a3ca505d382bbc60001b81146114fa576040517f08c379a00000000000000000000000000000000000000000000000000000000081526004016114f190612c65565b60405180910390fd5b5061150683838361177a565b5b505050565b6000808273ffffffffffffffffffffffffffffffffffffffff163b119050919050565b600060019054906101000a900460ff1661157e576040517f08c379a000000000000000000000000000000000000000000000000000000000815260040161157590612cf7565b60405180910390fd5b565b600060019054906101000a900460ff166115cf576040517f08c379a00000000000000000000000000000000000000000000000000000000081526004016115c690612cf7565b60405180910390fd5b565b6000816040516020016115e49190612d84565b604051602081830303815290604052805190602001209050919050565b600080600061161085856117a6565b9150915061161d81611829565b819250505092915050565b6116328282610c46565b6116a95761163f816119fe565b61164d8360001c6020611a2b565b60405160200161165e929190612eb1565b6040516020818303038152906040526040517f08c379a00000000000000000000000000000000000000000000000000000000081526004016116a09190612f24565b60405180910390fd5b5050565b6000819050919050565b6000819050919050565b6116ca8161150c565b611709576040517f08c379a000000000000000000000000000000000000000000000000000000000815260040161170090612fb8565b60405180910390fd5b806117367f360894a13ba1a3210667c828492db98dca3e2076cc3735a920a3ca505d382bbc60001b6116ad565b60000160006101000a81548173ffffffffffffffffffffffffffffffffffffffff021916908373ffffffffffffffffffffffffffffffffffffffff16021790555050565b61178383611c67565b6000825111806117905750805b156117a15761179f8383611cb6565b505b505050565b6000806041835114156117e85760008060006020860151925060408601519150606086015160001a90506117dc87828585611d9a565b94509450505050611822565b60408351141561181957600080602085015191506040850151905061180e868383611ea7565b935093505050611822565b60006002915091505b9250929050565b6000600481111561183d5761183c612fd8565b5b8160048111156118505761184f612fd8565b5b141561185b576119fb565b6001600481111561186f5761186e612fd8565b5b81600481111561188257611881612fd8565b5b14156118c3576040517f08c379a00000000000000000000000000000000000000000000000000000000081526004016118ba90613053565b60405180910390fd5b600260048111156118d7576118d6612fd8565b5b8160048111156118ea576118e9612fd8565b5b141561192b576040517f08c379a0000000000000000000000000000000000000000000000000000000008152600401611922906130bf565b60405180910390fd5b6003600481111561193f5761193e612fd8565b5b81600481111561195257611951612fd8565b5b1415611993576040517f08c379a000000000000000000000000000000000000000000000000000000000815260040161198a90613151565b60405180910390fd5b6004808111156119a6576119a5612fd8565b5b8160048111156119b9576119b8612fd8565b5b14156119fa576040517f08c379a00000000000000000000000000000000000000000000000000000000081526004016119f1906131e3565b60405180910390fd5b5b50565b6060611a248273ffffffffffffffffffffffffffffffffffffffff16601460ff16611a2b565b9050919050565b606060006002836002611a3e9190613232565b611a48919061328c565b67ffffffffffffffff811115611a6157611a606121ba565b5b6040519080825280601f01601f191660200182016040528015611a935781602001600182028036833780820191505090505b5090507f300000000000000000000000000000000000000000000000000000000000000081600081518110611acb57611aca6132e2565b5b60200101907effffffffffffffffffffffffffffffffffffffffffffffffffffffffffffff1916908160001a9053507f780000000000000000000000000000000000000000000000000000000000000081600181518110611b2f57611b2e6132e2565b5b60200101907effffffffffffffffffffffffffffffffffffffffffffffffffffffffffffff1916908160001a90535060006001846002611b6f9190613232565b611b79919061328c565b90505b6001811115611c19577f3031323334353637383961626364656600000000000000000000000000000000600f861660108110611bbb57611bba6132e2565b5b1a60f81b828281518110611bd257611bd16132e2565b5b60200101907effffffffffffffffffffffffffffffffffffffffffffffffffffffffffffff1916908160001a905350600485901c945080611c1290613311565b9050611b7c565b5060008414611c5d576040517f08c379a0000000000000000000000000000000000000000000000000000000008152600401611c5490613387565b60405180910390fd5b8091505092915050565b611c70816116c1565b8073ffffffffffffffffffffffffffffffffffffffff167fbc7cd75a20ee27fd9adebab32041f755214dbc6bffa90cc0225b39da2e5c2d3b60405160405180910390a250565b6060611cc18361150c565b611d00576040517f08c379a0000000000000000000000000000000000000000000000000000000008152600401611cf790613419565b60405180910390fd5b6000808473ffffffffffffffffffffffffffffffffffffffff1684604051611d289190613475565b600060405180830381855af49150503d8060008114611d63576040519150601f19603f3d011682016040523d82523d6000602084013e611d68565b606091505b5091509150611d9082826040518060600160405280602781526020016134e160279139611f06565b9250505092915050565b6000807f7fffffffffffffffffffffffffffffff5d576e7357a4501ddfe92f46681b20a08360001c1115611dd5576000600391509150611e9e565b601b8560ff1614158015611ded5750601c8560ff1614155b15611dff576000600491509150611e9e565b600060018787878760405160008152602001604052604051611e24949392919061349b565b6020604051602081039080840390855afa158015611e46573d6000803e3d6000fd5b505050602060405103519050600073ffffffffffffffffffffffffffffffffffffffff168173ffffffffffffffffffffffffffffffffffffffff161415611e9557600060019250925050611e9e565b80600092509250505b94509492505050565b60008060007f7fffffffffffffffffffffffffffffffffffffffffffffffffffffffffffffff60001b841690506000601b60ff8660001c901c611eea919061328c565b9050611ef887828885611d9a565b935093505050935093915050565b60608315611f1657829050611f21565b611f208383611f28565b5b9392505050565b600082511115611f3b5781518083602001fd5b806040517f08c379a0000000000000000000000000000000000000000000000000000000008152600401611f6f9190612f24565b60405180910390fd5b6000604051905090565b600080fd5b600080fd5b60007fffffffff0000000000000000000000000000000000000000000000000000000082169050919050565b611fc181611f8c565b8114611fcc57600080fd5b50565b600081359050611fde81611fb8565b92915050565b600060208284031215611ffa57611ff9611f82565b5b600061200884828501611fcf565b91505092915050565b60008115159050919050565b61202681612011565b82525050565b6000602082019050612041600083018461201d565b92915050565b6000819050919050565b61205a81612047565b811461206557600080fd5b50565b60008135905061207781612051565b92915050565b60006020828403121561209357612092611f82565b5b60006120a184828501612068565b91505092915050565b6120b381612047565b82525050565b60006020820190506120ce60008301846120aa565b92915050565b600073ffffffffffffffffffffffffffffffffffffffff82169050919050565b60006120ff826120d4565b9050919050565b61210f816120f4565b811461211a57600080fd5b50565b60008135905061212c81612106565b92915050565b6000806040838503121561214957612148611f82565b5b600061215785828601612068565b92505060206121688582860161211d565b9150509250929050565b60006020828403121561218857612187611f82565b5b60006121968482850161211d565b91505092915050565b600080fd5b600080fd5b6000601f19601f8301169050919050565b7f4e487b7100000000000000000000000000000000000000000000000000000000600052604160045260246000fd5b6121f2826121a9565b810181811067ffffffffffffffff82111715612211576122106121ba565b5b80604052505050565b6000612224611f78565b905061223082826121e9565b919050565b600067ffffffffffffffff8211156122505761224f6121ba565b5b612259826121a9565b9050602081019050919050565b82818337600083830152505050565b600061228861228384612235565b61221a565b9050828152602081018484840111156122a4576122a36121a4565b5b6122af848285612266565b509392505050565b600082601f8301126122cc576122cb61219f565b5b81356122dc848260208601612275565b91505092915050565b600080604083850312156122fc576122fb611f82565b5b600061230a8582860161211d565b925050602083013567ffffffffffffffff81111561232b5761232a611f87565b5b612337858286016122b7565b9150509250929050565b6000806040838503121561235857612357611f82565b5b60006123668582860161211d565b92505060206123778582860161211d565b9150509250929050565b600080fd5b600080fd5b60008083601f8401126123a1576123a061219f565b5b8235905067ffffffffffffffff8111156123be576123bd612381565b5b6020830191508360018202830111156123da576123d9612386565b5b9250929050565b600080602083850312156123f8576123f7611f82565b5b600083013567ffffffffffffffff81111561241657612415611f87565b5b6124228582860161238b565b92509250509250929050565b6000819050919050565b6124418161242e565b811461244c57600080fd5b50565b60008135905061245e81612438565b92915050565b60008060008060008060a0878903121561248157612480611f82565b5b600061248f89828a0161211d565b96505060206124a089828a0161244f565b95505060406124b189828a0161244f565b945050606087013567ffffffffffffffff8111156124d2576124d1611f87565b5b6124de89828a0161238b565b935093505060806124f189828a0161211d565b9150509295509295509295565b612507816120f4565b82525050565b600060208201905061252260008301846124fe565b92915050565b600082825260208201905092915050565b7f416363657373436f6e74726f6c3a2063616e206f6e6c792072656e6f756e636560008201527f20726f6c657320666f722073656c660000000000000000000000000000000000602082015250565b6000612595602f83612528565b91506125a082612539565b604082019050919050565b600060208201905081810360008301526125c481612588565b9050919050565b7f46756e6374696f6e206d7573742062652063616c6c6564207468726f7567682060008201527f64656c656761746563616c6c0000000000000000000000000000000000000000602082015250565b6000612627602c83612528565b9150612632826125cb565b604082019050919050565b600060208201905081810360008301526126568161261a565b9050919050565b7f46756e6374696f6e206d7573742062652063616c6c6564207468726f7567682060008201527f6163746976652070726f78790000000000000000000000000000000000000000602082015250565b60006126b9602c83612528565b91506126c48261265d565b604082019050919050565b600060208201905081810360008301526126e8816126ac565b9050919050565b600081905092915050565b7f434f4e53554d45525f524f4c4500000000000000000000000000000000000000600082015250565b6000612730600d836126ef565b915061273b826126fa565b600d82019050919050565b600061275182612723565b9150819050919050565b7f555550535570677261646561626c653a206d757374206e6f742062652063616c60008201527f6c6564207468726f7567682064656c656761746563616c6c0000000000000000602082015250565b60006127b7603883612528565b91506127c28261275b565b604082019050919050565b600060208201905081810360008301526127e6816127aa565b9050919050565b7f534d3a20436f6e73756d657220616c7265616479207265676973746572656400600082015250565b6000612823601f83612528565b915061282e826127ed565b602082019050919050565b6000602082019050818103600083015261285281612816565b9050919050565b600081905092915050565b60006128708385612859565b935061287d838584612266565b82840190509392505050565b6000612896828486612864565b91508190509392505050565b7f496e697469616c697a61626c653a20636f6e747261637420697320616c72656160008201527f647920696e697469616c697a6564000000000000000000000000000000000000602082015250565b60006128fe602e83612528565b9150612909826128a2565b604082019050919050565b6000602082019050818103600083015261292d816128f1565b9050919050565b6000819050919050565b600060ff82169050919050565b6000819050919050565b600061297061296b61296684612934565b61294b565b61293e565b9050919050565b61298081612955565b82525050565b600060208201905061299b6000830184612977565b92915050565b7f534d3a204e6f2069737375657220666f7220636f6e73756d6572000000000000600082015250565b60006129d7601a83612528565b91506129e2826129a1565b602082019050919050565b60006020820190508181036000830152612a06816129ca565b9050919050565b60008160601b9050919050565b6000612a2582612a0d565b9050919050565b6000612a3782612a1a565b9050919050565b612a4f612a4a826120f4565b612a2c565b82525050565b6000819050919050565b612a70612a6b8261242e565b612a55565b82525050565b6000612a828286612a3e565b601482019150612a928285612a5f565b602082019150612aa28284612a5f565b602082019150819050949350505050565b7f534d3a2041636365737320436f6e74726f6c0000000000000000000000000000600082015250565b6000612ae9601283612528565b9150612af482612ab3565b602082019050919050565b60006020820190508181036000830152612b1881612adc565b9050919050565b600081519050612b2e81612051565b92915050565b600060208284031215612b4a57612b49611f82565b5b6000612b5884828501612b1f565b91505092915050565b7f45524331393637557067726164653a206e657720696d706c656d656e7461746960008201527f6f6e206973206e6f742055555053000000000000000000000000000000000000602082015250565b6000612bbd602e83612528565b9150612bc882612b61565b604082019050919050565b60006020820190508181036000830152612bec81612bb0565b9050919050565b7f45524331393637557067726164653a20756e737570706f727465642070726f7860008201527f6961626c65555549440000000000000000000000000000000000000000000000602082015250565b6000612c4f602983612528565b9150612c5a82612bf3565b604082019050919050565b60006020820190508181036000830152612c7e81612c42565b9050919050565b7f496e697469616c697a61626c653a20636f6e7472616374206973206e6f74206960008201527f6e697469616c697a696e67000000000000000000000000000000000000000000602082015250565b6000612ce1602b83612528565b9150612cec82612c85565b604082019050919050565b60006020820190508181036000830152612d1081612cd4565b9050919050565b7f19457468657265756d205369676e6564204d6573736167653a0a333200000000600082015250565b6000612d4d601c836126ef565b9150612d5882612d17565b601c82019050919050565b6000819050919050565b612d7e612d7982612047565b612d63565b82525050565b6000612d8f82612d40565b9150612d9b8284612d6d565b60208201915081905092915050565b7f416363657373436f6e74726f6c3a206163636f756e7420000000000000000000600082015250565b6000612de06017836126ef565b9150612deb82612daa565b601782019050919050565b600081519050919050565b60005b83811015612e1f578082015181840152602081019050612e04565b83811115612e2e576000848401525b50505050565b6000612e3f82612df6565b612e4981856126ef565b9350612e59818560208601612e01565b80840191505092915050565b7f206973206d697373696e6720726f6c6520000000000000000000000000000000600082015250565b6000612e9b6011836126ef565b9150612ea682612e65565b601182019050919050565b6000612ebc82612dd3565b9150612ec88285612e34565b9150612ed382612e8e565b9150612edf8284612e34565b91508190509392505050565b6000612ef682612df6565b612f008185612528565b9350612f10818560208601612e01565b612f19816121a9565b840191505092915050565b60006020820190508181036000830152612f3e8184612eeb565b905092915050565b7f455243313936373a206e657720696d706c656d656e746174696f6e206973206e60008201527f6f74206120636f6e747261637400000000000000000000000000000000000000602082015250565b6000612fa2602d83612528565b9150612fad82612f46565b604082019050919050565b60006020820190508181036000830152612fd181612f95565b9050919050565b7f4e487b7100000000000000000000000000000000000000000000000000000000600052602160045260246000fd5b7f45434453413a20696e76616c6964207369676e61747572650000000000000000600082015250565b600061303d601883612528565b915061304882613007565b602082019050919050565b6000602082019050818103600083015261306c81613030565b9050919050565b7f45434453413a20696e76616c6964207369676e6174757265206c656e67746800600082015250565b60006130a9601f83612528565b91506130b482613073565b602082019050919050565b600060208201905081810360008301526130d88161309c565b9050919050565b7f45434453413a20696e76616c6964207369676e6174757265202773272076616c60008201527f7565000000000000000000000000000000000000000000000000000000000000602082015250565b600061313b602283612528565b9150613146826130df565b604082019050919050565b6000602082019050818103600083015261316a8161312e565b9050919050565b7f45434453413a20696e76616c6964207369676e6174757265202776272076616c60008201527f7565000000000000000000000000000000000000000000000000000000000000602082015250565b60006131cd602283612528565b91506131d882613171565b604082019050919050565b600060208201905081810360008301526131fc816131c0565b9050919050565b7f4e487b7100000000000000000000000000000000000000000000000000000000600052601160045260246000fd5b600061323d8261242e565b91506132488361242e565b9250817fffffffffffffffffffffffffffffffffffffffffffffffffffffffffffffffff048311821515161561328157613280613203565b5b828202905092915050565b60006132978261242e565b91506132a28361242e565b9250827fffffffffffffffffffffffffffffffffffffffffffffffffffffffffffffffff038211156132d7576132d6613203565b5b828201905092915050565b7f4e487b7100000000000000000000000000000000000000000000000000000000600052603260045260246000fd5b600061331c8261242e565b915060008214156133305761332f613203565b5b600182039050919050565b7f537472696e67733a20686578206c656e67746820696e73756666696369656e74600082015250565b6000613371602083612528565b915061337c8261333b565b602082019050919050565b600060208201905081810360008301526133a081613364565b9050919050565b7f416464726573733a2064656c65676174652063616c6c20746f206e6f6e2d636f60008201527f6e74726163740000000000000000000000000000000000000000000000000000602082015250565b6000613403602683612528565b915061340e826133a7565b604082019050919050565b60006020820190508181036000830152613432816133f6565b9050919050565b600081519050919050565b600061344f82613439565b6134598185612859565b9350613469818560208601612e01565b80840191505092915050565b60006134818284613444565b915081905092915050565b6134958161293e565b82525050565b60006080820190506134b060008301876120aa565b6134bd602083018661348c565b6134ca60408301856120aa565b6134d760608301846120aa565b9594505050505056fe416464726573733a206c6f772d6c6576656c2064656c65676174652063616c6c206661696c6564a26469706673582212200578ce0989c953089645935076d82fc5fe5751fafbe9d4028de5c9beb04ce5f564736f6c63430008090033",
  "devdoc": {
    "author": "Kinetex Team",
    "custom:security-contact": "semkin.eth@gmail.com*",
    "kind": "dev",
    "methods": {
      "constructor": {
        "custom:oz-upgrades-unsafe-allow": "constructor"
      },
      "getIssuer(address)": {
        "details": "Returns the signature issuer for a consumer"
      },
      "getRoleAdmin(bytes32)": {
        "details": "Returns the admin role that controls `role`. See {grantRole} and {revokeRole}. To change a role's admin, use {_setRoleAdmin}."
      },
      "grantRole(bytes32,address)": {
        "details": "Grants `role` to `account`. If `account` had not been already granted `role`, emits a {RoleGranted} event. Requirements: - the caller must have ``role``'s admin role. May emit a {RoleGranted} event."
      },
      "hasRole(bytes32,address)": {
        "details": "Returns `true` if `account` has been granted `role`."
      },
      "initialize()": {
        "details": "Proxy initializer. _consumerIdCounter starts from 1."
      },
      "proxiableUUID()": {
        "details": "Implementation of the ERC1822 {proxiableUUID} function. This returns the storage slot used by the implementation. It is used to validate the implementation's compatibility when performing an upgrade. IMPORTANT: A proxy pointing at a proxiable contract should not be considered proxiable itself, because this risks bricking a proxy that upgrades to it, by delegating to itself until out of gas. Thus it is critical that this function revert if invoked through a proxy. This is guaranteed by the `notDelegated` modifier."
      },
      "registerConsumer(address,address)": {
        "details": "Refer Refer to ISignatureManager.sol"
      },
      "renounceRole(bytes32,address)": {
        "details": "Revokes `role` from the calling account. Roles are often managed via {grantRole} and {revokeRole}: this function's purpose is to provide a mechanism for accounts to lose their privileges if they are compromised (such as when a trusted device is misplaced). If the calling account had been revoked `role`, emits a {RoleRevoked} event. Requirements: - the caller must be `account`. May emit a {RoleRevoked} event."
      },
      "revokeRole(bytes32,address)": {
        "details": "Revokes `role` from `account`. If `account` had been granted `role`, emits a {RoleRevoked} event. Requirements: - the caller must have ``role``'s admin role. May emit a {RoleRevoked} event."
      },
      "setIssuer(address,address)": {
        "details": "Refer to ISignatureManager.sol"
      },
      "supportsInterface(bytes4)": {
        "details": "See {IERC165-supportsInterface}."
      },
      "upgradeTo(address)": {
        "details": "Upgrade the implementation of the proxy to `newImplementation`. Calls {_authorizeUpgrade}. Emits an {Upgraded} event."
      },
      "upgradeToAndCall(address,bytes)": {
        "details": "Upgrade the implementation of the proxy to `newImplementation`, and subsequently execute the function call encoded in `data`. Calls {_authorizeUpgrade}. Emits an {Upgraded} event."
      },
      "useSignature(bytes)": {
        "details": "Refer to ISignatureManager.sol"
      },
      "verifySignature(address,uint256,uint256,bytes,address)": {
        "details": "Refer to ISignatureManager.sol"
      }
    },
    "title": "Signature Manager",
    "version": 1
  },
  "userdoc": {
    "kind": "user",
    "methods": {
      "initialize()": {
        "notice": "Initialize the contract and grant roles to the deployer"
      },
      "registerConsumer(address,address)": {
        "notice": "Registeres a consumer"
      },
      "verifySignature(address,uint256,uint256,bytes,address)": {
        "notice": "Checks is a signature is valid and not used already"
      }
    },
    "notice": "Verifies and stores the signatures signed by an issuer entity.",
    "version": 1
  },
  "storageLayout": {
    "storage": [
      {
        "astId": 804,
        "contract": "contracts/cryptography/SignatureManager.sol:SignatureManager",
        "label": "_initialized",
        "offset": 0,
        "slot": "0",
        "type": "t_uint8"
      },
      {
        "astId": 807,
        "contract": "contracts/cryptography/SignatureManager.sol:SignatureManager",
        "label": "_initializing",
        "offset": 1,
        "slot": "0",
        "type": "t_bool"
      },
      {
        "astId": 1427,
        "contract": "contracts/cryptography/SignatureManager.sol:SignatureManager",
        "label": "__gap",
        "offset": 0,
        "slot": "1",
        "type": "t_array(t_uint256)50_storage"
      },
      {
        "astId": 1706,
        "contract": "contracts/cryptography/SignatureManager.sol:SignatureManager",
        "label": "__gap",
        "offset": 0,
        "slot": "51",
        "type": "t_array(t_uint256)50_storage"
      },
      {
        "astId": 39,
        "contract": "contracts/cryptography/SignatureManager.sol:SignatureManager",
        "label": "_roles",
        "offset": 0,
        "slot": "101",
        "type": "t_mapping(t_bytes32,t_struct(RoleData)34_storage)"
      },
      {
        "astId": 334,
        "contract": "contracts/cryptography/SignatureManager.sol:SignatureManager",
        "label": "__gap",
        "offset": 0,
        "slot": "102",
        "type": "t_array(t_uint256)49_storage"
      },
      {
        "astId": 786,
        "contract": "contracts/cryptography/SignatureManager.sol:SignatureManager",
        "label": "__gap",
        "offset": 0,
        "slot": "151",
        "type": "t_array(t_uint256)50_storage"
      },
      {
        "astId": 1101,
        "contract": "contracts/cryptography/SignatureManager.sol:SignatureManager",
        "label": "__gap",
        "offset": 0,
        "slot": "201",
        "type": "t_array(t_uint256)50_storage"
      },
      {
        "astId": 3268,
        "contract": "contracts/cryptography/SignatureManager.sol:SignatureManager",
        "label": "_issuerByConsumerAddress",
        "offset": 0,
        "slot": "251",
        "type": "t_mapping(t_address,t_address)"
      },
      {
        "astId": 3274,
        "contract": "contracts/cryptography/SignatureManager.sol:SignatureManager",
        "label": "_usedSignaturesByConsumer",
        "offset": 0,
        "slot": "252",
        "type": "t_mapping(t_address,t_mapping(t_bytes_memory_ptr,t_bool))"
      },
      {
        "astId": 3278,
        "contract": "contracts/cryptography/SignatureManager.sol:SignatureManager",
        "label": "__gap",
        "offset": 0,
        "slot": "253",
        "type": "t_array(t_uint256)97_storage"
      }
    ],
    "types": {
      "t_address": {
        "encoding": "inplace",
        "label": "address",
        "numberOfBytes": "20"
      },
      "t_array(t_uint256)49_storage": {
        "base": "t_uint256",
        "encoding": "inplace",
        "label": "uint256[49]",
        "numberOfBytes": "1568"
      },
      "t_array(t_uint256)50_storage": {
        "base": "t_uint256",
        "encoding": "inplace",
        "label": "uint256[50]",
        "numberOfBytes": "1600"
      },
      "t_array(t_uint256)97_storage": {
        "base": "t_uint256",
        "encoding": "inplace",
        "label": "uint256[97]",
        "numberOfBytes": "3104"
      },
      "t_bool": {
        "encoding": "inplace",
        "label": "bool",
        "numberOfBytes": "1"
      },
      "t_bytes32": {
        "encoding": "inplace",
        "label": "bytes32",
        "numberOfBytes": "32"
      },
      "t_bytes_memory_ptr": {
        "encoding": "bytes",
        "label": "bytes",
        "numberOfBytes": "32"
      },
      "t_mapping(t_address,t_address)": {
        "encoding": "mapping",
        "key": "t_address",
        "label": "mapping(address => address)",
        "numberOfBytes": "32",
        "value": "t_address"
      },
      "t_mapping(t_address,t_bool)": {
        "encoding": "mapping",
        "key": "t_address",
        "label": "mapping(address => bool)",
        "numberOfBytes": "32",
        "value": "t_bool"
      },
      "t_mapping(t_address,t_mapping(t_bytes_memory_ptr,t_bool))": {
        "encoding": "mapping",
        "key": "t_address",
        "label": "mapping(address => mapping(bytes => bool))",
        "numberOfBytes": "32",
        "value": "t_mapping(t_bytes_memory_ptr,t_bool)"
      },
      "t_mapping(t_bytes32,t_struct(RoleData)34_storage)": {
        "encoding": "mapping",
        "key": "t_bytes32",
        "label": "mapping(bytes32 => struct AccessControlUpgradeable.RoleData)",
        "numberOfBytes": "32",
        "value": "t_struct(RoleData)34_storage"
      },
      "t_mapping(t_bytes_memory_ptr,t_bool)": {
        "encoding": "mapping",
        "key": "t_bytes_memory_ptr",
        "label": "mapping(bytes => bool)",
        "numberOfBytes": "32",
        "value": "t_bool"
      },
      "t_struct(RoleData)34_storage": {
        "encoding": "inplace",
        "label": "struct AccessControlUpgradeable.RoleData",
        "members": [
          {
            "astId": 31,
            "contract": "contracts/cryptography/SignatureManager.sol:SignatureManager",
            "label": "members",
            "offset": 0,
            "slot": "0",
            "type": "t_mapping(t_address,t_bool)"
          },
          {
            "astId": 33,
            "contract": "contracts/cryptography/SignatureManager.sol:SignatureManager",
            "label": "adminRole",
            "offset": 0,
            "slot": "1",
            "type": "t_bytes32"
          }
        ],
        "numberOfBytes": "64"
      },
      "t_uint256": {
        "encoding": "inplace",
        "label": "uint256",
        "numberOfBytes": "32"
      },
      "t_uint8": {
        "encoding": "inplace",
        "label": "uint8",
        "numberOfBytes": "1"
      }
    }
  }
}