{
  "address": "0x0C03c35a6eC014A9622CD9a43D32Dbab6bA06d16",
  "abi": [
    {
      "inputs": [],
      "stateMutability": "nonpayable",
      "type": "constructor"
    },
    {
      "anonymous": false,
      "inputs": [
        {
          "indexed": false,
          "internalType": "address",
          "name": "previousAdmin",
          "type": "address"
        },
        {
          "indexed": false,
          "internalType": "address",
          "name": "newAdmin",
          "type": "address"
        }
      ],
      "name": "AdminChanged",
      "type": "event"
    },
    {
      "anonymous": false,
      "inputs": [
        {
          "indexed": true,
          "internalType": "address",
          "name": "beacon",
          "type": "address"
        }
      ],
      "name": "BeaconUpgraded",
      "type": "event"
    },
    {
      "anonymous": false,
      "inputs": [
        {
          "indexed": false,
          "internalType": "uint8",
          "name": "version",
          "type": "uint8"
        }
      ],
      "name": "Initialized",
      "type": "event"
    },
    {
      "anonymous": false,
      "inputs": [
        {
          "indexed": true,
          "internalType": "bytes32",
          "name": "role",
          "type": "bytes32"
        },
        {
          "indexed": true,
          "internalType": "bytes32",
          "name": "previousAdminRole",
          "type": "bytes32"
        },
        {
          "indexed": true,
          "internalType": "bytes32",
          "name": "newAdminRole",
          "type": "bytes32"
        }
      ],
      "name": "RoleAdminChanged",
      "type": "event"
    },
    {
      "anonymous": false,
      "inputs": [
        {
          "indexed": true,
          "internalType": "bytes32",
          "name": "role",
          "type": "bytes32"
        },
        {
          "indexed": true,
          "internalType": "address",
          "name": "account",
          "type": "address"
        },
        {
          "indexed": true,
          "internalType": "address",
          "name": "sender",
          "type": "address"
        }
      ],
      "name": "RoleGranted",
      "type": "event"
    },
    {
      "anonymous": false,
      "inputs": [
        {
          "indexed": true,
          "internalType": "bytes32",
          "name": "role",
          "type": "bytes32"
        },
        {
          "indexed": true,
          "internalType": "address",
          "name": "account",
          "type": "address"
        },
        {
          "indexed": true,
          "internalType": "address",
          "name": "sender",
          "type": "address"
        }
      ],
      "name": "RoleRevoked",
      "type": "event"
    },
    {
      "anonymous": false,
      "inputs": [
        {
          "indexed": true,
          "internalType": "address",
          "name": "implementation",
          "type": "address"
        }
      ],
      "name": "Upgraded",
      "type": "event"
    },
    {
      "inputs": [],
      "name": "CONSUMER_ROLE",
      "outputs": [
        {
          "internalType": "bytes32",
          "name": "",
          "type": "bytes32"
        }
      ],
      "stateMutability": "view",
      "type": "function"
    },
    {
      "inputs": [],
      "name": "DEFAULT_ADMIN_ROLE",
      "outputs": [
        {
          "internalType": "bytes32",
          "name": "",
          "type": "bytes32"
        }
      ],
      "stateMutability": "view",
      "type": "function"
    },
    {
      "inputs": [
        {
          "internalType": "bytes32",
          "name": "role",
          "type": "bytes32"
        }
      ],
      "name": "getRoleAdmin",
      "outputs": [
        {
          "internalType": "bytes32",
          "name": "",
          "type": "bytes32"
        }
      ],
      "stateMutability": "view",
      "type": "function"
    },
    {
      "inputs": [
        {
          "internalType": "bytes32",
          "name": "role",
          "type": "bytes32"
        },
        {
          "internalType": "address",
          "name": "account",
          "type": "address"
        }
      ],
      "name": "grantRole",
      "outputs": [],
      "stateMutability": "nonpayable",
      "type": "function"
    },
    {
      "inputs": [
        {
          "internalType": "bytes32",
          "name": "role",
          "type": "bytes32"
        },
        {
          "internalType": "address",
          "name": "account",
          "type": "address"
        }
      ],
      "name": "hasRole",
      "outputs": [
        {
          "internalType": "bool",
          "name": "",
          "type": "bool"
        }
      ],
      "stateMutability": "view",
      "type": "function"
    },
    {
      "inputs": [],
      "name": "initialize",
      "outputs": [],
      "stateMutability": "nonpayable",
      "type": "function"
    },
    {
      "inputs": [],
      "name": "proxiableUUID",
      "outputs": [
        {
          "internalType": "bytes32",
          "name": "",
          "type": "bytes32"
        }
      ],
      "stateMutability": "view",
      "type": "function"
    },
    {
      "inputs": [
        {
          "internalType": "address",
          "name": "_consumer",
          "type": "address"
        },
        {
          "internalType": "address",
          "name": "_issuer",
          "type": "address"
        }
      ],
      "name": "registerConsumer",
      "outputs": [],
      "stateMutability": "nonpayable",
      "type": "function"
    },
    {
      "inputs": [
        {
          "internalType": "bytes32",
          "name": "role",
          "type": "bytes32"
        },
        {
          "internalType": "address",
          "name": "account",
          "type": "address"
        }
      ],
      "name": "renounceRole",
      "outputs": [],
      "stateMutability": "nonpayable",
      "type": "function"
    },
    {
      "inputs": [
        {
          "internalType": "bytes32",
          "name": "role",
          "type": "bytes32"
        },
        {
          "internalType": "address",
          "name": "account",
          "type": "address"
        }
      ],
      "name": "revokeRole",
      "outputs": [],
      "stateMutability": "nonpayable",
      "type": "function"
    },
    {
      "inputs": [
        {
          "internalType": "address",
          "name": "_issuer",
          "type": "address"
        }
      ],
      "name": "setIssuer",
      "outputs": [],
      "stateMutability": "nonpayable",
      "type": "function"
    },
    {
      "inputs": [
        {
          "internalType": "bytes4",
          "name": "interfaceId",
          "type": "bytes4"
        }
      ],
      "name": "supportsInterface",
      "outputs": [
        {
          "internalType": "bool",
          "name": "",
          "type": "bool"
        }
      ],
      "stateMutability": "view",
      "type": "function"
    },
    {
      "inputs": [
        {
          "internalType": "address",
          "name": "newImplementation",
          "type": "address"
        }
      ],
      "name": "upgradeTo",
      "outputs": [],
      "stateMutability": "nonpayable",
      "type": "function"
    },
    {
      "inputs": [
        {
          "internalType": "address",
          "name": "newImplementation",
          "type": "address"
        },
        {
          "internalType": "bytes",
          "name": "data",
          "type": "bytes"
        }
      ],
      "name": "upgradeToAndCall",
      "outputs": [],
      "stateMutability": "payable",
      "type": "function"
    },
    {
      "inputs": [
        {
          "internalType": "bytes",
          "name": "_signature",
          "type": "bytes"
        }
      ],
      "name": "useSignature",
      "outputs": [],
      "stateMutability": "nonpayable",
      "type": "function"
    },
    {
      "inputs": [
        {
          "internalType": "address",
          "name": "_to",
          "type": "address"
        },
        {
          "internalType": "uint256",
          "name": "_attribute",
          "type": "uint256"
        },
        {
          "internalType": "uint256",
          "name": "_nonce",
          "type": "uint256"
        },
        {
          "internalType": "bytes",
          "name": "_signature",
          "type": "bytes"
        },
        {
          "internalType": "address",
          "name": "_consumer",
          "type": "address"
        }
      ],
      "name": "verifySignature",
      "outputs": [
        {
          "internalType": "bool",
          "name": "",
          "type": "bool"
        }
      ],
      "stateMutability": "view",
      "type": "function"
    }
  ],
  "numDeployments": 1,
  "solcInputHash": "0e0f2a8d02c3d94c30cc275c820ee969",
  "bytecode": "0x60a06040523073ffffffffffffffffffffffffffffffffffffffff1660809073ffffffffffffffffffffffffffffffffffffffff168152503480156200004457600080fd5b50620000556200005b60201b60201c565b62000206565b600060019054906101000a900460ff1615620000ae576040517f08c379a0000000000000000000000000000000000000000000000000000000008152600401620000a590620001a9565b60405180910390fd5b60ff801660008054906101000a900460ff1660ff161015620001205760ff6000806101000a81548160ff021916908360ff1602179055507f7f26b83ff96e1f2b6a682f133852f6798a09c465da95921460cefb384740249860ff604051620001179190620001e9565b60405180910390a15b565b600082825260208201905092915050565b7f496e697469616c697a61626c653a20636f6e747261637420697320696e69746960008201527f616c697a696e6700000000000000000000000000000000000000000000000000602082015250565b60006200019160278362000122565b91506200019e8262000133565b604082019050919050565b60006020820190508181036000830152620001c48162000182565b9050919050565b600060ff82169050919050565b620001e381620001cb565b82525050565b6000602082019050620002006000830184620001d8565b92915050565b60805161331a6200023e600039600081816104ff0152818161058e015281816106b00152818161073f01526107ef015261331a6000f3fe6080604052600436106100f35760003560e01c806355cc4e571161008a57806391d148541161005957806391d14854146102f157806392e0a3291461032e578063a217fddf1461036b578063d547741f14610396576100f3565b806355cc4e571461025f5780635e00785f14610288578063773c3fff146102b15780638129fc1c146102da576100f3565b80633659cfe6116100c65780633659cfe6146101c45780634bc02da6146101ed5780634f1ef2861461021857806352d1902d14610234576100f3565b806301ffc9a7146100f8578063248a9ca3146101355780632f2ff15d1461017257806336568abe1461019b575b600080fd5b34801561010457600080fd5b5061011f600480360381019061011a9190611e57565b6103bf565b60405161012c9190611e9f565b60405180910390f35b34801561014157600080fd5b5061015c60048036038101906101579190611ef0565b610439565b6040516101699190611f2c565b60405180910390f35b34801561017e57600080fd5b5061019960048036038101906101949190611fa5565b610459565b005b3480156101a757600080fd5b506101c260048036038101906101bd9190611fa5565b61047a565b005b3480156101d057600080fd5b506101eb60048036038101906101e69190611fe5565b6104fd565b005b3480156101f957600080fd5b50610202610686565b60405161020f9190611f2c565b60405180910390f35b610232600480360381019061022d9190612158565b6106ae565b005b34801561024057600080fd5b506102496107eb565b6040516102569190611f2c565b60405180910390f35b34801561026b57600080fd5b5061028660048036038101906102819190611fe5565b6108a4565b005b34801561029457600080fd5b506102af60048036038101906102aa91906121b4565b610954565b005b3480156102bd57600080fd5b506102d860048036038101906102d39190612254565b610ab2565b005b3480156102e657600080fd5b506102ef610b5b565b005b3480156102fd57600080fd5b5061031860048036038101906103139190611fa5565b610cae565b6040516103259190611e9f565b60405180910390f35b34801561033a57600080fd5b50610355600480360381019061035091906122d7565b610d19565b6040516103629190611e9f565b60405180910390f35b34801561037757600080fd5b50610380610f29565b60405161038d9190611f2c565b60405180910390f35b3480156103a257600080fd5b506103bd60048036038101906103b89190611fa5565b610f30565b005b60007f7965db0b000000000000000000000000000000000000000000000000000000007bffffffffffffffffffffffffffffffffffffffffffffffffffffffff1916827bffffffffffffffffffffffffffffffffffffffffffffffffffffffff19161480610432575061043182610f51565b5b9050919050565b600060656000838152602001908152602001600020600101549050919050565b61046282610439565b61046b81610fbb565b6104758383610fcf565b505050565b6104826110b0565b73ffffffffffffffffffffffffffffffffffffffff168173ffffffffffffffffffffffffffffffffffffffff16146104ef576040517f08c379a00000000000000000000000000000000000000000000000000000000081526004016104e6906123f4565b60405180910390fd5b6104f982826110b8565b5050565b7f000000000000000000000000000000000000000000000000000000000000000073ffffffffffffffffffffffffffffffffffffffff163073ffffffffffffffffffffffffffffffffffffffff16141561058c576040517f08c379a000000000000000000000000000000000000000000000000000000000815260040161058390612486565b60405180910390fd5b7f000000000000000000000000000000000000000000000000000000000000000073ffffffffffffffffffffffffffffffffffffffff166105cb61119a565b73ffffffffffffffffffffffffffffffffffffffff1614610621576040517f08c379a000000000000000000000000000000000000000000000000000000000815260040161061890612518565b60405180910390fd5b61062a816111f1565b61068381600067ffffffffffffffff8111156106495761064861202d565b5b6040519080825280601f01601f19166020018201604052801561067b5781602001600182028036833780820191505090505b506000611202565b50565b6040516020016106959061258f565b6040516020818303038152906040528051906020012081565b7f000000000000000000000000000000000000000000000000000000000000000073ffffffffffffffffffffffffffffffffffffffff163073ffffffffffffffffffffffffffffffffffffffff16141561073d576040517f08c379a000000000000000000000000000000000000000000000000000000000815260040161073490612486565b60405180910390fd5b7f000000000000000000000000000000000000000000000000000000000000000073ffffffffffffffffffffffffffffffffffffffff1661077c61119a565b73ffffffffffffffffffffffffffffffffffffffff16146107d2576040517f08c379a00000000000000000000000000000000000000000000000000000000081526004016107c990612518565b60405180910390fd5b6107db826111f1565b6107e782826001611202565b5050565b60007f000000000000000000000000000000000000000000000000000000000000000073ffffffffffffffffffffffffffffffffffffffff163073ffffffffffffffffffffffffffffffffffffffff161461087b576040517f08c379a000000000000000000000000000000000000000000000000000000000815260040161087290612616565b60405180910390fd5b7f360894a13ba1a3210667c828492db98dca3e2076cc3735a920a3ca505d382bbc60001b905090565b6040516020016108b39061258f565b604051602081830303815290604052805190602001206108d281610fbb565b8160fb60003373ffffffffffffffffffffffffffffffffffffffff1673ffffffffffffffffffffffffffffffffffffffff16815260200190815260200160002060006101000a81548173ffffffffffffffffffffffffffffffffffffffff021916908373ffffffffffffffffffffffffffffffffffffffff1602179055505050565b6000801b61096181610fbb565b600073ffffffffffffffffffffffffffffffffffffffff1660fb60008573ffffffffffffffffffffffffffffffffffffffff1673ffffffffffffffffffffffffffffffffffffffff16815260200190815260200160002060009054906101000a900473ffffffffffffffffffffffffffffffffffffffff1673ffffffffffffffffffffffffffffffffffffffff1614610a2f576040517f08c379a0000000000000000000000000000000000000000000000000000000008152600401610a2690612682565b60405180910390fd5b8160fb60008573ffffffffffffffffffffffffffffffffffffffff1673ffffffffffffffffffffffffffffffffffffffff16815260200190815260200160002060006101000a81548173ffffffffffffffffffffffffffffffffffffffff021916908373ffffffffffffffffffffffffffffffffffffffff160217905550505050565b604051602001610ac19061258f565b60405160208183030381529060405280519060200120610ae081610fbb565b600160fc60003373ffffffffffffffffffffffffffffffffffffffff1673ffffffffffffffffffffffffffffffffffffffff1681526020019081526020016000208484604051610b319291906126d2565b908152602001604051809103902060006101000a81548160ff021916908315150217905550505050565b60008060019054906101000a900460ff16159050808015610b8c5750600160008054906101000a900460ff1660ff16105b80610bb95750610b9b3061137f565b158015610bb85750600160008054906101000a900460ff1660ff16145b5b610bf8576040517f08c379a0000000000000000000000000000000000000000000000000000000008152600401610bef9061275d565b60405180910390fd5b60016000806101000a81548160ff021916908360ff1602179055508015610c35576001600060016101000a81548160ff0219169083151502179055505b610c3d6113a2565b610c456113f3565b610c526000801b33610fcf565b8015610cab5760008060016101000a81548160ff0219169083151502179055507f7f26b83ff96e1f2b6a682f133852f6798a09c465da95921460cefb38474024986001604051610ca291906127cf565b60405180910390a15b50565b60006065600084815260200190815260200160002060000160008373ffffffffffffffffffffffffffffffffffffffff1673ffffffffffffffffffffffffffffffffffffffff16815260200190815260200160002060009054906101000a900460ff16905092915050565b60008060fb60008473ffffffffffffffffffffffffffffffffffffffff1673ffffffffffffffffffffffffffffffffffffffff16815260200190815260200160002060009054906101000a900473ffffffffffffffffffffffffffffffffffffffff169050600073ffffffffffffffffffffffffffffffffffffffff168173ffffffffffffffffffffffffffffffffffffffff161415610dee576040517f08c379a0000000000000000000000000000000000000000000000000000000008152600401610de590612836565b60405180910390fd5b6000888888604051602001610e05939291906128bf565b6040516020818303038152906040528051906020012090506000610e2882611444565b90508273ffffffffffffffffffffffffffffffffffffffff16610e8f8289898080601f016020809104026020016040519081016040528093929190818152602001838380828437600081840152601f19601f82011690508083019250505050505050611474565b73ffffffffffffffffffffffffffffffffffffffff16148015610f1a575060fc60008673ffffffffffffffffffffffffffffffffffffffff1673ffffffffffffffffffffffffffffffffffffffff1681526020019081526020016000208787604051610efc9291906126d2565b908152602001604051809103902060009054906101000a900460ff16155b93505050509695505050505050565b6000801b81565b610f3982610439565b610f4281610fbb565b610f4c83836110b8565b505050565b60007f01ffc9a7000000000000000000000000000000000000000000000000000000007bffffffffffffffffffffffffffffffffffffffffffffffffffffffff1916827bffffffffffffffffffffffffffffffffffffffffffffffffffffffff1916149050919050565b610fcc81610fc76110b0565b61149b565b50565b610fd98282610cae565b6110ac5760016065600084815260200190815260200160002060000160008373ffffffffffffffffffffffffffffffffffffffff1673ffffffffffffffffffffffffffffffffffffffff16815260200190815260200160002060006101000a81548160ff0219169083151502179055506110516110b0565b73ffffffffffffffffffffffffffffffffffffffff168173ffffffffffffffffffffffffffffffffffffffff16837f2f8788117e7eff1d82e926ec794901d17c78024a50270940304540a733656f0d60405160405180910390a45b5050565b600033905090565b6110c28282610cae565b156111965760006065600084815260200190815260200160002060000160008373ffffffffffffffffffffffffffffffffffffffff1673ffffffffffffffffffffffffffffffffffffffff16815260200190815260200160002060006101000a81548160ff02191690831515021790555061113b6110b0565b73ffffffffffffffffffffffffffffffffffffffff168173ffffffffffffffffffffffffffffffffffffffff16837ff6391f5c32d9c69d2a47ea670b442974b53935d1edc7fd64eb21e047a839171b60405160405180910390a45b5050565b60006111c87f360894a13ba1a3210667c828492db98dca3e2076cc3735a920a3ca505d382bbc60001b611520565b60000160009054906101000a900473ffffffffffffffffffffffffffffffffffffffff16905090565b6000801b6111fe81610fbb565b5050565b61122e7f4910fdfa16fed3260ed0e7147f7cc6da11a60208b5b9406d12a635614ffd914360001b61152a565b60000160009054906101000a900460ff16156112525761124d83611534565b61137a565b8273ffffffffffffffffffffffffffffffffffffffff166352d1902d6040518163ffffffff1660e01b815260040160206040518083038186803b15801561129857600080fd5b505afa9250505080156112c957506040513d601f19601f820116820180604052508101906112c69190612911565b60015b611308576040517f08c379a00000000000000000000000000000000000000000000000000000000081526004016112ff906129b0565b60405180910390fd5b7f360894a13ba1a3210667c828492db98dca3e2076cc3735a920a3ca505d382bbc60001b811461136d576040517f08c379a000000000000000000000000000000000000000000000000000000000815260040161136490612a42565b60405180910390fd5b506113798383836115ed565b5b505050565b6000808273ffffffffffffffffffffffffffffffffffffffff163b119050919050565b600060019054906101000a900460ff166113f1576040517f08c379a00000000000000000000000000000000000000000000000000000000081526004016113e890612ad4565b60405180910390fd5b565b600060019054906101000a900460ff16611442576040517f08c379a000000000000000000000000000000000000000000000000000000000815260040161143990612ad4565b60405180910390fd5b565b6000816040516020016114579190612b61565b604051602081830303815290604052805190602001209050919050565b60008060006114838585611619565b915091506114908161169c565b819250505092915050565b6114a58282610cae565b61151c576114b281611871565b6114c08360001c602061189e565b6040516020016114d1929190612c8e565b6040516020818303038152906040526040517f08c379a00000000000000000000000000000000000000000000000000000000081526004016115139190612d01565b60405180910390fd5b5050565b6000819050919050565b6000819050919050565b61153d8161137f565b61157c576040517f08c379a000000000000000000000000000000000000000000000000000000000815260040161157390612d95565b60405180910390fd5b806115a97f360894a13ba1a3210667c828492db98dca3e2076cc3735a920a3ca505d382bbc60001b611520565b60000160006101000a81548173ffffffffffffffffffffffffffffffffffffffff021916908373ffffffffffffffffffffffffffffffffffffffff16021790555050565b6115f683611ada565b6000825111806116035750805b15611614576116128383611b29565b505b505050565b60008060418351141561165b5760008060006020860151925060408601519150606086015160001a905061164f87828585611c0d565b94509450505050611695565b60408351141561168c576000806020850151915060408501519050611681868383611d1a565b935093505050611695565b60006002915091505b9250929050565b600060048111156116b0576116af612db5565b5b8160048111156116c3576116c2612db5565b5b14156116ce5761186e565b600160048111156116e2576116e1612db5565b5b8160048111156116f5576116f4612db5565b5b1415611736576040517f08c379a000000000000000000000000000000000000000000000000000000000815260040161172d90612e30565b60405180910390fd5b6002600481111561174a57611749612db5565b5b81600481111561175d5761175c612db5565b5b141561179e576040517f08c379a000000000000000000000000000000000000000000000000000000000815260040161179590612e9c565b60405180910390fd5b600360048111156117b2576117b1612db5565b5b8160048111156117c5576117c4612db5565b5b1415611806576040517f08c379a00000000000000000000000000000000000000000000000000000000081526004016117fd90612f2e565b60405180910390fd5b60048081111561181957611818612db5565b5b81600481111561182c5761182b612db5565b5b141561186d576040517f08c379a000000000000000000000000000000000000000000000000000000000815260040161186490612fc0565b60405180910390fd5b5b50565b60606118978273ffffffffffffffffffffffffffffffffffffffff16601460ff1661189e565b9050919050565b6060600060028360026118b1919061300f565b6118bb9190613069565b67ffffffffffffffff8111156118d4576118d361202d565b5b6040519080825280601f01601f1916602001820160405280156119065781602001600182028036833780820191505090505b5090507f30000000000000000000000000000000000000000000000000000000000000008160008151811061193e5761193d6130bf565b5b60200101907effffffffffffffffffffffffffffffffffffffffffffffffffffffffffffff1916908160001a9053507f7800000000000000000000000000000000000000000000000000000000000000816001815181106119a2576119a16130bf565b5b60200101907effffffffffffffffffffffffffffffffffffffffffffffffffffffffffffff1916908160001a905350600060018460026119e2919061300f565b6119ec9190613069565b90505b6001811115611a8c577f3031323334353637383961626364656600000000000000000000000000000000600f861660108110611a2e57611a2d6130bf565b5b1a60f81b828281518110611a4557611a446130bf565b5b60200101907effffffffffffffffffffffffffffffffffffffffffffffffffffffffffffff1916908160001a905350600485901c945080611a85906130ee565b90506119ef565b5060008414611ad0576040517f08c379a0000000000000000000000000000000000000000000000000000000008152600401611ac790613164565b60405180910390fd5b8091505092915050565b611ae381611534565b8073ffffffffffffffffffffffffffffffffffffffff167fbc7cd75a20ee27fd9adebab32041f755214dbc6bffa90cc0225b39da2e5c2d3b60405160405180910390a250565b6060611b348361137f565b611b73576040517f08c379a0000000000000000000000000000000000000000000000000000000008152600401611b6a906131f6565b60405180910390fd5b6000808473ffffffffffffffffffffffffffffffffffffffff1684604051611b9b9190613252565b600060405180830381855af49150503d8060008114611bd6576040519150601f19603f3d011682016040523d82523d6000602084013e611bdb565b606091505b5091509150611c0382826040518060600160405280602781526020016132be60279139611d79565b9250505092915050565b6000807f7fffffffffffffffffffffffffffffff5d576e7357a4501ddfe92f46681b20a08360001c1115611c48576000600391509150611d11565b601b8560ff1614158015611c605750601c8560ff1614155b15611c72576000600491509150611d11565b600060018787878760405160008152602001604052604051611c979493929190613278565b6020604051602081039080840390855afa158015611cb9573d6000803e3d6000fd5b505050602060405103519050600073ffffffffffffffffffffffffffffffffffffffff168173ffffffffffffffffffffffffffffffffffffffff161415611d0857600060019250925050611d11565b80600092509250505b94509492505050565b60008060007f7fffffffffffffffffffffffffffffffffffffffffffffffffffffffffffffff60001b841690506000601b60ff8660001c901c611d5d9190613069565b9050611d6b87828885611c0d565b935093505050935093915050565b60608315611d8957829050611d94565b611d938383611d9b565b5b9392505050565b600082511115611dae5781518083602001fd5b806040517f08c379a0000000000000000000000000000000000000000000000000000000008152600401611de29190612d01565b60405180910390fd5b6000604051905090565b600080fd5b600080fd5b60007fffffffff0000000000000000000000000000000000000000000000000000000082169050919050565b611e3481611dff565b8114611e3f57600080fd5b50565b600081359050611e5181611e2b565b92915050565b600060208284031215611e6d57611e6c611df5565b5b6000611e7b84828501611e42565b91505092915050565b60008115159050919050565b611e9981611e84565b82525050565b6000602082019050611eb46000830184611e90565b92915050565b6000819050919050565b611ecd81611eba565b8114611ed857600080fd5b50565b600081359050611eea81611ec4565b92915050565b600060208284031215611f0657611f05611df5565b5b6000611f1484828501611edb565b91505092915050565b611f2681611eba565b82525050565b6000602082019050611f416000830184611f1d565b92915050565b600073ffffffffffffffffffffffffffffffffffffffff82169050919050565b6000611f7282611f47565b9050919050565b611f8281611f67565b8114611f8d57600080fd5b50565b600081359050611f9f81611f79565b92915050565b60008060408385031215611fbc57611fbb611df5565b5b6000611fca85828601611edb565b9250506020611fdb85828601611f90565b9150509250929050565b600060208284031215611ffb57611ffa611df5565b5b600061200984828501611f90565b91505092915050565b600080fd5b600080fd5b6000601f19601f8301169050919050565b7f4e487b7100000000000000000000000000000000000000000000000000000000600052604160045260246000fd5b6120658261201c565b810181811067ffffffffffffffff821117156120845761208361202d565b5b80604052505050565b6000612097611deb565b90506120a3828261205c565b919050565b600067ffffffffffffffff8211156120c3576120c261202d565b5b6120cc8261201c565b9050602081019050919050565b82818337600083830152505050565b60006120fb6120f6846120a8565b61208d565b90508281526020810184848401111561211757612116612017565b5b6121228482856120d9565b509392505050565b600082601f83011261213f5761213e612012565b5b813561214f8482602086016120e8565b91505092915050565b6000806040838503121561216f5761216e611df5565b5b600061217d85828601611f90565b925050602083013567ffffffffffffffff81111561219e5761219d611dfa565b5b6121aa8582860161212a565b9150509250929050565b600080604083850312156121cb576121ca611df5565b5b60006121d985828601611f90565b92505060206121ea85828601611f90565b9150509250929050565b600080fd5b600080fd5b60008083601f84011261221457612213612012565b5b8235905067ffffffffffffffff811115612231576122306121f4565b5b60208301915083600182028301111561224d5761224c6121f9565b5b9250929050565b6000806020838503121561226b5761226a611df5565b5b600083013567ffffffffffffffff81111561228957612288611dfa565b5b612295858286016121fe565b92509250509250929050565b6000819050919050565b6122b4816122a1565b81146122bf57600080fd5b50565b6000813590506122d1816122ab565b92915050565b60008060008060008060a087890312156122f4576122f3611df5565b5b600061230289828a01611f90565b965050602061231389828a016122c2565b955050604061232489828a016122c2565b945050606087013567ffffffffffffffff81111561234557612344611dfa565b5b61235189828a016121fe565b9350935050608061236489828a01611f90565b9150509295509295509295565b600082825260208201905092915050565b7f416363657373436f6e74726f6c3a2063616e206f6e6c792072656e6f756e636560008201527f20726f6c657320666f722073656c660000000000000000000000000000000000602082015250565b60006123de602f83612371565b91506123e982612382565b604082019050919050565b6000602082019050818103600083015261240d816123d1565b9050919050565b7f46756e6374696f6e206d7573742062652063616c6c6564207468726f7567682060008201527f64656c656761746563616c6c0000000000000000000000000000000000000000602082015250565b6000612470602c83612371565b915061247b82612414565b604082019050919050565b6000602082019050818103600083015261249f81612463565b9050919050565b7f46756e6374696f6e206d7573742062652063616c6c6564207468726f7567682060008201527f6163746976652070726f78790000000000000000000000000000000000000000602082015250565b6000612502602c83612371565b915061250d826124a6565b604082019050919050565b60006020820190508181036000830152612531816124f5565b9050919050565b600081905092915050565b7f434f4e53554d45525f524f4c4500000000000000000000000000000000000000600082015250565b6000612579600d83612538565b915061258482612543565b600d82019050919050565b600061259a8261256c565b9150819050919050565b7f555550535570677261646561626c653a206d757374206e6f742062652063616c60008201527f6c6564207468726f7567682064656c656761746563616c6c0000000000000000602082015250565b6000612600603883612371565b915061260b826125a4565b604082019050919050565b6000602082019050818103600083015261262f816125f3565b9050919050565b7f534d3a20436f6e73756d657220616c7265616479207265676973746572656400600082015250565b600061266c601f83612371565b915061267782612636565b602082019050919050565b6000602082019050818103600083015261269b8161265f565b9050919050565b600081905092915050565b60006126b983856126a2565b93506126c68385846120d9565b82840190509392505050565b60006126df8284866126ad565b91508190509392505050565b7f496e697469616c697a61626c653a20636f6e747261637420697320616c72656160008201527f647920696e697469616c697a6564000000000000000000000000000000000000602082015250565b6000612747602e83612371565b9150612752826126eb565b604082019050919050565b600060208201905081810360008301526127768161273a565b9050919050565b6000819050919050565b600060ff82169050919050565b6000819050919050565b60006127b96127b46127af8461277d565b612794565b612787565b9050919050565b6127c98161279e565b82525050565b60006020820190506127e460008301846127c0565b92915050565b7f534d3a204e6f2069737375657220666f7220636f6e73756d6572000000000000600082015250565b6000612820601a83612371565b915061282b826127ea565b602082019050919050565b6000602082019050818103600083015261284f81612813565b9050919050565b60008160601b9050919050565b600061286e82612856565b9050919050565b600061288082612863565b9050919050565b61289861289382611f67565b612875565b82525050565b6000819050919050565b6128b96128b4826122a1565b61289e565b82525050565b60006128cb8286612887565b6014820191506128db82856128a8565b6020820191506128eb82846128a8565b602082019150819050949350505050565b60008151905061290b81611ec4565b92915050565b60006020828403121561292757612926611df5565b5b6000612935848285016128fc565b91505092915050565b7f45524331393637557067726164653a206e657720696d706c656d656e7461746960008201527f6f6e206973206e6f742055555053000000000000000000000000000000000000602082015250565b600061299a602e83612371565b91506129a58261293e565b604082019050919050565b600060208201905081810360008301526129c98161298d565b9050919050565b7f45524331393637557067726164653a20756e737570706f727465642070726f7860008201527f6961626c65555549440000000000000000000000000000000000000000000000602082015250565b6000612a2c602983612371565b9150612a37826129d0565b604082019050919050565b60006020820190508181036000830152612a5b81612a1f565b9050919050565b7f496e697469616c697a61626c653a20636f6e7472616374206973206e6f74206960008201527f6e697469616c697a696e67000000000000000000000000000000000000000000602082015250565b6000612abe602b83612371565b9150612ac982612a62565b604082019050919050565b60006020820190508181036000830152612aed81612ab1565b9050919050565b7f19457468657265756d205369676e6564204d6573736167653a0a333200000000600082015250565b6000612b2a601c83612538565b9150612b3582612af4565b601c82019050919050565b6000819050919050565b612b5b612b5682611eba565b612b40565b82525050565b6000612b6c82612b1d565b9150612b788284612b4a565b60208201915081905092915050565b7f416363657373436f6e74726f6c3a206163636f756e7420000000000000000000600082015250565b6000612bbd601783612538565b9150612bc882612b87565b601782019050919050565b600081519050919050565b60005b83811015612bfc578082015181840152602081019050612be1565b83811115612c0b576000848401525b50505050565b6000612c1c82612bd3565b612c268185612538565b9350612c36818560208601612bde565b80840191505092915050565b7f206973206d697373696e6720726f6c6520000000000000000000000000000000600082015250565b6000612c78601183612538565b9150612c8382612c42565b601182019050919050565b6000612c9982612bb0565b9150612ca58285612c11565b9150612cb082612c6b565b9150612cbc8284612c11565b91508190509392505050565b6000612cd382612bd3565b612cdd8185612371565b9350612ced818560208601612bde565b612cf68161201c565b840191505092915050565b60006020820190508181036000830152612d1b8184612cc8565b905092915050565b7f455243313936373a206e657720696d706c656d656e746174696f6e206973206e60008201527f6f74206120636f6e747261637400000000000000000000000000000000000000602082015250565b6000612d7f602d83612371565b9150612d8a82612d23565b604082019050919050565b60006020820190508181036000830152612dae81612d72565b9050919050565b7f4e487b7100000000000000000000000000000000000000000000000000000000600052602160045260246000fd5b7f45434453413a20696e76616c6964207369676e61747572650000000000000000600082015250565b6000612e1a601883612371565b9150612e2582612de4565b602082019050919050565b60006020820190508181036000830152612e4981612e0d565b9050919050565b7f45434453413a20696e76616c6964207369676e6174757265206c656e67746800600082015250565b6000612e86601f83612371565b9150612e9182612e50565b602082019050919050565b60006020820190508181036000830152612eb581612e79565b9050919050565b7f45434453413a20696e76616c6964207369676e6174757265202773272076616c60008201527f7565000000000000000000000000000000000000000000000000000000000000602082015250565b6000612f18602283612371565b9150612f2382612ebc565b604082019050919050565b60006020820190508181036000830152612f4781612f0b565b9050919050565b7f45434453413a20696e76616c6964207369676e6174757265202776272076616c60008201527f7565000000000000000000000000000000000000000000000000000000000000602082015250565b6000612faa602283612371565b9150612fb582612f4e565b604082019050919050565b60006020820190508181036000830152612fd981612f9d565b9050919050565b7f4e487b7100000000000000000000000000000000000000000000000000000000600052601160045260246000fd5b600061301a826122a1565b9150613025836122a1565b9250817fffffffffffffffffffffffffffffffffffffffffffffffffffffffffffffffff048311821515161561305e5761305d612fe0565b5b828202905092915050565b6000613074826122a1565b915061307f836122a1565b9250827fffffffffffffffffffffffffffffffffffffffffffffffffffffffffffffffff038211156130b4576130b3612fe0565b5b828201905092915050565b7f4e487b7100000000000000000000000000000000000000000000000000000000600052603260045260246000fd5b60006130f9826122a1565b9150600082141561310d5761310c612fe0565b5b600182039050919050565b7f537472696e67733a20686578206c656e67746820696e73756666696369656e74600082015250565b600061314e602083612371565b915061315982613118565b602082019050919050565b6000602082019050818103600083015261317d81613141565b9050919050565b7f416464726573733a2064656c65676174652063616c6c20746f206e6f6e2d636f60008201527f6e74726163740000000000000000000000000000000000000000000000000000602082015250565b60006131e0602683612371565b91506131eb82613184565b604082019050919050565b6000602082019050818103600083015261320f816131d3565b9050919050565b600081519050919050565b600061322c82613216565b61323681856126a2565b9350613246818560208601612bde565b80840191505092915050565b600061325e8284613221565b915081905092915050565b61327281612787565b82525050565b600060808201905061328d6000830187611f1d565b61329a6020830186613269565b6132a76040830185611f1d565b6132b46060830184611f1d565b9594505050505056fe416464726573733a206c6f772d6c6576656c2064656c65676174652063616c6c206661696c6564a2646970667358221220061c15e8297aa1646dbc75f79094bb9ec60798305ce8dc775da85d3d316c4f2e64736f6c63430008090033",
  "devdoc": {
    "author": "Kinetex Team",
    "custom:security-contact": "semkin.eth@gmail.com*",
    "kind": "dev",
    "methods": {
      "constructor": {
        "custom:oz-upgrades-unsafe-allow": "constructor"
      },
      "getRoleAdmin(bytes32)": {
        "details": "Returns the admin role that controls `role`. See {grantRole} and {revokeRole}. To change a role's admin, use {_setRoleAdmin}."
      },
      "grantRole(bytes32,address)": {
        "details": "Grants `role` to `account`. If `account` had not been already granted `role`, emits a {RoleGranted} event. Requirements: - the caller must have ``role``'s admin role. May emit a {RoleGranted} event."
      },
      "hasRole(bytes32,address)": {
        "details": "Returns `true` if `account` has been granted `role`."
      },
      "initialize()": {
        "details": "Proxy initializer. _consumerIdCounter starts from 1."
      },
      "proxiableUUID()": {
        "details": "Implementation of the ERC1822 {proxiableUUID} function. This returns the storage slot used by the implementation. It is used to validate the implementation's compatibility when performing an upgrade. IMPORTANT: A proxy pointing at a proxiable contract should not be considered proxiable itself, because this risks bricking a proxy that upgrades to it, by delegating to itself until out of gas. Thus it is critical that this function revert if invoked through a proxy. This is guaranteed by the `notDelegated` modifier."
      },
      "registerConsumer(address,address)": {
        "details": "Refer Refer to ISignatureManager.sol"
      },
      "renounceRole(bytes32,address)": {
        "details": "Revokes `role` from the calling account. Roles are often managed via {grantRole} and {revokeRole}: this function's purpose is to provide a mechanism for accounts to lose their privileges if they are compromised (such as when a trusted device is misplaced). If the calling account had been revoked `role`, emits a {RoleRevoked} event. Requirements: - the caller must be `account`. May emit a {RoleRevoked} event."
      },
      "revokeRole(bytes32,address)": {
        "details": "Revokes `role` from `account`. If `account` had been granted `role`, emits a {RoleRevoked} event. Requirements: - the caller must have ``role``'s admin role. May emit a {RoleRevoked} event."
      },
      "setIssuer(address)": {
        "details": "Refer to ISignatureManager.sol"
      },
      "supportsInterface(bytes4)": {
        "details": "See {IERC165-supportsInterface}."
      },
      "upgradeTo(address)": {
        "details": "Upgrade the implementation of the proxy to `newImplementation`. Calls {_authorizeUpgrade}. Emits an {Upgraded} event."
      },
      "upgradeToAndCall(address,bytes)": {
        "details": "Upgrade the implementation of the proxy to `newImplementation`, and subsequently execute the function call encoded in `data`. Calls {_authorizeUpgrade}. Emits an {Upgraded} event."
      },
      "useSignature(bytes)": {
        "details": "Refer to ISignatureManager.sol"
      },
      "verifySignature(address,uint256,uint256,bytes,address)": {
        "details": "Refer to ISignatureManager.sol"
      }
    },
    "title": "Signature Manager",
    "version": 1
  },
  "userdoc": {
    "kind": "user",
    "methods": {
      "initialize()": {
        "notice": "Initialize the contract and grant roles to the deployer"
      },
      "registerConsumer(address,address)": {
        "notice": "Registeres a consumer"
      },
      "verifySignature(address,uint256,uint256,bytes,address)": {
        "notice": "Checks is a signature is valid and not used already"
      }
    },
    "notice": "Verifies and stores the signatures signed by an issuer entity.",
    "version": 1
  },
  "storageLayout": {
    "storage": [
      {
        "astId": 936,
        "contract": "contracts/cryptography/SignatureManager.sol:SignatureManager",
        "label": "_initialized",
        "offset": 0,
        "slot": "0",
        "type": "t_uint8"
      },
      {
        "astId": 939,
        "contract": "contracts/cryptography/SignatureManager.sol:SignatureManager",
        "label": "_initializing",
        "offset": 1,
        "slot": "0",
        "type": "t_bool"
      },
      {
        "astId": 2722,
        "contract": "contracts/cryptography/SignatureManager.sol:SignatureManager",
        "label": "__gap",
        "offset": 0,
        "slot": "1",
        "type": "t_array(t_uint256)50_storage"
      },
      {
        "astId": 3075,
        "contract": "contracts/cryptography/SignatureManager.sol:SignatureManager",
        "label": "__gap",
        "offset": 0,
        "slot": "51",
        "type": "t_array(t_uint256)50_storage"
      },
      {
        "astId": 39,
        "contract": "contracts/cryptography/SignatureManager.sol:SignatureManager",
        "label": "_roles",
        "offset": 0,
        "slot": "101",
        "type": "t_mapping(t_bytes32,t_struct(RoleData)34_storage)"
      },
      {
        "astId": 334,
        "contract": "contracts/cryptography/SignatureManager.sol:SignatureManager",
        "label": "__gap",
        "offset": 0,
        "slot": "102",
        "type": "t_array(t_uint256)49_storage"
      },
      {
        "astId": 918,
        "contract": "contracts/cryptography/SignatureManager.sol:SignatureManager",
        "label": "__gap",
        "offset": 0,
        "slot": "151",
        "type": "t_array(t_uint256)50_storage"
      },
      {
        "astId": 1233,
        "contract": "contracts/cryptography/SignatureManager.sol:SignatureManager",
        "label": "__gap",
        "offset": 0,
        "slot": "201",
        "type": "t_array(t_uint256)50_storage"
      },
      {
        "astId": 5518,
        "contract": "contracts/cryptography/SignatureManager.sol:SignatureManager",
        "label": "_issuerByConsumerAddress",
        "offset": 0,
        "slot": "251",
        "type": "t_mapping(t_address,t_address)"
      },
      {
        "astId": 5524,
        "contract": "contracts/cryptography/SignatureManager.sol:SignatureManager",
        "label": "_usedSignaturesByConsumer",
        "offset": 0,
        "slot": "252",
        "type": "t_mapping(t_address,t_mapping(t_bytes_memory_ptr,t_bool))"
      },
      {
        "astId": 5528,
        "contract": "contracts/cryptography/SignatureManager.sol:SignatureManager",
        "label": "__gap",
        "offset": 0,
        "slot": "253",
        "type": "t_array(t_uint256)97_storage"
      }
    ],
    "types": {
      "t_address": {
        "encoding": "inplace",
        "label": "address",
        "numberOfBytes": "20"
      },
      "t_array(t_uint256)49_storage": {
        "base": "t_uint256",
        "encoding": "inplace",
        "label": "uint256[49]",
        "numberOfBytes": "1568"
      },
      "t_array(t_uint256)50_storage": {
        "base": "t_uint256",
        "encoding": "inplace",
        "label": "uint256[50]",
        "numberOfBytes": "1600"
      },
      "t_array(t_uint256)97_storage": {
        "base": "t_uint256",
        "encoding": "inplace",
        "label": "uint256[97]",
        "numberOfBytes": "3104"
      },
      "t_bool": {
        "encoding": "inplace",
        "label": "bool",
        "numberOfBytes": "1"
      },
      "t_bytes32": {
        "encoding": "inplace",
        "label": "bytes32",
        "numberOfBytes": "32"
      },
      "t_bytes_memory_ptr": {
        "encoding": "bytes",
        "label": "bytes",
        "numberOfBytes": "32"
      },
      "t_mapping(t_address,t_address)": {
        "encoding": "mapping",
        "key": "t_address",
        "label": "mapping(address => address)",
        "numberOfBytes": "32",
        "value": "t_address"
      },
      "t_mapping(t_address,t_bool)": {
        "encoding": "mapping",
        "key": "t_address",
        "label": "mapping(address => bool)",
        "numberOfBytes": "32",
        "value": "t_bool"
      },
      "t_mapping(t_address,t_mapping(t_bytes_memory_ptr,t_bool))": {
        "encoding": "mapping",
        "key": "t_address",
        "label": "mapping(address => mapping(bytes => bool))",
        "numberOfBytes": "32",
        "value": "t_mapping(t_bytes_memory_ptr,t_bool)"
      },
      "t_mapping(t_bytes32,t_struct(RoleData)34_storage)": {
        "encoding": "mapping",
        "key": "t_bytes32",
        "label": "mapping(bytes32 => struct AccessControlUpgradeable.RoleData)",
        "numberOfBytes": "32",
        "value": "t_struct(RoleData)34_storage"
      },
      "t_mapping(t_bytes_memory_ptr,t_bool)": {
        "encoding": "mapping",
        "key": "t_bytes_memory_ptr",
        "label": "mapping(bytes => bool)",
        "numberOfBytes": "32",
        "value": "t_bool"
      },
      "t_struct(RoleData)34_storage": {
        "encoding": "inplace",
        "label": "struct AccessControlUpgradeable.RoleData",
        "members": [
          {
            "astId": 31,
            "contract": "contracts/cryptography/SignatureManager.sol:SignatureManager",
            "label": "members",
            "offset": 0,
            "slot": "0",
            "type": "t_mapping(t_address,t_bool)"
          },
          {
            "astId": 33,
            "contract": "contracts/cryptography/SignatureManager.sol:SignatureManager",
            "label": "adminRole",
            "offset": 0,
            "slot": "1",
            "type": "t_bytes32"
          }
        ],
        "numberOfBytes": "64"
      },
      "t_uint256": {
        "encoding": "inplace",
        "label": "uint256",
        "numberOfBytes": "32"
      },
      "t_uint8": {
        "encoding": "inplace",
        "label": "uint8",
        "numberOfBytes": "1"
      }
    }
  }
}